{
  "address": "0x84d40f9438D1d993110cAc237dc3cec37C65C87c",
  "abi": [
    {
      "inputs": [
        {
          "internalType": "address",
          "name": "target",
          "type": "address"
        }
      ],
      "name": "AddressEmptyCode",
      "type": "error"
    },
    {
      "inputs": [
        {
          "internalType": "address",
          "name": "account",
          "type": "address"
        }
      ],
      "name": "AddressInsufficientBalance",
      "type": "error"
    },
    {
      "inputs": [
        {
          "internalType": "address",
          "name": "implementation",
          "type": "address"
        }
      ],
      "name": "ERC1967InvalidImplementation",
      "type": "error"
    },
    {
      "inputs": [],
      "name": "ERC1967NonPayable",
      "type": "error"
    },
    {
      "inputs": [],
      "name": "EnforcedPause",
      "type": "error"
    },
    {
      "inputs": [],
      "name": "ExpectedPause",
      "type": "error"
    },
    {
      "inputs": [],
      "name": "FailedInnerCall",
      "type": "error"
    },
    {
      "inputs": [],
      "name": "InvalidInitialization",
      "type": "error"
    },
    {
      "inputs": [],
      "name": "NotInitializing",
      "type": "error"
    },
    {
      "inputs": [
        {
          "internalType": "address",
          "name": "owner",
          "type": "address"
        }
      ],
      "name": "OwnableInvalidOwner",
      "type": "error"
    },
    {
      "inputs": [
        {
          "internalType": "address",
          "name": "account",
          "type": "address"
        }
      ],
      "name": "OwnableUnauthorizedAccount",
      "type": "error"
    },
    {
      "inputs": [
        {
          "internalType": "address",
          "name": "token",
          "type": "address"
        }
      ],
      "name": "SafeERC20FailedOperation",
      "type": "error"
    },
    {
      "inputs": [],
      "name": "UUPSUnauthorizedCallContext",
      "type": "error"
    },
    {
      "inputs": [
        {
          "internalType": "bytes32",
          "name": "slot",
          "type": "bytes32"
        }
      ],
      "name": "UUPSUnsupportedProxiableUUID",
      "type": "error"
    },
    {
      "anonymous": false,
      "inputs": [
        {
          "indexed": false,
          "internalType": "uint64",
          "name": "version",
          "type": "uint64"
        }
      ],
      "name": "Initialized",
      "type": "event"
    },
    {
      "anonymous": false,
      "inputs": [
        {
          "indexed": true,
          "internalType": "address",
          "name": "orderRelayer",
          "type": "address"
        }
      ],
      "name": "OrderRelayerSet",
      "type": "event"
    },
    {
      "anonymous": false,
      "inputs": [
        {
          "indexed": true,
          "internalType": "address",
          "name": "staker",
          "type": "address"
        },
        {
          "indexed": false,
          "internalType": "uint256",
          "name": "amount",
          "type": "uint256"
        }
      ],
      "name": "OrderStaked",
      "type": "event"
    },
    {
      "anonymous": false,
      "inputs": [
        {
          "indexed": true,
          "internalType": "address",
          "name": "staker",
          "type": "address"
        },
        {
          "indexed": false,
          "internalType": "uint256",
          "name": "amount",
          "type": "uint256"
        }
      ],
      "name": "OrderUnstakeCompleted",
      "type": "event"
    },
    {
      "anonymous": false,
      "inputs": [
        {
          "indexed": true,
          "internalType": "address",
          "name": "staker",
          "type": "address"
        },
        {
          "indexed": false,
          "internalType": "uint256",
          "name": "amount",
          "type": "uint256"
        }
      ],
      "name": "OrderUnstakeRequired",
      "type": "event"
    },
    {
      "anonymous": false,
      "inputs": [
        {
          "indexed": true,
          "internalType": "address",
          "name": "previousOwner",
          "type": "address"
        },
        {
          "indexed": true,
          "internalType": "address",
          "name": "newOwner",
          "type": "address"
        }
      ],
      "name": "OwnershipTransferred",
      "type": "event"
    },
    {
      "anonymous": false,
      "inputs": [
        {
          "indexed": false,
          "internalType": "address",
          "name": "account",
          "type": "address"
        }
      ],
      "name": "Paused",
      "type": "event"
    },
    {
      "anonymous": false,
      "inputs": [
        {
          "indexed": false,
          "internalType": "address",
          "name": "account",
          "type": "address"
        }
      ],
      "name": "Unpaused",
      "type": "event"
    },
    {
      "anonymous": false,
      "inputs": [
        {
          "indexed": true,
          "internalType": "address",
          "name": "implementation",
          "type": "address"
        }
      ],
      "name": "Upgraded",
      "type": "event"
    },
    {
      "inputs": [],
      "name": "UPGRADE_INTERFACE_VERSION",
      "outputs": [
        {
          "internalType": "string",
          "name": "",
          "type": "string"
        }
      ],
      "stateMutability": "view",
      "type": "function"
    },
    {
      "inputs": [
        {
          "internalType": "address",
          "name": "_staker",
          "type": "address"
        },
        {
          "internalType": "uint256",
          "name": "_amount",
          "type": "uint256"
        }
      ],
      "name": "getStakeFee",
      "outputs": [
        {
          "internalType": "uint256",
          "name": "",
          "type": "uint256"
        }
      ],
      "stateMutability": "view",
      "type": "function"
    },
    {
      "inputs": [
        {
          "internalType": "address",
          "name": "_owner",
          "type": "address"
        }
      ],
      "name": "initialize",
      "outputs": [],
      "stateMutability": "nonpayable",
      "type": "function"
    },
    {
      "inputs": [],
      "name": "oft",
      "outputs": [
        {
          "internalType": "address",
          "name": "",
          "type": "address"
        }
      ],
      "stateMutability": "view",
      "type": "function"
    },
    {
      "inputs": [],
      "name": "owner",
      "outputs": [
        {
          "internalType": "address",
          "name": "",
          "type": "address"
        }
      ],
      "stateMutability": "view",
      "type": "function"
    },
    {
      "inputs": [],
      "name": "pause",
      "outputs": [],
      "stateMutability": "nonpayable",
      "type": "function"
    },
    {
      "inputs": [],
      "name": "paused",
      "outputs": [
        {
          "internalType": "bool",
          "name": "",
          "type": "bool"
        }
      ],
      "stateMutability": "view",
      "type": "function"
    },
    {
      "inputs": [],
      "name": "proxiableUUID",
      "outputs": [
        {
          "internalType": "bytes32",
          "name": "",
          "type": "bytes32"
        }
      ],
      "stateMutability": "view",
      "type": "function"
    },
    {
      "inputs": [],
      "name": "renounceOwnership",
      "outputs": [],
      "stateMutability": "nonpayable",
      "type": "function"
    },
    {
      "inputs": [],
      "name": "safeRelayer",
      "outputs": [
        {
          "internalType": "address",
          "name": "",
          "type": "address"
        }
      ],
      "stateMutability": "view",
      "type": "function"
    },
    {
      "inputs": [
        {
          "internalType": "address",
          "name": "_oft",
          "type": "address"
        }
      ],
      "name": "setOft",
      "outputs": [],
      "stateMutability": "nonpayable",
      "type": "function"
    },
    {
      "inputs": [
        {
          "internalType": "address",
          "name": "_orderRelayer",
          "type": "address"
        }
      ],
      "name": "setOrderRelayer",
      "outputs": [],
      "stateMutability": "nonpayable",
      "type": "function"
    },
    {
      "inputs": [
        {
          "internalType": "address",
          "name": "_staker",
          "type": "address"
        },
        {
          "internalType": "uint256",
          "name": "_amount",
          "type": "uint256"
        }
      ],
      "name": "stakeOrder",
      "outputs": [],
      "stateMutability": "payable",
      "type": "function"
    },
    {
      "inputs": [
        {
          "internalType": "address",
          "name": "newOwner",
          "type": "address"
        }
      ],
      "name": "transferOwnership",
      "outputs": [],
      "stateMutability": "nonpayable",
      "type": "function"
    },
    {
      "inputs": [],
      "name": "unpause",
      "outputs": [],
      "stateMutability": "nonpayable",
      "type": "function"
    },
    {
      "inputs": [
        {
          "internalType": "address",
          "name": "_staker",
          "type": "address"
        },
        {
          "internalType": "uint256",
          "name": "_amount",
          "type": "uint256"
        }
      ],
      "name": "unstakeOrder",
      "outputs": [],
      "stateMutability": "nonpayable",
      "type": "function"
    },
    {
      "inputs": [
        {
          "internalType": "address",
          "name": "newImplementation",
          "type": "address"
        },
        {
          "internalType": "bytes",
          "name": "data",
          "type": "bytes"
        }
      ],
      "name": "upgradeToAndCall",
      "outputs": [],
      "stateMutability": "payable",
      "type": "function"
    }
  ],
  "transactionHash": "0x644884e8b904d948c0db76221d9d0e27e80426e58c033fbc1358c4d4510809d5",
  "args": [],
  "numDeployments": 1,
  "solcInputHash": "13da1305e09e274dc3fa4bbda090d163",
  "bytecode": "0x60a06040523060805234801561001457600080fd5b5060805161131c61003e600039600081816109fd01528181610a260152610b6c015261131c6000f3fe6080604052600436106100fe5760003560e01c80639419c23c11610095578063c4d66de811610064578063c4d66de8146102be578063d0d09227146102de578063f29e8d2c146102fe578063f2fde38b1461031e578063fb11f7021461033e57600080fd5b80639419c23c146102205780639b5215f614610240578063ad3cb1cc14610260578063b4a1c99e1461029e57600080fd5b8063715018a6116100d1578063715018a6146101855780638456cb591461019a57806386498cd8146101af5780638da5cb5b146101cf57600080fd5b80633f4ba83a146101035780634f1ef2861461011a57806352d1902d1461012d5780635c975abb14610155575b600080fd5b34801561010f57600080fd5b50610118610351565b005b6101186101283660046110ce565b610363565b34801561013957600080fd5b50610142610382565b6040519081526020015b60405180910390f35b34801561016157600080fd5b506000805160206112c78339815191525460ff16604051901515815260200161014c565b34801561019157600080fd5b5061011861039f565b3480156101a657600080fd5b506101186103b1565b3480156101bb57600080fd5b506101186101ca366004611192565b6103c1565b3480156101db57600080fd5b507f9016d09d72d40fdae2fd8ceac6b6234c7706214fd39c1cd1e609a0528c199300546001600160a01b03165b6040516001600160a01b03909116815260200161014c565b34801561022c57600080fd5b50600054610208906001600160a01b031681565b34801561024c57600080fd5b50600154610208906001600160a01b031681565b34801561026c57600080fd5b50610291604051806040016040528060058152602001640352e302e360dc1b81525081565b60405161014c91906111d3565b3480156102aa57600080fd5b506101426102b9366004611206565b61047d565b3480156102ca57600080fd5b506101186102d9366004611192565b6104fa565b3480156102ea57600080fd5b506101186102f9366004611206565b61061a565b34801561030a57600080fd5b50610118610319366004611192565b6106dc565b34801561032a57600080fd5b50610118610339366004611192565b61075c565b61011861034c366004611206565b61079a565b610359610937565b610361610992565b565b61036b6109f2565b61037482610a97565b61037e8282610a9f565b5050565b600061038c610b61565b506000805160206112a783398151915290565b6103a7610937565b6103616000610baa565b6103b9610937565b610361610c1b565b6103c9610937565b6001600160a01b0381166104355760405162461bcd60e51b815260206004820152602860248201527f4f72646572536166653a20696e76616c6964206f726465722072656c61796572604482015267206164647265737360c01b60648201526084015b60405180910390fd5b600080546001600160a01b0319166001600160a01b038316908117825560405190917f149cf7635481d99c3f1f92ac518a08988802d6b32da227787e49fba2b83590c991a250565b60008054604051635a50e4cf60e11b81526001600160a01b038581166004830152602482018590529091169063b4a1c99e90604401602060405180830381865afa1580156104cf573d6000803e3d6000fd5b505050506040513d601f19601f820116820180604052508101906104f39190611232565b9392505050565b7ff0c57e16840df040f15088dc2f81fe391c3923bec73e23a9662efc9c229c6a008054600160401b810460ff16159067ffffffffffffffff166000811580156105405750825b905060008267ffffffffffffffff16600114801561055d5750303b155b90508115801561056b575080155b156105895760405163f92ee8a960e01b815260040160405180910390fd5b845467ffffffffffffffff1916600117855583156105b357845460ff60401b1916600160401b1785555b6105bb610c64565b6105c486610c6c565b6105cc610c7d565b831561061257845460ff60401b19168555604051600181527fc7f505b2f371ae2175ee4913f4499e1f2633a7b5936321eed1cdaeb6115181d29060200160405180910390a15b505050505050565b610622610c8d565b336001600160a01b0383161461067a5760405162461bcd60e51b815260206004820181905260248201527f4f72646572536166653a2073656e646572206d757374206265207374616b6572604482015260640161042c565b6000546040516336fd464160e01b81526001600160a01b03848116600483015260248201849052909116906336fd464190604401600060405180830381600087803b1580156106c857600080fd5b505af1158015610612573d6000803e3d6000fd5b6106e4610937565b6001600160a01b03811661073a5760405162461bcd60e51b815260206004820152601e60248201527f4f72646572536166653a20696e76616c6964206f667420616464726573730000604482015260640161042c565b600180546001600160a01b0319166001600160a01b0392909216919091179055565b610764610937565b6001600160a01b03811661078e57604051631e4fbdf760e01b81526000600482015260240161042c565b61079781610baa565b50565b6107a2610c8d565b336001600160a01b038316146107fa5760405162461bcd60e51b815260206004820181905260248201527f4f72646572536166653a2073656e646572206d757374206265207374616b6572604482015260640161042c565b60015460408051637e062a3560e11b815290516000926001600160a01b03169163fc0c546a9160048083019260209291908290030181865afa158015610844573d6000803e3d6000fd5b505050506040513d601f19601f82011682018060405250810190610868919061124b565b600054909150610887906001600160a01b038084169186911685610cbe565b6000546040516302ba6c1560e01b81526001600160a01b03858116600483015260248201859052909116906302ba6c159034906044016000604051808303818588803b1580156108d657600080fd5b505af11580156108ea573d6000803e3d6000fd5b5050505050826001600160a01b03167fc2ea0f360c0eccae091cb1d3271b0a0b58a72c9845f73fad6e36afe92aa5a72d8360405161092a91815260200190565b60405180910390a2505050565b336109697f9016d09d72d40fdae2fd8ceac6b6234c7706214fd39c1cd1e609a0528c199300546001600160a01b031690565b6001600160a01b0316146103615760405163118cdaa760e01b815233600482015260240161042c565b61099a610d1e565b6000805160206112c7833981519152805460ff191681557f5db9ee0a495bf2e6ff9c91a7834c1ba4fdd244a5e8aa4e537bd38aeae4b073aa335b6040516001600160a01b03909116815260200160405180910390a150565b306001600160a01b037f0000000000000000000000000000000000000000000000000000000000000000161480610a7957507f00000000000000000000000000000000000000000000000000000000000000006001600160a01b0316610a6d6000805160206112a7833981519152546001600160a01b031690565b6001600160a01b031614155b156103615760405163703e46dd60e11b815260040160405180910390fd5b610797610937565b816001600160a01b03166352d1902d6040518163ffffffff1660e01b8152600401602060405180830381865afa925050508015610af9575060408051601f3d908101601f19168201909252610af691810190611232565b60015b610b2157604051634c9c8ce360e01b81526001600160a01b038316600482015260240161042c565b6000805160206112a78339815191528114610b5257604051632a87526960e21b81526004810182905260240161042c565b610b5c8383610d4e565b505050565b306001600160a01b037f000000000000000000000000000000000000000000000000000000000000000016146103615760405163703e46dd60e11b815260040160405180910390fd5b7f9016d09d72d40fdae2fd8ceac6b6234c7706214fd39c1cd1e609a0528c19930080546001600160a01b031981166001600160a01b03848116918217845560405192169182907f8be0079c531659141344cd1fd0a4f28419497f9722a3daafe3b4186f6b6457e090600090a3505050565b610c23610c8d565b6000805160206112c7833981519152805460ff191660011781557f62e78cea01bee320cd4e420270b5ea74000d11b0c9f74754ebdbfc544b05a258336109d4565b610361610da4565b610c74610da4565b61079781610ded565b610c85610da4565b610361610df5565b6000805160206112c78339815191525460ff16156103615760405163d93c066560e01b815260040160405180910390fd5b604080516001600160a01b0385811660248301528416604482015260648082018490528251808303909101815260849091019091526020810180516001600160e01b03166323b872dd60e01b179052610d18908590610e16565b50505050565b6000805160206112c78339815191525460ff1661036157604051638dfc202b60e01b815260040160405180910390fd5b610d5782610e79565b6040516001600160a01b038316907fbc7cd75a20ee27fd9adebab32041f755214dbc6bffa90cc0225b39da2e5c2d3b90600090a2805115610d9c57610b5c8282610ede565b61037e610f54565b7ff0c57e16840df040f15088dc2f81fe391c3923bec73e23a9662efc9c229c6a0054600160401b900460ff1661036157604051631afcd79f60e31b815260040160405180910390fd5b610764610da4565b610dfd610da4565b6000805160206112c7833981519152805460ff19169055565b6000610e2b6001600160a01b03841683610f73565b90508051600014158015610e50575080806020019051810190610e4e9190611268565b155b15610b5c57604051635274afe760e01b81526001600160a01b038416600482015260240161042c565b806001600160a01b03163b600003610eaf57604051634c9c8ce360e01b81526001600160a01b038216600482015260240161042c565b6000805160206112a783398151915280546001600160a01b0319166001600160a01b0392909216919091179055565b6060600080846001600160a01b031684604051610efb919061128a565b600060405180830381855af49150503d8060008114610f36576040519150601f19603f3d011682016040523d82523d6000602084013e610f3b565b606091505b5091509150610f4b858383610f81565b95945050505050565b34156103615760405163b398979f60e01b815260040160405180910390fd5b60606104f383836000610fdd565b606082610f9657610f918261107a565b6104f3565b8151158015610fad57506001600160a01b0384163b155b15610fd657604051639996b31560e01b81526001600160a01b038516600482015260240161042c565b5092915050565b6060814710156110025760405163cd78605960e01b815230600482015260240161042c565b600080856001600160a01b0316848660405161101e919061128a565b60006040518083038185875af1925050503d806000811461105b576040519150601f19603f3d011682016040523d82523d6000602084013e611060565b606091505b5091509150611070868383610f81565b9695505050505050565b80511561108a5780518082602001fd5b604051630a12f52160e11b815260040160405180910390fd5b6001600160a01b038116811461079757600080fd5b634e487b7160e01b600052604160045260246000fd5b600080604083850312156110e157600080fd5b82356110ec816110a3565b9150602083013567ffffffffffffffff8082111561110957600080fd5b818501915085601f83011261111d57600080fd5b81358181111561112f5761112f6110b8565b604051601f8201601f19908116603f01168101908382118183101715611157576111576110b8565b8160405282815288602084870101111561117057600080fd5b8260208601602083013760006020848301015280955050505050509250929050565b6000602082840312156111a457600080fd5b81356104f3816110a3565b60005b838110156111ca5781810151838201526020016111b2565b50506000910152565b60208152600082518060208401526111f28160408501602087016111af565b601f01601f19169190910160400192915050565b6000806040838503121561121957600080fd5b8235611224816110a3565b946020939093013593505050565b60006020828403121561124457600080fd5b5051919050565b60006020828403121561125d57600080fd5b81516104f3816110a3565b60006020828403121561127a57600080fd5b815180151581146104f357600080fd5b6000825161129c8184602087016111af565b919091019291505056fe360894a13ba1a3210667c828492db98dca3e2076cc3735a920a3ca505d382bbccd5ed15c6e187e77e9aee88184c21f4f2182ab5827cb3b7e07fbedcd63f03300a2646970667358221220b12d4a43ac960778d9bdf7768b94428d0eeb8b44273c3b9c7d1231b99f1fab8a64736f6c63430008140033",
  "devdoc": {
    "errors": {
      "AddressEmptyCode(address)": [
        {
          "details": "There's no code at `target` (it is not a contract)."
        }
      ],
      "AddressInsufficientBalance(address)": [
        {
          "details": "The ETH balance of the account is not enough to perform the operation."
        }
      ],
      "ERC1967InvalidImplementation(address)": [
        {
          "details": "The `implementation` of the proxy is invalid."
        }
      ],
      "ERC1967NonPayable()": [
        {
          "details": "An upgrade function sees `msg.value > 0` that may be lost."
        }
      ],
      "EnforcedPause()": [
        {
          "details": "The operation failed because the contract is paused."
        }
      ],
      "ExpectedPause()": [
        {
          "details": "The operation failed because the contract is not paused."
        }
      ],
      "FailedInnerCall()": [
        {
          "details": "A call to an address target failed. The target may have reverted."
        }
      ],
      "InvalidInitialization()": [
        {
          "details": "The contract is already initialized."
        }
      ],
      "NotInitializing()": [
        {
          "details": "The contract is not initializing."
        }
      ],
      "OwnableInvalidOwner(address)": [
        {
          "details": "The owner is not a valid owner account. (eg. `address(0)`)"
        }
      ],
      "OwnableUnauthorizedAccount(address)": [
        {
          "details": "The caller account is not authorized to perform an operation."
        }
      ],
      "SafeERC20FailedOperation(address)": [
        {
          "details": "An operation with an ERC20 token failed."
        }
      ],
      "UUPSUnauthorizedCallContext()": [
        {
          "details": "The call is from an unauthorized context."
        }
      ],
      "UUPSUnsupportedProxiableUUID(bytes32)": [
        {
          "details": "The storage `slot` is unsupported as a UUID."
        }
      ]
    },
    "events": {
      "Initialized(uint64)": {
        "details": "Triggered when the contract has been initialized or reinitialized."
      },
      "Paused(address)": {
        "details": "Emitted when the pause is triggered by `account`."
      },
      "Unpaused(address)": {
        "details": "Emitted when the pause is lifted by `account`."
      },
      "Upgraded(address)": {
        "details": "Emitted when the implementation is upgraded."
      }
    },
    "kind": "dev",
    "methods": {
      "owner()": {
        "details": "Returns the address of the current owner."
      },
      "paused()": {
        "details": "Returns true if the contract is paused, and false otherwise."
      },
      "proxiableUUID()": {
        "details": "Implementation of the ERC1822 {proxiableUUID} function. This returns the storage slot used by the implementation. It is used to validate the implementation's compatibility when performing an upgrade. IMPORTANT: A proxy pointing at a proxiable contract should not be considered proxiable itself, because this risks bricking a proxy that upgrades to it, by delegating to itself until out of gas. Thus it is critical that this function revert if invoked through a proxy. This is guaranteed by the `notDelegated` modifier."
      },
      "renounceOwnership()": {
        "details": "Leaves the contract without owner. It will not be possible to call `onlyOwner` functions. Can only be called by the current owner. NOTE: Renouncing ownership will leave the contract without an owner, thereby disabling any functionality that is only available to the owner."
      },
      "transferOwnership(address)": {
        "details": "Transfers ownership of the contract to a new account (`newOwner`). Can only be called by the current owner."
      },
      "upgradeToAndCall(address,bytes)": {
        "custom:oz-upgrades-unsafe-allow-reachable": "delegatecall",
        "details": "Upgrade the implementation of the proxy to `newImplementation`, and subsequently execute the function call encoded in `data`. Calls {_authorizeUpgrade}. Emits an {Upgraded} event."
      }
    },
    "version": 1
  },
  "userdoc": {
    "kind": "user",
    "methods": {},
    "version": 1
  },
  "storageLayout": {
    "storage": [
      {
        "astId": 11390,
        "contract": "contracts/crosschain/OrderSafe.sol:OrderSafe",
        "label": "safeRelayer",
        "offset": 0,
        "slot": "0",
        "type": "t_address"
      },
      {
        "astId": 11392,
        "contract": "contracts/crosschain/OrderSafe.sol:OrderSafe",
        "label": "oft",
        "offset": 0,
        "slot": "1",
        "type": "t_address"
      },
      {
        "astId": 11396,
        "contract": "contracts/crosschain/OrderSafe.sol:OrderSafe",
        "label": "_gap",
        "offset": 0,
        "slot": "2",
        "type": "t_array(t_uint256)50_storage"
      }
    ],
    "types": {
      "t_address": {
        "encoding": "inplace",
        "label": "address",
        "numberOfBytes": "20"
      },
      "t_array(t_uint256)50_storage": {
        "base": "t_uint256",
        "encoding": "inplace",
        "label": "uint256[50]",
        "numberOfBytes": "1600"
      },
      "t_uint256": {
        "encoding": "inplace",
        "label": "uint256",
        "numberOfBytes": "32"
      }
    }
  }
}