{
  "address": "0xC1Df33e70a738B83F24cfFb16Ec0835BBf3098F5",
  "abi": [
    {
      "inputs": [
        {
          "internalType": "address",
          "name": "target",
          "type": "address"
        }
      ],
      "name": "AddressEmptyCode",
      "type": "error"
    },
    {
      "inputs": [
        {
          "internalType": "address",
          "name": "account",
          "type": "address"
        }
      ],
      "name": "AddressInsufficientBalance",
      "type": "error"
    },
    {
      "inputs": [
        {
          "internalType": "address",
          "name": "implementation",
          "type": "address"
        }
      ],
      "name": "ERC1967InvalidImplementation",
      "type": "error"
    },
    {
      "inputs": [],
      "name": "ERC1967NonPayable",
      "type": "error"
    },
    {
      "inputs": [],
      "name": "EnforcedPause",
      "type": "error"
    },
    {
      "inputs": [],
      "name": "ExpectedPause",
      "type": "error"
    },
    {
      "inputs": [],
      "name": "FailedInnerCall",
      "type": "error"
    },
    {
      "inputs": [],
      "name": "InvalidDelegate",
      "type": "error"
    },
    {
      "inputs": [],
      "name": "InvalidEndpointCall",
      "type": "error"
    },
    {
      "inputs": [],
      "name": "InvalidInitialization",
      "type": "error"
    },
    {
      "inputs": [],
      "name": "InvalidLocalDecimals",
      "type": "error"
    },
    {
      "inputs": [
        {
          "internalType": "bytes",
          "name": "options",
          "type": "bytes"
        }
      ],
      "name": "InvalidOptions",
      "type": "error"
    },
    {
      "inputs": [],
      "name": "LzTokenUnavailable",
      "type": "error"
    },
    {
      "inputs": [
        {
          "internalType": "uint32",
          "name": "eid",
          "type": "uint32"
        }
      ],
      "name": "NoPeer",
      "type": "error"
    },
    {
      "inputs": [
        {
          "internalType": "uint256",
          "name": "msgValue",
          "type": "uint256"
        }
      ],
      "name": "NotEnoughNative",
      "type": "error"
    },
    {
      "inputs": [],
      "name": "NotInitializing",
      "type": "error"
    },
    {
      "inputs": [
        {
          "internalType": "address",
          "name": "addr",
          "type": "address"
        }
      ],
      "name": "OnlyEndpoint",
      "type": "error"
    },
    {
      "inputs": [
        {
          "internalType": "uint32",
          "name": "eid",
          "type": "uint32"
        },
        {
          "internalType": "bytes32",
          "name": "sender",
          "type": "bytes32"
        }
      ],
      "name": "OnlyPeer",
      "type": "error"
    },
    {
      "inputs": [],
      "name": "OnlySelf",
      "type": "error"
    },
    {
      "inputs": [
        {
          "internalType": "address",
          "name": "owner",
          "type": "address"
        }
      ],
      "name": "OwnableInvalidOwner",
      "type": "error"
    },
    {
      "inputs": [
        {
          "internalType": "address",
          "name": "account",
          "type": "address"
        }
      ],
      "name": "OwnableUnauthorizedAccount",
      "type": "error"
    },
    {
      "inputs": [
        {
          "internalType": "address",
          "name": "token",
          "type": "address"
        }
      ],
      "name": "SafeERC20FailedOperation",
      "type": "error"
    },
    {
      "inputs": [
        {
          "internalType": "bytes",
          "name": "result",
          "type": "bytes"
        }
      ],
      "name": "SimulationResult",
      "type": "error"
    },
    {
      "inputs": [
        {
          "internalType": "uint256",
          "name": "amountLD",
          "type": "uint256"
        },
        {
          "internalType": "uint256",
          "name": "minAmountLD",
          "type": "uint256"
        }
      ],
      "name": "SlippageExceeded",
      "type": "error"
    },
    {
      "inputs": [],
      "name": "UUPSUnauthorizedCallContext",
      "type": "error"
    },
    {
      "inputs": [
        {
          "internalType": "bytes32",
          "name": "slot",
          "type": "bytes32"
        }
      ],
      "name": "UUPSUnsupportedProxiableUUID",
      "type": "error"
    },
    {
      "anonymous": false,
      "inputs": [
        {
          "components": [
            {
              "internalType": "uint32",
              "name": "eid",
              "type": "uint32"
            },
            {
              "internalType": "uint16",
              "name": "msgType",
              "type": "uint16"
            },
            {
              "internalType": "bytes",
              "name": "options",
              "type": "bytes"
            }
          ],
          "indexed": false,
          "internalType": "struct EnforcedOptionParam[]",
          "name": "_enforcedOptions",
          "type": "tuple[]"
        }
      ],
      "name": "EnforcedOptionSet",
      "type": "event"
    },
    {
      "anonymous": false,
      "inputs": [
        {
          "indexed": false,
          "internalType": "uint64",
          "name": "version",
          "type": "uint64"
        }
      ],
      "name": "Initialized",
      "type": "event"
    },
    {
      "anonymous": false,
      "inputs": [
        {
          "indexed": false,
          "internalType": "address",
          "name": "inspector",
          "type": "address"
        }
      ],
      "name": "MsgInspectorSet",
      "type": "event"
    },
    {
      "anonymous": false,
      "inputs": [
        {
          "indexed": true,
          "internalType": "bytes32",
          "name": "guid",
          "type": "bytes32"
        },
        {
          "indexed": false,
          "internalType": "uint32",
          "name": "srcEid",
          "type": "uint32"
        },
        {
          "indexed": true,
          "internalType": "address",
          "name": "toAddress",
          "type": "address"
        },
        {
          "indexed": false,
          "internalType": "uint256",
          "name": "amountReceivedLD",
          "type": "uint256"
        }
      ],
      "name": "OCCReceived",
      "type": "event"
    },
    {
      "anonymous": false,
      "inputs": [
        {
          "indexed": true,
          "internalType": "bytes32",
          "name": "guid",
          "type": "bytes32"
        },
        {
          "indexed": false,
          "internalType": "uint32",
          "name": "dstEid",
          "type": "uint32"
        },
        {
          "indexed": true,
          "internalType": "address",
          "name": "fromAddress",
          "type": "address"
        },
        {
          "indexed": false,
          "internalType": "uint256",
          "name": "amountSentLD",
          "type": "uint256"
        },
        {
          "indexed": false,
          "internalType": "uint256",
          "name": "amountReceivedLD",
          "type": "uint256"
        }
      ],
      "name": "OCCSent",
      "type": "event"
    },
    {
      "anonymous": false,
      "inputs": [
        {
          "indexed": true,
          "internalType": "bytes32",
          "name": "guid",
          "type": "bytes32"
        },
        {
          "indexed": false,
          "internalType": "uint32",
          "name": "srcEid",
          "type": "uint32"
        },
        {
          "indexed": true,
          "internalType": "address",
          "name": "toAddress",
          "type": "address"
        },
        {
          "indexed": false,
          "internalType": "uint256",
          "name": "amountReceivedLD",
          "type": "uint256"
        }
      ],
      "name": "OFTReceived",
      "type": "event"
    },
    {
      "anonymous": false,
      "inputs": [
        {
          "indexed": true,
          "internalType": "bytes32",
          "name": "guid",
          "type": "bytes32"
        },
        {
          "indexed": false,
          "internalType": "uint32",
          "name": "dstEid",
          "type": "uint32"
        },
        {
          "indexed": true,
          "internalType": "address",
          "name": "fromAddress",
          "type": "address"
        },
        {
          "indexed": false,
          "internalType": "uint256",
          "name": "amountSentLD",
          "type": "uint256"
        },
        {
          "indexed": false,
          "internalType": "uint256",
          "name": "amountReceivedLD",
          "type": "uint256"
        }
      ],
      "name": "OFTSent",
      "type": "event"
    },
    {
      "anonymous": false,
      "inputs": [
        {
          "indexed": true,
          "internalType": "address",
          "name": "previousOwner",
          "type": "address"
        },
        {
          "indexed": true,
          "internalType": "address",
          "name": "newOwner",
          "type": "address"
        }
      ],
      "name": "OwnershipTransferred",
      "type": "event"
    },
    {
      "anonymous": false,
      "inputs": [
        {
          "indexed": false,
          "internalType": "address",
          "name": "account",
          "type": "address"
        }
      ],
      "name": "Paused",
      "type": "event"
    },
    {
      "anonymous": false,
      "inputs": [
        {
          "indexed": false,
          "internalType": "uint32",
          "name": "eid",
          "type": "uint32"
        },
        {
          "indexed": false,
          "internalType": "bytes32",
          "name": "peer",
          "type": "bytes32"
        }
      ],
      "name": "PeerSet",
      "type": "event"
    },
    {
      "anonymous": false,
      "inputs": [
        {
          "indexed": false,
          "internalType": "address",
          "name": "preCrimeAddress",
          "type": "address"
        }
      ],
      "name": "PreCrimeSet",
      "type": "event"
    },
    {
      "anonymous": false,
      "inputs": [
        {
          "indexed": false,
          "internalType": "address",
          "name": "account",
          "type": "address"
        }
      ],
      "name": "Unpaused",
      "type": "event"
    },
    {
      "anonymous": false,
      "inputs": [
        {
          "indexed": true,
          "internalType": "address",
          "name": "implementation",
          "type": "address"
        }
      ],
      "name": "Upgraded",
      "type": "event"
    },
    {
      "inputs": [],
      "name": "SEND",
      "outputs": [
        {
          "internalType": "uint16",
          "name": "",
          "type": "uint16"
        }
      ],
      "stateMutability": "view",
      "type": "function"
    },
    {
      "inputs": [],
      "name": "SEND_AND_CALL",
      "outputs": [
        {
          "internalType": "uint16",
          "name": "",
          "type": "uint16"
        }
      ],
      "stateMutability": "view",
      "type": "function"
    },
    {
      "inputs": [],
      "name": "UPGRADE_INTERFACE_VERSION",
      "outputs": [
        {
          "internalType": "string",
          "name": "",
          "type": "string"
        }
      ],
      "stateMutability": "view",
      "type": "function"
    },
    {
      "inputs": [
        {
          "components": [
            {
              "internalType": "uint32",
              "name": "srcEid",
              "type": "uint32"
            },
            {
              "internalType": "bytes32",
              "name": "sender",
              "type": "bytes32"
            },
            {
              "internalType": "uint64",
              "name": "nonce",
              "type": "uint64"
            }
          ],
          "internalType": "struct Origin",
          "name": "origin",
          "type": "tuple"
        }
      ],
      "name": "allowInitializePath",
      "outputs": [
        {
          "internalType": "bool",
          "name": "",
          "type": "bool"
        }
      ],
      "stateMutability": "view",
      "type": "function"
    },
    {
      "inputs": [],
      "name": "approvalRequired",
      "outputs": [
        {
          "internalType": "bool",
          "name": "",
          "type": "bool"
        }
      ],
      "stateMutability": "pure",
      "type": "function"
    },
    {
      "inputs": [
        {
          "internalType": "uint32",
          "name": "_srcEid",
          "type": "uint32"
        },
        {
          "internalType": "bytes32",
          "name": "_sender",
          "type": "bytes32"
        },
        {
          "internalType": "uint64",
          "name": "_nonce",
          "type": "uint64"
        },
        {
          "internalType": "bytes32",
          "name": "_payloadHash",
          "type": "bytes32"
        }
      ],
      "name": "burnInboundNonce",
      "outputs": [],
      "stateMutability": "nonpayable",
      "type": "function"
    },
    {
      "inputs": [
        {
          "components": [
            {
              "internalType": "uint32",
              "name": "srcEid",
              "type": "uint32"
            },
            {
              "internalType": "bytes32",
              "name": "sender",
              "type": "bytes32"
            },
            {
              "internalType": "uint64",
              "name": "nonce",
              "type": "uint64"
            }
          ],
          "internalType": "struct Origin",
          "name": "_origin",
          "type": "tuple"
        },
        {
          "internalType": "bytes32",
          "name": "_guid",
          "type": "bytes32"
        },
        {
          "internalType": "bytes",
          "name": "_message",
          "type": "bytes"
        }
      ],
      "name": "clearInboundNonce",
      "outputs": [],
      "stateMutability": "nonpayable",
      "type": "function"
    },
    {
      "inputs": [
        {
          "internalType": "uint32",
          "name": "_eid",
          "type": "uint32"
        },
        {
          "internalType": "uint16",
          "name": "_msgType",
          "type": "uint16"
        },
        {
          "internalType": "bytes",
          "name": "_extraOptions",
          "type": "bytes"
        }
      ],
      "name": "combineOptions",
      "outputs": [
        {
          "internalType": "bytes",
          "name": "",
          "type": "bytes"
        }
      ],
      "stateMutability": "view",
      "type": "function"
    },
    {
      "inputs": [],
      "name": "decimalConversionRate",
      "outputs": [
        {
          "internalType": "uint256",
          "name": "",
          "type": "uint256"
        }
      ],
      "stateMutability": "view",
      "type": "function"
    },
    {
      "inputs": [],
      "name": "endpoint",
      "outputs": [
        {
          "internalType": "contract ILayerZeroEndpointV2",
          "name": "",
          "type": "address"
        }
      ],
      "stateMutability": "view",
      "type": "function"
    },
    {
      "inputs": [
        {
          "internalType": "uint32",
          "name": "eid",
          "type": "uint32"
        },
        {
          "internalType": "uint16",
          "name": "msgType",
          "type": "uint16"
        }
      ],
      "name": "enforcedOptions",
      "outputs": [
        {
          "internalType": "bytes",
          "name": "enforcedOption",
          "type": "bytes"
        }
      ],
      "stateMutability": "view",
      "type": "function"
    },
    {
      "inputs": [
        {
          "internalType": "address",
          "name": "_orderToken",
          "type": "address"
        },
        {
          "internalType": "address",
          "name": "_lzEndpoint",
          "type": "address"
        },
        {
          "internalType": "address",
          "name": "_delegate",
          "type": "address"
        }
      ],
      "name": "initialize",
      "outputs": [],
      "stateMutability": "nonpayable",
      "type": "function"
    },
    {
      "inputs": [
        {
          "components": [
            {
              "internalType": "uint32",
              "name": "srcEid",
              "type": "uint32"
            },
            {
              "internalType": "bytes32",
              "name": "sender",
              "type": "bytes32"
            },
            {
              "internalType": "uint64",
              "name": "nonce",
              "type": "uint64"
            }
          ],
          "internalType": "struct Origin",
          "name": "",
          "type": "tuple"
        },
        {
          "internalType": "bytes",
          "name": "",
          "type": "bytes"
        },
        {
          "internalType": "address",
          "name": "_sender",
          "type": "address"
        }
      ],
      "name": "isComposeMsgSender",
      "outputs": [
        {
          "internalType": "bool",
          "name": "",
          "type": "bool"
        }
      ],
      "stateMutability": "view",
      "type": "function"
    },
    {
      "inputs": [
        {
          "internalType": "uint32",
          "name": "_eid",
          "type": "uint32"
        },
        {
          "internalType": "bytes32",
          "name": "_peer",
          "type": "bytes32"
        }
      ],
      "name": "isPeer",
      "outputs": [
        {
          "internalType": "bool",
          "name": "",
          "type": "bool"
        }
      ],
      "stateMutability": "view",
      "type": "function"
    },
    {
      "inputs": [
        {
          "components": [
            {
              "internalType": "uint32",
              "name": "srcEid",
              "type": "uint32"
            },
            {
              "internalType": "bytes32",
              "name": "sender",
              "type": "bytes32"
            },
            {
              "internalType": "uint64",
              "name": "nonce",
              "type": "uint64"
            }
          ],
          "internalType": "struct Origin",
          "name": "_origin",
          "type": "tuple"
        },
        {
          "internalType": "bytes32",
          "name": "_guid",
          "type": "bytes32"
        },
        {
          "internalType": "bytes",
          "name": "_message",
          "type": "bytes"
        },
        {
          "internalType": "address",
          "name": "_executor",
          "type": "address"
        },
        {
          "internalType": "bytes",
          "name": "_extraData",
          "type": "bytes"
        }
      ],
      "name": "lzReceive",
      "outputs": [],
      "stateMutability": "payable",
      "type": "function"
    },
    {
      "inputs": [
        {
          "components": [
            {
              "components": [
                {
                  "internalType": "uint32",
                  "name": "srcEid",
                  "type": "uint32"
                },
                {
                  "internalType": "bytes32",
                  "name": "sender",
                  "type": "bytes32"
                },
                {
                  "internalType": "uint64",
                  "name": "nonce",
                  "type": "uint64"
                }
              ],
              "internalType": "struct Origin",
              "name": "origin",
              "type": "tuple"
            },
            {
              "internalType": "uint32",
              "name": "dstEid",
              "type": "uint32"
            },
            {
              "internalType": "address",
              "name": "receiver",
              "type": "address"
            },
            {
              "internalType": "bytes32",
              "name": "guid",
              "type": "bytes32"
            },
            {
              "internalType": "uint256",
              "name": "value",
              "type": "uint256"
            },
            {
              "internalType": "address",
              "name": "executor",
              "type": "address"
            },
            {
              "internalType": "bytes",
              "name": "message",
              "type": "bytes"
            },
            {
              "internalType": "bytes",
              "name": "extraData",
              "type": "bytes"
            }
          ],
          "internalType": "struct InboundPacket[]",
          "name": "_packets",
          "type": "tuple[]"
        }
      ],
      "name": "lzReceiveAndRevert",
      "outputs": [],
      "stateMutability": "payable",
      "type": "function"
    },
    {
      "inputs": [
        {
          "components": [
            {
              "internalType": "uint32",
              "name": "srcEid",
              "type": "uint32"
            },
            {
              "internalType": "bytes32",
              "name": "sender",
              "type": "bytes32"
            },
            {
              "internalType": "uint64",
              "name": "nonce",
              "type": "uint64"
            }
          ],
          "internalType": "struct Origin",
          "name": "_origin",
          "type": "tuple"
        },
        {
          "internalType": "bytes32",
          "name": "_guid",
          "type": "bytes32"
        },
        {
          "internalType": "bytes",
          "name": "_message",
          "type": "bytes"
        },
        {
          "internalType": "address",
          "name": "_executor",
          "type": "address"
        },
        {
          "internalType": "bytes",
          "name": "_extraData",
          "type": "bytes"
        }
      ],
      "name": "lzReceiveSimulate",
      "outputs": [],
      "stateMutability": "payable",
      "type": "function"
    },
    {
      "inputs": [
        {
          "internalType": "uint32",
          "name": "",
          "type": "uint32"
        },
        {
          "internalType": "bytes32",
          "name": "",
          "type": "bytes32"
        }
      ],
      "name": "maxReceivedNonce",
      "outputs": [
        {
          "internalType": "uint64",
          "name": "",
          "type": "uint64"
        }
      ],
      "stateMutability": "view",
      "type": "function"
    },
    {
      "inputs": [],
      "name": "msgInspector",
      "outputs": [
        {
          "internalType": "address",
          "name": "",
          "type": "address"
        }
      ],
      "stateMutability": "view",
      "type": "function"
    },
    {
      "inputs": [
        {
          "internalType": "uint32",
          "name": "_srcEid",
          "type": "uint32"
        },
        {
          "internalType": "bytes32",
          "name": "_sender",
          "type": "bytes32"
        }
      ],
      "name": "nextNonce",
      "outputs": [
        {
          "internalType": "uint64",
          "name": "",
          "type": "uint64"
        }
      ],
      "stateMutability": "view",
      "type": "function"
    },
    {
      "inputs": [
        {
          "internalType": "uint32",
          "name": "_srcEid",
          "type": "uint32"
        },
        {
          "internalType": "bytes32",
          "name": "_sender",
          "type": "bytes32"
        },
        {
          "internalType": "uint64",
          "name": "_nonce",
          "type": "uint64"
        },
        {
          "internalType": "bytes32",
          "name": "_payloadHash",
          "type": "bytes32"
        }
      ],
      "name": "nilifyInboundNonce",
      "outputs": [],
      "stateMutability": "nonpayable",
      "type": "function"
    },
    {
      "inputs": [],
      "name": "oApp",
      "outputs": [
        {
          "internalType": "address",
          "name": "",
          "type": "address"
        }
      ],
      "stateMutability": "view",
      "type": "function"
    },
    {
      "inputs": [],
      "name": "oAppVersion",
      "outputs": [
        {
          "internalType": "uint64",
          "name": "senderVersion",
          "type": "uint64"
        },
        {
          "internalType": "uint64",
          "name": "receiverVersion",
          "type": "uint64"
        }
      ],
      "stateMutability": "pure",
      "type": "function"
    },
    {
      "inputs": [],
      "name": "occManager",
      "outputs": [
        {
          "internalType": "address",
          "name": "",
          "type": "address"
        }
      ],
      "stateMutability": "view",
      "type": "function"
    },
    {
      "inputs": [],
      "name": "oftVersion",
      "outputs": [
        {
          "internalType": "bytes4",
          "name": "interfaceId",
          "type": "bytes4"
        },
        {
          "internalType": "uint64",
          "name": "version",
          "type": "uint64"
        }
      ],
      "stateMutability": "pure",
      "type": "function"
    },
    {
      "inputs": [
        {
          "internalType": "uint32",
          "name": "",
          "type": "uint32"
        }
      ],
      "name": "orderedNonce",
      "outputs": [
        {
          "internalType": "bool",
          "name": "",
          "type": "bool"
        }
      ],
      "stateMutability": "view",
      "type": "function"
    },
    {
      "inputs": [],
      "name": "owner",
      "outputs": [
        {
          "internalType": "address",
          "name": "",
          "type": "address"
        }
      ],
      "stateMutability": "view",
      "type": "function"
    },
    {
      "inputs": [],
      "name": "pause",
      "outputs": [],
      "stateMutability": "nonpayable",
      "type": "function"
    },
    {
      "inputs": [],
      "name": "paused",
      "outputs": [
        {
          "internalType": "bool",
          "name": "",
          "type": "bool"
        }
      ],
      "stateMutability": "view",
      "type": "function"
    },
    {
      "inputs": [
        {
          "internalType": "uint32",
          "name": "eid",
          "type": "uint32"
        }
      ],
      "name": "peers",
      "outputs": [
        {
          "internalType": "bytes32",
          "name": "peer",
          "type": "bytes32"
        }
      ],
      "stateMutability": "view",
      "type": "function"
    },
    {
      "inputs": [],
      "name": "preCrime",
      "outputs": [
        {
          "internalType": "address",
          "name": "",
          "type": "address"
        }
      ],
      "stateMutability": "view",
      "type": "function"
    },
    {
      "inputs": [],
      "name": "proxiableUUID",
      "outputs": [
        {
          "internalType": "bytes32",
          "name": "",
          "type": "bytes32"
        }
      ],
      "stateMutability": "view",
      "type": "function"
    },
    {
      "inputs": [
        {
          "internalType": "uint32",
          "name": "_srcEid",
          "type": "uint32"
        },
        {
          "internalType": "bytes32",
          "name": "_sender",
          "type": "bytes32"
        }
      ],
      "name": "pullMaxReceivedNonce",
      "outputs": [],
      "stateMutability": "nonpayable",
      "type": "function"
    },
    {
      "inputs": [
        {
          "components": [
            {
              "internalType": "uint32",
              "name": "dstEid",
              "type": "uint32"
            },
            {
              "internalType": "bytes32",
              "name": "to",
              "type": "bytes32"
            },
            {
              "internalType": "uint256",
              "name": "amountLD",
              "type": "uint256"
            },
            {
              "internalType": "uint256",
              "name": "minAmountLD",
              "type": "uint256"
            },
            {
              "internalType": "bytes",
              "name": "extraOptions",
              "type": "bytes"
            },
            {
              "internalType": "bytes",
              "name": "composeMsg",
              "type": "bytes"
            },
            {
              "internalType": "bytes",
              "name": "oftCmd",
              "type": "bytes"
            }
          ],
          "internalType": "struct SendParam",
          "name": "_sendParam",
          "type": "tuple"
        }
      ],
      "name": "quoteOFT",
      "outputs": [
        {
          "components": [
            {
              "internalType": "uint256",
              "name": "minAmountLD",
              "type": "uint256"
            },
            {
              "internalType": "uint256",
              "name": "maxAmountLD",
              "type": "uint256"
            }
          ],
          "internalType": "struct OFTLimit",
          "name": "oftLimit",
          "type": "tuple"
        },
        {
          "components": [
            {
              "internalType": "int256",
              "name": "feeAmountLD",
              "type": "int256"
            },
            {
              "internalType": "string",
              "name": "description",
              "type": "string"
            }
          ],
          "internalType": "struct OFTFeeDetail[]",
          "name": "oftFeeDetails",
          "type": "tuple[]"
        },
        {
          "components": [
            {
              "internalType": "uint256",
              "name": "amountSentLD",
              "type": "uint256"
            },
            {
              "internalType": "uint256",
              "name": "amountReceivedLD",
              "type": "uint256"
            }
          ],
          "internalType": "struct OFTReceipt",
          "name": "oftReceipt",
          "type": "tuple"
        }
      ],
      "stateMutability": "view",
      "type": "function"
    },
    {
      "inputs": [
        {
          "components": [
            {
              "internalType": "uint32",
              "name": "dstEid",
              "type": "uint32"
            },
            {
              "internalType": "bytes32",
              "name": "to",
              "type": "bytes32"
            },
            {
              "internalType": "uint256",
              "name": "amountLD",
              "type": "uint256"
            },
            {
              "internalType": "uint256",
              "name": "minAmountLD",
              "type": "uint256"
            },
            {
              "internalType": "bytes",
              "name": "extraOptions",
              "type": "bytes"
            },
            {
              "internalType": "bytes",
              "name": "composeMsg",
              "type": "bytes"
            },
            {
              "internalType": "bytes",
              "name": "oftCmd",
              "type": "bytes"
            }
          ],
          "internalType": "struct SendParam",
          "name": "_sendParam",
          "type": "tuple"
        },
        {
          "internalType": "bool",
          "name": "_payInLzToken",
          "type": "bool"
        }
      ],
      "name": "quoteRelay",
      "outputs": [
        {
          "components": [
            {
              "internalType": "uint256",
              "name": "nativeFee",
              "type": "uint256"
            },
            {
              "internalType": "uint256",
              "name": "lzTokenFee",
              "type": "uint256"
            }
          ],
          "internalType": "struct MessagingFee",
          "name": "msgFee",
          "type": "tuple"
        }
      ],
      "stateMutability": "view",
      "type": "function"
    },
    {
      "inputs": [
        {
          "components": [
            {
              "internalType": "uint32",
              "name": "dstEid",
              "type": "uint32"
            },
            {
              "internalType": "bytes32",
              "name": "to",
              "type": "bytes32"
            },
            {
              "internalType": "uint256",
              "name": "amountLD",
              "type": "uint256"
            },
            {
              "internalType": "uint256",
              "name": "minAmountLD",
              "type": "uint256"
            },
            {
              "internalType": "bytes",
              "name": "extraOptions",
              "type": "bytes"
            },
            {
              "internalType": "bytes",
              "name": "composeMsg",
              "type": "bytes"
            },
            {
              "internalType": "bytes",
              "name": "oftCmd",
              "type": "bytes"
            }
          ],
          "internalType": "struct SendParam",
          "name": "_sendParam",
          "type": "tuple"
        },
        {
          "internalType": "bool",
          "name": "_payInLzToken",
          "type": "bool"
        }
      ],
      "name": "quoteSend",
      "outputs": [
        {
          "components": [
            {
              "internalType": "uint256",
              "name": "nativeFee",
              "type": "uint256"
            },
            {
              "internalType": "uint256",
              "name": "lzTokenFee",
              "type": "uint256"
            }
          ],
          "internalType": "struct MessagingFee",
          "name": "msgFee",
          "type": "tuple"
        }
      ],
      "stateMutability": "view",
      "type": "function"
    },
    {
      "inputs": [
        {
          "components": [
            {
              "internalType": "uint32",
              "name": "dstEid",
              "type": "uint32"
            },
            {
              "internalType": "bytes32",
              "name": "to",
              "type": "bytes32"
            },
            {
              "internalType": "uint256",
              "name": "amountLD",
              "type": "uint256"
            },
            {
              "internalType": "uint256",
              "name": "minAmountLD",
              "type": "uint256"
            },
            {
              "internalType": "bytes",
              "name": "extraOptions",
              "type": "bytes"
            },
            {
              "internalType": "bytes",
              "name": "composeMsg",
              "type": "bytes"
            },
            {
              "internalType": "bytes",
              "name": "oftCmd",
              "type": "bytes"
            }
          ],
          "internalType": "struct SendParam",
          "name": "_sendParam",
          "type": "tuple"
        },
        {
          "components": [
            {
              "internalType": "uint256",
              "name": "nativeFee",
              "type": "uint256"
            },
            {
              "internalType": "uint256",
              "name": "lzTokenFee",
              "type": "uint256"
            }
          ],
          "internalType": "struct MessagingFee",
          "name": "_fee",
          "type": "tuple"
        },
        {
          "internalType": "address",
          "name": "_refundAddress",
          "type": "address"
        }
      ],
      "name": "relay",
      "outputs": [
        {
          "components": [
            {
              "internalType": "bytes32",
              "name": "guid",
              "type": "bytes32"
            },
            {
              "internalType": "uint64",
              "name": "nonce",
              "type": "uint64"
            },
            {
              "components": [
                {
                  "internalType": "uint256",
                  "name": "nativeFee",
                  "type": "uint256"
                },
                {
                  "internalType": "uint256",
                  "name": "lzTokenFee",
                  "type": "uint256"
                }
              ],
              "internalType": "struct MessagingFee",
              "name": "fee",
              "type": "tuple"
            }
          ],
          "internalType": "struct MessagingReceipt",
          "name": "msgReceipt",
          "type": "tuple"
        },
        {
          "components": [
            {
              "internalType": "uint256",
              "name": "amountSentLD",
              "type": "uint256"
            },
            {
              "internalType": "uint256",
              "name": "amountReceivedLD",
              "type": "uint256"
            }
          ],
          "internalType": "struct OFTReceipt",
          "name": "oftReceipt",
          "type": "tuple"
        }
      ],
      "stateMutability": "payable",
      "type": "function"
    },
    {
      "inputs": [],
      "name": "renounceOwnership",
      "outputs": [],
      "stateMutability": "nonpayable",
      "type": "function"
    },
    {
      "inputs": [
        {
          "components": [
            {
              "internalType": "uint32",
              "name": "dstEid",
              "type": "uint32"
            },
            {
              "internalType": "bytes32",
              "name": "to",
              "type": "bytes32"
            },
            {
              "internalType": "uint256",
              "name": "amountLD",
              "type": "uint256"
            },
            {
              "internalType": "uint256",
              "name": "minAmountLD",
              "type": "uint256"
            },
            {
              "internalType": "bytes",
              "name": "extraOptions",
              "type": "bytes"
            },
            {
              "internalType": "bytes",
              "name": "composeMsg",
              "type": "bytes"
            },
            {
              "internalType": "bytes",
              "name": "oftCmd",
              "type": "bytes"
            }
          ],
          "internalType": "struct SendParam",
          "name": "_sendParam",
          "type": "tuple"
        },
        {
          "components": [
            {
              "internalType": "uint256",
              "name": "nativeFee",
              "type": "uint256"
            },
            {
              "internalType": "uint256",
              "name": "lzTokenFee",
              "type": "uint256"
            }
          ],
          "internalType": "struct MessagingFee",
          "name": "_fee",
          "type": "tuple"
        },
        {
          "internalType": "address",
          "name": "_refundAddress",
          "type": "address"
        }
      ],
      "name": "send",
      "outputs": [
        {
          "components": [
            {
              "internalType": "bytes32",
              "name": "guid",
              "type": "bytes32"
            },
            {
              "internalType": "uint64",
              "name": "nonce",
              "type": "uint64"
            },
            {
              "components": [
                {
                  "internalType": "uint256",
                  "name": "nativeFee",
                  "type": "uint256"
                },
                {
                  "internalType": "uint256",
                  "name": "lzTokenFee",
                  "type": "uint256"
                }
              ],
              "internalType": "struct MessagingFee",
              "name": "fee",
              "type": "tuple"
            }
          ],
          "internalType": "struct MessagingReceipt",
          "name": "msgReceipt",
          "type": "tuple"
        },
        {
          "components": [
            {
              "internalType": "uint256",
              "name": "amountSentLD",
              "type": "uint256"
            },
            {
              "internalType": "uint256",
              "name": "amountReceivedLD",
              "type": "uint256"
            }
          ],
          "internalType": "struct OFTReceipt",
          "name": "oftReceipt",
          "type": "tuple"
        }
      ],
      "stateMutability": "payable",
      "type": "function"
    },
    {
      "inputs": [
        {
          "internalType": "uint32[]",
          "name": "_srcEids",
          "type": "uint32[]"
        },
        {
          "internalType": "bool[]",
          "name": "_orderedNonces",
          "type": "bool[]"
        }
      ],
      "name": "setBatchOrderedNonce",
      "outputs": [],
      "stateMutability": "nonpayable",
      "type": "function"
    },
    {
      "inputs": [
        {
          "internalType": "address",
          "name": "_delegate",
          "type": "address"
        }
      ],
      "name": "setDelegate",
      "outputs": [],
      "stateMutability": "nonpayable",
      "type": "function"
    },
    {
      "inputs": [
        {
          "components": [
            {
              "internalType": "uint32",
              "name": "eid",
              "type": "uint32"
            },
            {
              "internalType": "uint16",
              "name": "msgType",
              "type": "uint16"
            },
            {
              "internalType": "bytes",
              "name": "options",
              "type": "bytes"
            }
          ],
          "internalType": "struct EnforcedOptionParam[]",
          "name": "_enforcedOptions",
          "type": "tuple[]"
        }
      ],
      "name": "setEnforcedOptions",
      "outputs": [],
      "stateMutability": "nonpayable",
      "type": "function"
    },
    {
      "inputs": [
        {
          "internalType": "address",
          "name": "_msgInspector",
          "type": "address"
        }
      ],
      "name": "setMsgInspector",
      "outputs": [],
      "stateMutability": "nonpayable",
      "type": "function"
    },
    {
      "inputs": [
        {
          "internalType": "address",
          "name": "_addr",
          "type": "address"
        }
      ],
      "name": "setOCCManager",
      "outputs": [],
      "stateMutability": "nonpayable",
      "type": "function"
    },
    {
      "inputs": [
        {
          "internalType": "uint32",
          "name": "_srcEid",
          "type": "uint32"
        },
        {
          "internalType": "bool",
          "name": "_orderedNonce",
          "type": "bool"
        }
      ],
      "name": "setOrderedNonce",
      "outputs": [],
      "stateMutability": "nonpayable",
      "type": "function"
    },
    {
      "inputs": [
        {
          "internalType": "uint32",
          "name": "_eid",
          "type": "uint32"
        },
        {
          "internalType": "bytes32",
          "name": "_peer",
          "type": "bytes32"
        }
      ],
      "name": "setPeer",
      "outputs": [],
      "stateMutability": "nonpayable",
      "type": "function"
    },
    {
      "inputs": [
        {
          "internalType": "uint32[]",
          "name": "_eids",
          "type": "uint32[]"
        },
        {
          "internalType": "bytes32[]",
          "name": "_peers",
          "type": "bytes32[]"
        }
      ],
      "name": "setPeers",
      "outputs": [],
      "stateMutability": "nonpayable",
      "type": "function"
    },
    {
      "inputs": [
        {
          "internalType": "address",
          "name": "_preCrime",
          "type": "address"
        }
      ],
      "name": "setPreCrime",
      "outputs": [],
      "stateMutability": "nonpayable",
      "type": "function"
    },
    {
      "inputs": [],
      "name": "sharedDecimals",
      "outputs": [
        {
          "internalType": "uint8",
          "name": "",
          "type": "uint8"
        }
      ],
      "stateMutability": "view",
      "type": "function"
    },
    {
      "inputs": [
        {
          "internalType": "uint32",
          "name": "_srcEid",
          "type": "uint32"
        },
        {
          "internalType": "bytes32",
          "name": "_sender",
          "type": "bytes32"
        },
        {
          "internalType": "uint64",
          "name": "_nonce",
          "type": "uint64"
        }
      ],
      "name": "skipInboundNonce",
      "outputs": [],
      "stateMutability": "nonpayable",
      "type": "function"
    },
    {
      "inputs": [],
      "name": "token",
      "outputs": [
        {
          "internalType": "address",
          "name": "",
          "type": "address"
        }
      ],
      "stateMutability": "view",
      "type": "function"
    },
    {
      "inputs": [
        {
          "internalType": "address",
          "name": "newOwner",
          "type": "address"
        }
      ],
      "name": "transferOwnership",
      "outputs": [],
      "stateMutability": "nonpayable",
      "type": "function"
    },
    {
      "inputs": [],
      "name": "unpause",
      "outputs": [],
      "stateMutability": "nonpayable",
      "type": "function"
    },
    {
      "inputs": [
        {
          "internalType": "address",
          "name": "newImplementation",
          "type": "address"
        },
        {
          "internalType": "bytes",
          "name": "data",
          "type": "bytes"
        }
      ],
      "name": "upgradeToAndCall",
      "outputs": [],
      "stateMutability": "payable",
      "type": "function"
    }
  ],
  "transactionHash": "0x5b66c66f98efc77216911d09b2270e3f4392072c14571df13664f298f5c3ed3f",
  "args": [],
  "numDeployments": 1,
  "solcInputHash": "3856e02462dc71243671ae2be87daa48",
  "bytecode": "0x60a06040523060805234801561001457600080fd5b506080516144c261003e6000396000818161213d0152818161216601526122ac01526144c26000f3fe6080604052600436106103355760003560e01c80638da5cb5b116101ab578063bd815db0116100f7578063d424388511610095578063e60046e41161006f578063e60046e4146109fb578063f2fde38b14610a1b578063fc0c546a14610a3b578063ff7bd03d14610a5a57600080fd5b8063d42438851461099a578063d4f571cb146109ba578063d7f2a9ba146109db57600080fd5b8063ca108db3116100d1578063ca108db314610927578063ca5eb5e114610947578063cd53dc8214610967578063d045a0dc1461098757600080fd5b8063bd815db0146108e1578063c0c53b8b146108f4578063c7c7f5b31461091457600080fd5b8063a42b529211610164578063b731ea0a1161013e578063b731ea0a14610854578063b98bd07014610874578063bb0b6a5314610894578063bc70b354146108c157600080fd5b8063a42b5292146107c1578063ad3cb1cc146107e1578063b590745b1461081257600080fd5b80638da5cb5b146106e957806395aa058c14610726578063963efcaa146107575780639c41121a1461076d5780639f4228bd1461078d5780639f68b964146107ad57600080fd5b806352ae2879116102855780636fc1b31e116102235780637d25a05e116101fd5780637d25a05e1461066057806382413eac146106985780638456cb59146106b8578063857749b0146106cd57600080fd5b80636fc1b31e1461060b5780637112f86f1461062b578063715018a61461064b57600080fd5b80635a0dfe4d1161025f5780635a0dfe4d1461055f5780635c975abb146105a65780635e280f11146105cb5780636cb04f99146105eb57600080fd5b806352ae2879146104fc57806352d1902d1461050f5780635535d4611461053257600080fd5b80631f5e1334116102f25780633b0c0c92116102cc5780633b0c0c92146104865780633b6f743b146104a75780633f4ba83a146104d45780634f1ef286146104e957600080fd5b80631f5e1334146104315780633400288b146104465780633772df581461046657600080fd5b80630d35b4151461033a578063111ecdad1461037257806313137d65146103aa578063134d4f25146103bf578063156a0d0f146103e757806317442b701461040f575b600080fd5b34801561034657600080fd5b5061035a610355366004613186565b610a7a565b6040516103699392919061320a565b60405180910390f35b34801561037e57600080fd5b5060ff54610392906001600160a01b031681565b6040516001600160a01b039091168152602001610369565b6103bd6103b8366004613311565b610b46565b005b3480156103cb57600080fd5b506103d4600281565b60405161ffff9091168152602001610369565b3480156103f357600080fd5b5060408051635558df2760e01b81526001602082015201610369565b34801561041b57600080fd5b5060408051600181526002602082015201610369565b34801561043d57600080fd5b506103d4600181565b34801561045257600080fd5b506103bd6104613660046133c9565b610be8565b34801561047257600080fd5b506103bd610481366004613437565b610bfe565b6104996104943660046134a2565b610cc1565b60405161036992919061350f565b3480156104b357600080fd5b506104c76104c236600461356f565b610e48565b60405161036991906135c0565b3480156104e057600080fd5b506103bd610eb4565b6103bd6104f73660046136e4565b610ec6565b34801561050857600080fd5b5030610392565b34801561051b57600080fd5b50610524610ee1565b604051908152602001610369565b34801561053e57600080fd5b5061055261054d366004613745565b610efe565b6040516103699190613778565b34801561056b57600080fd5b5061059661057a3660046133c9565b63ffffffff919091166000908152600160205260409020541490565b6040519015158152602001610369565b3480156105b257600080fd5b5060008051602061446d8339815191525460ff16610596565b3480156105d757600080fd5b50600054610392906001600160a01b031681565b3480156105f757600080fd5b506104c761060636600461356f565b610fa3565b34801561061757600080fd5b506103bd61062636600461378b565b610fe4565b34801561063757600080fd5b506103bd6106463660046137bd565b611041565b34801561065757600080fd5b506103bd6110c4565b34801561066c57600080fd5b5061068061067b3660046133c9565b6110d6565b6040516001600160401b039091168152602001610369565b3480156106a457600080fd5b506105966106b33660046137f2565b61113a565b3480156106c457600080fd5b506103bd61114f565b3480156106d957600080fd5b5060405160128152602001610369565b3480156106f557600080fd5b507f9016d09d72d40fdae2fd8ceac6b6234c7706214fd39c1cd1e609a0528c199300546001600160a01b0316610392565b34801561073257600080fd5b50610596610741366004613858565b6101026020526000908152604090205460ff1681565b34801561076357600080fd5b5061052460fe5481565b34801561077957600080fd5b506103bd610788366004613873565b61115f565b34801561079957600080fd5b506103bd6107a836600461378b565b6111d7565b3480156107b957600080fd5b506001610596565b3480156107cd57600080fd5b506103bd6107dc3660046138b9565b61122a565b3480156107ed57600080fd5b50610552604051806040016040528060058152602001640352e302e360dc1b81525081565b34801561081e57600080fd5b5061068061082d3660046133c9565b6101006020908152600092835260408084209091529082529020546001600160401b031681565b34801561086057600080fd5b5060ca54610392906001600160a01b031681565b34801561088057600080fd5b506103bd61088f3660046138e5565b61125b565b3480156108a057600080fd5b506105246108af366004613858565b60016020526000908152604090205481565b3480156108cd57600080fd5b506105526108dc366004613926565b611275565b6103bd6108ef3660046138e5565b61141d565b34801561090057600080fd5b506103bd61090f36600461397a565b6115b1565b6104996109223660046134a2565b6116c2565b34801561093357600080fd5b506103bd610942366004613437565b6117ee565b34801561095357600080fd5b506103bd61096236600461378b565b6118da565b34801561097357600080fd5b506103bd610982366004613873565b61193d565b6103bd610995366004613311565b61197d565b3480156109a657600080fd5b506103bd6109b536600461378b565b6119ac565b3480156109c657600080fd5b5061010154610392906001600160a01b031681565b3480156109e757600080fd5b506103bd6109f63660046139ba565b611a02565b348015610a0757600080fd5b506103bd610a163660046133c9565b611a42565b348015610a2757600080fd5b506103bd610a3636600461378b565b611b0b565b348015610a4757600080fd5b50610132546001600160a01b0316610392565b348015610a6657600080fd5b50610596610a753660046139fc565b611b49565b60408051808201909152600080825260208201526060610aad604051806040016040528060008152602001600081525090565b6040805180820182526000808252600019602080840182905284518381529081019094529195509182610b03565b604080518082019091526000815260606020820152815260200190600190039081610adb5790505b509350600080610b28604089013560608a0135610b2360208c018c613858565b611b7f565b60408051808201909152918252602082015296989597505050505050565b6000546001600160a01b03163314610b78576040516391ac5e4f60e01b81523360048201526024015b60405180910390fd5b60208701803590610b9290610b8d908a613858565b611bc3565b14610bd057610ba46020880188613858565b60405163309afaf360e21b815263ffffffff909116600482015260208801356024820152604401610b6f565b610bdf87878787878787611bff565b50505050505050565b610bf0611c78565b610bfa8282611cd3565b5050565b610c06611c78565b828114610c555760405162461bcd60e51b815260206004820152601e60248201527f4f417070436f72653a20496e76616c696420696e707574206c656e67746800006044820152606401610b6f565b60005b83811015610cba57610ca8858583818110610c7557610c75613a18565b9050602002016020810190610c8a9190613858565b848484818110610c9c57610c9c613a18565b90506020020135611cd3565b80610cb281613a44565b915050610c58565b5050505050565b610cc9613127565b6040805180820190915260008082526020820152610ce5611d28565b6101015433906001600160a01b03168114610d395760405162461bcd60e51b815260206004820152601460248201527327a32a1d1027b7363c9027a1a1a6b0b730b3b2b960611b6044820152606401610b6f565b60208601356001600160a01b038116610d645760405162461bcd60e51b8152600401610b6f90613a5d565b600080610d873360408b013560608c0135610d8260208e018e613858565b611d59565b9092509050600080610d9b60018c85611d7d565b9092509050610dc7610db060208d018d613858565b8383610dc1368f90038f018f613a87565b8d611f1d565b6040805180820190915285815260208082018690528251929a509098503391907f8f91bc2fd3e57fb86a4af5c97eaa3d1d6850e12b2f8a2db302e2b8be3ac08bfc90610e15908f018f613858565b6040805163ffffffff909216825260208201899052810187905260600160405180910390a3505050505050935093915050565b60408051808201909152600080825260208201526000610e7860408501356060860135610b236020880188613858565b91506000905080610e8b815b8785611d7d565b9092509050610ea8610ea06020880188613858565b838388612010565b93505050505b92915050565b610ebc611c78565b610ec46120d8565b565b610ece612132565b610ed7826121d7565b610bfa82826121df565b6000610eeb6122a1565b5060008051602061444d83398151915290565b60cb60209081526000928352604080842090915290825290208054610f2290613ab9565b80601f0160208091040260200160405190810160405280929190818152602001828054610f4e90613ab9565b8015610f9b5780601f10610f7057610100808354040283529160200191610f9b565b820191906000526020600020905b815481529060010190602001808311610f7e57829003601f168201915b505050505081565b60408051808201909152600080825260208201526000610fd360408501356060860135610b236020880188613858565b91506000905080610e8b6001610e84565b610fec611c78565b60ff80546001600160a01b0319166001600160a01b0383169081179091556040519081527ff0be4f1e87349231d80c36b33f9e8639658eeaf474014dee15a3e6a4d4414197906020015b60405180910390a150565b611049611c78565b600054604051636b85c48160e11b815230600482015263ffffffff85166024820152604481018490526001600160401b03831660648201526001600160a01b039091169063d70b890290608401600060405180830381600087803b1580156110b057600080fd5b505af1158015610bdf573d6000803e3d6000fd5b6110cc611c78565b610ec460006122ea565b63ffffffff82166000908152610102602052604081205460ff16156111325763ffffffff831660009081526101006020908152604080832085845290915290205461112b906001600160401b03166001613aed565b9050610eae565b506000610eae565b6001600160a01b03811630145b949350505050565b611157611c78565b610ec461235b565b611167611c78565b6000546040516340f8068360e01b81526001600160a01b03909116906340f806839061119f9030908890889088908890600401613b14565b600060405180830381600087803b1580156111b957600080fd5b505af11580156111cd573d6000803e3d6000fd5b5050505050505050565b6111df611c78565b806001600160a01b0381166112065760405162461bcd60e51b8152600401610b6f90613a5d565b5061010180546001600160a01b0319166001600160a01b0392909216919091179055565b611232611c78565b63ffffffff91909116600090815261010260205260409020805460ff1916911515919091179055565b611263611c78565b610bfa6112708284613b51565b6123a4565b63ffffffff8416600090815260cb6020908152604080832061ffff871684529091528120805460609291906112a990613ab9565b80601f01602080910402602001604051908101604052809291908181526020018280546112d590613ab9565b80156113225780601f106112f757610100808354040283529160200191611322565b820191906000526020600020905b81548152906001019060200180831161130557829003601f168201915b5050505050905080516000036113725783838080601f0160208091040260200160405190810160405280939291908181526020018383808284376000920191909152509294506111479350505050565b6000839003611382579050611147565b60028310611400576113c984848080601f0160208091040260200160405190810160405280939291908181526020018383808284376000920191909152506124b592505050565b806113d78460028188613c26565b6040516020016113e993929190613c50565b604051602081830303815290604052915050611147565b8383604051639a6d49cd60e01b8152600401610b6f929190613ca1565b60005b81811015611530573683838381811061143b5761143b613a18565b905060200281019061144d9190613cb5565b905061148061145f6020830183613858565b602083013563ffffffff919091166000908152600160205260409020541490565b61148a575061151e565b3063d045a0dc60c08301358360a08101356114a9610100830183613cd6565b6114ba610100890160e08a0161378b565b6114c86101208a018a613cd6565b6040518963ffffffff1660e01b81526004016114ea9796959493929190613d59565b6000604051808303818588803b15801561150357600080fd5b505af1158015611517573d6000803e3d6000fd5b5050505050505b8061152881613a44565b915050611420565b50336001600160a01b0316638e9e70996040518163ffffffff1660e01b8152600401600060405180830381865afa15801561156f573d6000803e3d6000fd5b505050506040513d6000823e601f3d908101601f191682016040526115979190810190613db0565b604051638351eea760e01b8152600401610b6f9190613778565b7ff0c57e16840df040f15088dc2f81fe391c3923bec73e23a9662efc9c229c6a008054600160401b810460ff1615906001600160401b03166000811580156115f65750825b90506000826001600160401b031660011480156116125750303b155b905081158015611620575080155b1561163e5760405163f92ee8a960e01b815260040160405180910390fd5b845467ffffffffffffffff19166001178555831561166857845460ff60401b1916600160401b1785555b6116738888886124e1565b83156111cd57845460ff60401b19168555604051600181527fc7f505b2f371ae2175ee4913f4499e1f2633a7b5936321eed1cdaeb6115181d29060200160405180910390a15050505050505050565b6116ca613127565b60408051808201909152600080825260208201526116e6611d28565b60208501356001600160a01b0381166117115760405162461bcd60e51b8152600401610b6f90613a5d565b60008061172f3360408a013560608b0135610d8260208d018d613858565b9092509050600080611742818b85611d7d565b909250905061176e61175760208c018c613858565b8383611768368e90038e018e613a87565b8c611f1d565b60408051808201909152858152602080820186905282519299509097503391907f85496b760a4b7f8d66384b9df21b381f5d1b1e79f229a47aaf4c232edc2fe59a906117bc908e018e613858565b6040805163ffffffff909216825260208201899052810187905260600160405180910390a35050505050935093915050565b6117f6611c78565b8281146118455760405162461bcd60e51b815260206004820152601960248201527f4f46543a20496e76616c696420696e707574206c656e677468000000000000006044820152606401610b6f565b60005b83811015610cba5782828281811061186257611862613a18565b90506020020160208101906118779190613e1d565b610102600087878581811061188e5761188e613a18565b90506020020160208101906118a39190613858565b63ffffffff1681526020810191909152604001600020805460ff1916911515919091179055806118d281613a44565b915050611848565b6118e2611c78565b60005460405163ca5eb5e160e01b81526001600160a01b0383811660048301529091169063ca5eb5e190602401600060405180830381600087803b15801561192957600080fd5b505af1158015610cba573d6000803e3d6000fd5b611945611c78565b600054604051632e80fbf360e01b81526001600160a01b0390911690632e80fbf39061119f9030908890889088908890600401613b14565b33301461199d5760405163029a949d60e31b815260040160405180910390fd5b610bdf87878787878787610bd0565b6119b4611c78565b60ca80546001600160a01b0319166001600160a01b0383169081179091556040519081527fd48d879cef83a1c0bdda516f27b13ddb1b3f8bbac1c9e1511bb2a659c242776090602001611036565b611a0a611c78565b6000546040516302a56c1b60e41b81526001600160a01b0390911690632a56c1b09061119f9030908890889088908890600401613e3a565b611a4a611c78565b6000546040516305b17bb760e41b815230600482015263ffffffff84166024820152604481018390526001600160a01b0390911690635b17bb7090606401602060405180830381865afa158015611aa5573d6000803e3d6000fd5b505050506040513d601f19601f82011682018060405250810190611ac99190613e70565b63ffffffff9290921660009081526101006020908152604080832093835292905220805467ffffffffffffffff19166001600160401b03909216919091179055565b611b13611c78565b6001600160a01b038116611b3d57604051631e4fbdf760e01b815260006004820152602401610b6f565b611b46816122ea565b50565b6000602082018035906001908390611b619086613858565b63ffffffff1681526020810191909152604001600020541492915050565b600080611b8b85612572565b915081905083811015611bbb576040516371c4efed60e01b81526004810182905260248101859052604401610b6f565b935093915050565b63ffffffff811660009081526001602052604081205480610eae5760405163f6ff4fb760e01b815263ffffffff84166004820152602401610b6f565b611c07611d28565b611c31611c176020890189613858565b6020890135611c2c60608b0160408c01613e8d565b61258c565b6000611c3d868661268b565b61ffff1603611c5757611c52878787876126ad565b610bdf565b6001611c63868661268b565b61ffff1603610bdf57610bdf878787876127f1565b33611caa7f9016d09d72d40fdae2fd8ceac6b6234c7706214fd39c1cd1e609a0528c199300546001600160a01b031690565b6001600160a01b031614610ec45760405163118cdaa760e01b8152336004820152602401610b6f565b63ffffffff8216600081815260016020908152604091829020849055815192835282018390527f238399d427b947898edb290f5ff0f9109849b1c3ba196a42e35f00c50a54b98b910160405180910390a15050565b60008051602061446d8339815191525460ff1615610ec45760405163d93c066560e01b815260040160405180910390fd5b6000808415611d7457611d6e868686866128d4565b90925090505b94509492505050565b606080600061ffff8616611e01576000611de58660200135611d9e87612900565b611dab60a08a018a613cd6565b8080601f01602080910402602001604051908101604052809392919081815260200183838082843760009201919091525061291092505050565b909450905080611df6576001611df9565b60025b915050611e6d565b60001961ffff871601611e6d57611e668560200135611e1f86612900565b611e2c60a0890189613cd6565b8080601f01602080910402602001604051908101604052809392919081815260200183838082843760009201919091525061297f92505050565b9250600190505b611e8b611e7d6020870187613858565b826108dc6080890189613cd6565b60ff549092506001600160a01b031615611f145760ff5460405163043a78eb60e01b81526001600160a01b039091169063043a78eb90611ed19086908690600401613eaa565b602060405180830381865afa158015611eee573d6000803e3d6000fd5b505050506040513d601f19601f82011682018060405250810190611f129190613ecf565b505b50935093915050565b611f25613127565b6000611f3484600001516129b3565b602085015190915015611f4e57611f4e84602001516129db565b6000546040805160a0810190915263ffffffff891681526001600160a01b0390911690632637a45090839060208101611f868c611bc3565b81526020018a815260200189815260200160008960200151111515815250866040518463ffffffff1660e01b8152600401611fc2929190613eec565b60806040518083038185885af1158015611fe0573d6000803e3d6000fd5b50505050506040513d601f19601f820116820180604052508101906120059190613f95565b979650505050505050565b60408051808201909152600080825260208201526000546040805160a0810190915263ffffffff871681526001600160a01b039091169063ddc28c58906020810161205a89611bc3565b8152602001878152602001868152602001851515815250306040518363ffffffff1660e01b815260040161208f929190613eec565b6040805180830381865afa1580156120ab573d6000803e3d6000fd5b505050506040513d601f19601f820116820180604052508101906120cf9190613fdf565b95945050505050565b6120e0612a98565b60008051602061446d833981519152805460ff191681557f5db9ee0a495bf2e6ff9c91a7834c1ba4fdd244a5e8aa4e537bd38aeae4b073aa335b6040516001600160a01b039091168152602001611036565b306001600160a01b037f00000000000000000000000000000000000000000000000000000000000000001614806121b957507f00000000000000000000000000000000000000000000000000000000000000006001600160a01b03166121ad60008051602061444d833981519152546001600160a01b031690565b6001600160a01b031614155b15610ec45760405163703e46dd60e11b815260040160405180910390fd5b611b46611c78565b816001600160a01b03166352d1902d6040518163ffffffff1660e01b8152600401602060405180830381865afa925050508015612239575060408051601f3d908101601f1916820190925261223691810190613ffb565b60015b61226157604051634c9c8ce360e01b81526001600160a01b0383166004820152602401610b6f565b60008051602061444d833981519152811461229257604051632a87526960e21b815260048101829052602401610b6f565b61229c8383612ac8565b505050565b306001600160a01b037f00000000000000000000000000000000000000000000000000000000000000001614610ec45760405163703e46dd60e11b815260040160405180910390fd5b7f9016d09d72d40fdae2fd8ceac6b6234c7706214fd39c1cd1e609a0528c19930080546001600160a01b031981166001600160a01b03848116918217845560405192169182907f8be0079c531659141344cd1fd0a4f28419497f9722a3daafe3b4186f6b6457e090600090a3505050565b612363611d28565b60008051602061446d833981519152805460ff191660011781557f62e78cea01bee320cd4e420270b5ea74000d11b0c9f74754ebdbfc544b05a2583361211a565b60005b8151811015612485576123d68282815181106123c5576123c5613a18565b6020026020010151604001516124b5565b8181815181106123e8576123e8613a18565b60200260200101516040015160cb600084848151811061240a5761240a613a18565b60200260200101516000015163ffffffff1663ffffffff168152602001908152602001600020600084848151811061244457612444613a18565b60200260200101516020015161ffff1661ffff1681526020019081526020016000209081612472919061405a565b508061247d81613a44565b9150506123a7565b507fbe4864a8e820971c0247f5992e2da559595f7bf076a21cb5928d443d2a13b674816040516110369190614119565b600281015161ffff8116600314610bfa5781604051639a6d49cd60e01b8152600401610b6f9190613778565b6124e9612b1e565b61013280546001600160a01b0319166001600160a01b0385169081179091556040805163313ce56760e01b8152905161229c929163313ce5679160048083019260209291908290030181865afa158015612547573d6000803e3d6000fd5b505050506040513d601f19601f8201168201806040525081019061256b91906141a2565b8383612b67565b60fe5460009061258281846141c5565b610eae91906141e7565b63ffffffff83166000818152610100602090815260408083208684528252808320549383526101029091529020546001600160401b039091169060ff161561262f576125d9816001613aed565b6001600160401b0316826001600160401b03161461262f5760405162461bcd60e51b81526020600482015260136024820152724f4170703a20696e76616c6964206e6f6e636560681b6044820152606401610b6f565b806001600160401b0316826001600160401b031611156126855763ffffffff84166000908152610100602090815260408083208684529091529020805467ffffffffffffffff19166001600160401b0384161790555b50505050565b600061269a6002828486613c26565b6126a3916141fe565b60f01c9392505050565b60006126bf6126bc8484612bbc565b90565b905060006126eb826126d96126d48787612bdc565b612bec565b6126e660208a018a613858565b612bfc565b9050604283111561279257600061272861270b6060890160408a01613e8d565b61271860208a018a613858565b846127238989612c18565b612c63565b60008054604051633e5ac80960e11b81529293506001600160a01b031691637cb590129161275e9187918b91879060040161422e565b600060405180830381600087803b15801561277857600080fd5b505af115801561278c573d6000803e3d6000fd5b50505050505b6001600160a01b038216857fefed6d3500546b29533b128a29e3a94d70788727f0507505ac12eaf2e578fd9c6127cb60208a018a613858565b6040805163ffffffff9092168252602082018690520160405180910390a3505050505050565b60006128006126bc8484612bbc565b90506000612815826126d96126d48787612bdc565b9050604283111561289b57600061283561270b6060890160408a01613e8d565b6101015460405163e8ca608b60e01b81529192506001600160a01b03169063e8ca608b90612867908490600401613778565b600060405180830381600087803b15801561288157600080fd5b505af1158015612895573d6000803e3d6000fd5b50505050505b6001600160a01b038216857fdf5bac00e27dd31d7e2021c56c0aaf3231fb2f632025b8abbb36c1241dbc169c6127cb60208a018a613858565b6000806128e2858585611b7f565b610132549193509150611d74906001600160a01b0316873085612c95565b600060fe5482610eae91906141c5565b805160609015158061294b57604051600060208201526022810186905260428101859052606201604051602081830303815290604052612975565b60008585338660405160200161296595949392919061425f565b6040516020818303038152906040525b9150935093915050565b606060018484338560405160200161299b95949392919061425f565b60405160208183030381529060405290509392505050565b60008134146129d7576040516304fb820960e51b8152346004820152602401610b6f565b5090565b60008060009054906101000a90046001600160a01b03166001600160a01b031663e4fe1d946040518163ffffffff1660e01b8152600401602060405180830381865afa158015612a2f573d6000803e3d6000fd5b505050506040513d601f19601f82011682018060405250810190612a5391906142a4565b90506001600160a01b038116612a7c576040516329b99a9560e11b815260040160405180910390fd5b600054610bfa906001600160a01b038381169133911685612c95565b60008051602061446d8339815191525460ff16610ec457604051638dfc202b60e01b815260040160405180910390fd5b612ad182612cfc565b6040516001600160a01b038316907fbc7cd75a20ee27fd9adebab32041f755214dbc6bffa90cc0225b39da2e5c2d3b90600090a2805115612b165761229c8282612d61565b610bfa612dce565b7ff0c57e16840df040f15088dc2f81fe391c3923bec73e23a9662efc9c229c6a0054600160401b900460ff16610ec457604051631afcd79f60e31b815260040160405180910390fd5b612b6f612b1e565b612b798282612ded565b601260ff84161015612b9e576040516301e9714b60e41b815260040160405180910390fd5b612ba96012846142c1565b612bb490600a6143be565b60fe55505050565b6000612bcc602260028486613c26565b612bd5916143cd565b9392505050565b6000612bcc604260228486613c26565b600060fe5482610eae91906141e7565b6000612c088484612e18565b15612bd557611147848484612e44565b6060612c278260428186613c26565b8080601f016020809104026020016040519081016040528093929190818152602001838380828437600092019190915250929695505050505050565b606084848484604051602001612c7c94939291906143eb565b6040516020818303038152906040529050949350505050565b6040516001600160a01b0384811660248301528381166044830152606482018390526126859186918216906323b872dd906084015b604051602081830303815290604052915060e01b6020820180516001600160e01b038381831617835250505050612e67565b806001600160a01b03163b600003612d3257604051634c9c8ce360e01b81526001600160a01b0382166004820152602401610b6f565b60008051602061444d83398151915280546001600160a01b0319166001600160a01b0392909216919091179055565b6060600080846001600160a01b031684604051612d7e919061443a565b600060405180830381855af49150503d8060008114612db9576040519150601f19603f3d011682016040523d82523d6000602084013e612dbe565b606091505b50915091506120cf858383612eca565b3415610ec45760405163b398979f60e01b815260040160405180910390fd5b612df5612b1e565b612dff8282612f26565b612e07612fd0565b612e0f612fd8565b610bfa81612fe8565b60006001600160a01b0383161580612e2e575081155b15612e3b57506000610eae565b50600192915050565b61013254600090612e5f906001600160a01b03168585612ff9565b509092915050565b6000612e7c6001600160a01b0384168361302a565b90508051600014158015612ea1575080806020019051810190612e9f9190613ecf565b155b1561229c57604051635274afe760e01b81526001600160a01b0384166004820152602401610b6f565b606082612edf57612eda82613038565b612bd5565b8151158015612ef657506001600160a01b0384163b155b15612f1f57604051639996b31560e01b81526001600160a01b0385166004820152602401610b6f565b5080612bd5565b612f2e612b1e565b600080546001600160a01b0319166001600160a01b03848116919091179091558116612f6d57604051632d618d8160e21b815260040160405180910390fd5b60005460405163ca5eb5e160e01b81526001600160a01b0383811660048301529091169063ca5eb5e190602401600060405180830381600087803b158015612fb457600080fd5b505af1158015612fc8573d6000803e3d6000fd5b505050505050565b610ec4612b1e565b612fe0612b1e565b610ec4613061565b612ff0612b1e565b611b4681613082565b6040516001600160a01b0383811660248301526044820183905261229c91859182169063a9059cbb90606401612cca565b6060612bd58383600061308a565b8051156130485780518082602001fd5b604051630a12f52160e11b815260040160405180910390fd5b613069612b1e565b60008051602061446d833981519152805460ff19169055565b611b13612b1e565b6060814710156130af5760405163cd78605960e01b8152306004820152602401610b6f565b600080856001600160a01b031684866040516130cb919061443a565b60006040518083038185875af1925050503d8060008114613108576040519150601f19603f3d011682016040523d82523d6000602084013e61310d565b606091505b509150915061311d868383612eca565b9695505050505050565b60405180606001604052806000801916815260200160006001600160401b03168152602001613169604051806040016040528060008152602001600081525090565b905290565b600060e0828403121561318057600080fd5b50919050565b60006020828403121561319857600080fd5b81356001600160401b038111156131ae57600080fd5b6111478482850161316e565b60005b838110156131d55781810151838201526020016131bd565b50506000910152565b600081518084526131f68160208601602086016131ba565b601f01601f19169290920160200192915050565b8351815260208085015190820152600060a08201604060a08185015281865180845260c08601915060c08160051b8701019350602080890160005b838110156132845788870360bf19018552815180518852830151838801879052613271878901826131de565b9750509382019390820190600101613245565b50508751606088015250505060208501516080850152509050611147565b60006060828403121561318057600080fd5b60008083601f8401126132c657600080fd5b5081356001600160401b038111156132dd57600080fd5b6020830191508360208285010111156132f557600080fd5b9250929050565b6001600160a01b0381168114611b4657600080fd5b600080600080600080600060e0888a03121561332c57600080fd5b61333689896132a2565b96506060880135955060808801356001600160401b038082111561335957600080fd5b6133658b838c016132b4565b909750955060a08a0135915061337a826132fc565b90935060c0890135908082111561339057600080fd5b5061339d8a828b016132b4565b989b979a50959850939692959293505050565b803563ffffffff811681146133c457600080fd5b919050565b600080604083850312156133dc57600080fd5b6133e5836133b0565b946020939093013593505050565b60008083601f84011261340557600080fd5b5081356001600160401b0381111561341c57600080fd5b6020830191508360208260051b85010111156132f557600080fd5b6000806000806040858703121561344d57600080fd5b84356001600160401b038082111561346457600080fd5b613470888389016133f3565b9096509450602087013591508082111561348957600080fd5b50613496878288016133f3565b95989497509550505050565b600080600083850360808112156134b857600080fd5b84356001600160401b038111156134ce57600080fd5b6134da8782880161316e565b9450506040601f19820112156134ef57600080fd5b506020840191506060840135613504816132fc565b809150509250925092565b600060c082019050835182526001600160401b036020850151166020830152604084015161354a604084018280518252602090810151910152565b5082516080830152602083015160a0830152612bd5565b8015158114611b4657600080fd5b6000806040838503121561358257600080fd5b82356001600160401b0381111561359857600080fd5b6135a48582860161316e565b92505060208301356135b581613561565b809150509250929050565b815181526020808301519082015260408101610eae565b634e487b7160e01b600052604160045260246000fd5b604080519081016001600160401b038111828210171561360f5761360f6135d7565b60405290565b604051606081016001600160401b038111828210171561360f5761360f6135d7565b604051601f8201601f191681016001600160401b038111828210171561365f5761365f6135d7565b604052919050565b60006001600160401b03821115613680576136806135d7565b50601f01601f191660200190565b600082601f83011261369f57600080fd5b81356136b26136ad82613667565b613637565b8181528460208386010111156136c757600080fd5b816020850160208301376000918101602001919091529392505050565b600080604083850312156136f757600080fd5b8235613702816132fc565b915060208301356001600160401b0381111561371d57600080fd5b6137298582860161368e565b9150509250929050565b803561ffff811681146133c457600080fd5b6000806040838503121561375857600080fd5b613761836133b0565b915061376f60208401613733565b90509250929050565b602081526000612bd560208301846131de565b60006020828403121561379d57600080fd5b8135612bd5816132fc565b6001600160401b0381168114611b4657600080fd5b6000806000606084860312156137d257600080fd5b6137db846133b0565b9250602084013591506040840135613504816137a8565b60008060008060a0858703121561380857600080fd5b61381286866132a2565b935060608501356001600160401b0381111561382d57600080fd5b613839878288016132b4565b909450925050608085013561384d816132fc565b939692955090935050565b60006020828403121561386a57600080fd5b612bd5826133b0565b6000806000806080858703121561388957600080fd5b613892856133b0565b93506020850135925060408501356138a9816137a8565b9396929550929360600135925050565b600080604083850312156138cc57600080fd5b6138d5836133b0565b915060208301356135b581613561565b600080602083850312156138f857600080fd5b82356001600160401b0381111561390e57600080fd5b61391a858286016133f3565b90969095509350505050565b6000806000806060858703121561393c57600080fd5b613945856133b0565b935061395360208601613733565b925060408501356001600160401b0381111561396e57600080fd5b613496878288016132b4565b60008060006060848603121561398f57600080fd5b833561399a816132fc565b925060208401356139aa816132fc565b91506040840135613504816132fc565b60008060008060a085870312156139d057600080fd5b6139da86866132a2565b93506060850135925060808501356001600160401b0381111561396e57600080fd5b600060608284031215613a0e57600080fd5b612bd583836132a2565b634e487b7160e01b600052603260045260246000fd5b634e487b7160e01b600052601160045260246000fd5b600060018201613a5657613a56613a2e565b5060010190565b60208082526010908201526f4f46543a205a65726f4164647265737360801b604082015260600190565b600060408284031215613a9957600080fd5b613aa16135ed565b82358152602083013560208201528091505092915050565b600181811c90821680613acd57607f821691505b60208210810361318057634e487b7160e01b600052602260045260246000fd5b6001600160401b03818116838216019080821115613b0d57613b0d613a2e565b5092915050565b6001600160a01b0395909516855263ffffffff93909316602085015260408401919091526001600160401b03166060830152608082015260a00190565b60006001600160401b0380841115613b6b57613b6b6135d7565b8360051b6020613b7c818301613637565b868152918501918181019036841115613b9457600080fd5b865b84811015613c1a57803586811115613bae5760008081fd5b88016060368290031215613bc25760008081fd5b613bca613615565b613bd3826133b0565b8152613be0868301613733565b8682015260408083013589811115613bf85760008081fd5b613c043682860161368e565b9183019190915250845250918301918301613b96565b50979650505050505050565b60008085851115613c3657600080fd5b83861115613c4357600080fd5b5050820193919092039150565b60008451613c628184602089016131ba565b8201838582376000930192835250909392505050565b81835281816020850137506000828201602090810191909152601f909101601f19169091010190565b602081526000611147602083018486613c78565b6000823561013e19833603018112613ccc57600080fd5b9190910192915050565b6000808335601e19843603018112613ced57600080fd5b8301803591506001600160401b03821115613d0757600080fd5b6020019150368190038213156132f557600080fd5b63ffffffff613d2a826133b0565b168252602081013560208301526040810135613d45816137a8565b6001600160401b0381166040840152505050565b613d638189613d1c565b86606082015260e060808201526000613d8060e083018789613c78565b6001600160a01b03861660a084015282810360c0840152613da2818587613c78565b9a9950505050505050505050565b600060208284031215613dc257600080fd5b81516001600160401b03811115613dd857600080fd5b8201601f81018413613de957600080fd5b8051613df76136ad82613667565b818152856020838501011115613e0c57600080fd5b6120cf8260208301602086016131ba565b600060208284031215613e2f57600080fd5b8135612bd581613561565b6001600160a01b0386168152613e536020820186613d1c565b83608082015260c060a0820152600061200560c083018486613c78565b600060208284031215613e8257600080fd5b8151612bd5816137a8565b600060208284031215613e9f57600080fd5b8135612bd5816137a8565b604081526000613ebd60408301856131de565b82810360208401526120cf81856131de565b600060208284031215613ee157600080fd5b8151612bd581613561565b6040815263ffffffff8351166040820152602083015160608201526000604084015160a06080840152613f2260e08401826131de565b90506060850151603f198483030160a0850152613f3f82826131de565b60809690960151151560c08501525050506001600160a01b039190911660209091015290565b600060408284031215613f7757600080fd5b613f7f6135ed565b9050815181526020820151602082015292915050565b600060808284031215613fa757600080fd5b613faf613615565b825181526020830151613fc1816137a8565b6020820152613fd38460408501613f65565b60408201529392505050565b600060408284031215613ff157600080fd5b612bd58383613f65565b60006020828403121561400d57600080fd5b5051919050565b601f82111561229c57600081815260208120601f850160051c8101602086101561403b5750805b601f850160051c820191505b81811015612fc857828155600101614047565b81516001600160401b03811115614073576140736135d7565b614087816140818454613ab9565b84614014565b602080601f8311600181146140bc57600084156140a45750858301515b600019600386901b1c1916600185901b178555612fc8565b600085815260208120601f198616915b828110156140eb578886015182559484019460019091019084016140cc565b50858210156141095787850151600019600388901b60f8161c191681555b5050505050600190811b01905550565b60006020808301818452808551808352604092508286019150828160051b87010184880160005b8381101561419457888303603f190185528151805163ffffffff1684528781015161ffff16888501528601516060878501819052614180818601836131de565b968901969450505090860190600101614140565b509098975050505050505050565b6000602082840312156141b457600080fd5b815160ff81168114612bd557600080fd5b6000826141e257634e487b7160e01b600052601260045260246000fd5b500490565b8082028115828204841417610eae57610eae613a2e565b6001600160f01b031981358181169160028510156142265780818660020360031b1b83161692505b505092915050565b60018060a01b038516815283602082015261ffff8316604082015260806060820152600061311d60808301846131de565b61ffff60f01b8660f01b168152846002820152836022820152826042820152600082516142938160628501602087016131ba565b919091016062019695505050505050565b6000602082840312156142b657600080fd5b8151612bd5816132fc565b60ff8281168282160390811115610eae57610eae613a2e565b600181815b808511156143155781600019048211156142fb576142fb613a2e565b8085161561430857918102915b93841c93908002906142df565b509250929050565b60008261432c57506001610eae565b8161433957506000610eae565b816001811461434f576002811461435957614375565b6001915050610eae565b60ff84111561436a5761436a613a2e565b50506001821b610eae565b5060208310610133831016604e8410600b8410161715614398575081810a610eae565b6143a283836142da565b80600019048211156143b6576143b6613a2e565b029392505050565b6000612bd560ff84168361431d565b80356020831015610eae57600019602084900360031b1b1692915050565b6001600160401b0360c01b8560c01b16815263ffffffff60e01b8460e01b16600882015282600c8201526000825161442a81602c8501602087016131ba565b91909101602c0195945050505050565b60008251613ccc8184602087016131ba56fe360894a13ba1a3210667c828492db98dca3e2076cc3735a920a3ca505d382bbccd5ed15c6e187e77e9aee88184c21f4f2182ab5827cb3b7e07fbedcd63f03300a2646970667358221220344213cc451d9d480b7b502faf8220ce9f2c6f57d8da027544d5f2339992190164736f6c63430008140033",
  "devdoc": {
    "author": "Orderly Network",
    "details": "OrderAdapter is an adapter contract to connect the OrderToken contract with the LayerZero endpoint throught OFT protocol. It is only deployed on the network where the OrderToken contract is deployed.",
    "errors": {
      "AddressEmptyCode(address)": [
        {
          "details": "There's no code at `target` (it is not a contract)."
        }
      ],
      "AddressInsufficientBalance(address)": [
        {
          "details": "The ETH balance of the account is not enough to perform the operation."
        }
      ],
      "ERC1967InvalidImplementation(address)": [
        {
          "details": "The `implementation` of the proxy is invalid."
        }
      ],
      "ERC1967NonPayable()": [
        {
          "details": "An upgrade function sees `msg.value > 0` that may be lost."
        }
      ],
      "EnforcedPause()": [
        {
          "details": "The operation failed because the contract is paused."
        }
      ],
      "ExpectedPause()": [
        {
          "details": "The operation failed because the contract is not paused."
        }
      ],
      "FailedInnerCall()": [
        {
          "details": "A call to an address target failed. The target may have reverted."
        }
      ],
      "InvalidInitialization()": [
        {
          "details": "The contract is already initialized."
        }
      ],
      "NotInitializing()": [
        {
          "details": "The contract is not initializing."
        }
      ],
      "OwnableInvalidOwner(address)": [
        {
          "details": "The owner is not a valid owner account. (eg. `address(0)`)"
        }
      ],
      "OwnableUnauthorizedAccount(address)": [
        {
          "details": "The caller account is not authorized to perform an operation."
        }
      ],
      "SafeERC20FailedOperation(address)": [
        {
          "details": "An operation with an ERC20 token failed."
        }
      ],
      "UUPSUnauthorizedCallContext()": [
        {
          "details": "The call is from an unauthorized context."
        }
      ],
      "UUPSUnsupportedProxiableUUID(bytes32)": [
        {
          "details": "The storage `slot` is unsupported as a UUID."
        }
      ]
    },
    "events": {
      "Initialized(uint64)": {
        "details": "Triggered when the contract has been initialized or reinitialized."
      },
      "Paused(address)": {
        "details": "Emitted when the pause is triggered by `account`."
      },
      "PreCrimeSet(address)": {
        "details": "Emitted when the preCrime contract address is set.",
        "params": {
          "preCrimeAddress": "The address of the preCrime contract."
        }
      },
      "Unpaused(address)": {
        "details": "Emitted when the pause is lifted by `account`."
      },
      "Upgraded(address)": {
        "details": "Emitted when the implementation is upgraded."
      }
    },
    "kind": "dev",
    "methods": {
      "allowInitializePath((uint32,bytes32,uint64))": {
        "details": "This indicates to the endpoint that the OApp has enabled msgs for this particular path to be received.This defaults to assuming if a peer has been set, its initialized. Can be overridden by the OApp if there is other logic to determine this.",
        "params": {
          "origin": "The origin information containing the source endpoint and sender address."
        },
        "returns": {
          "_0": "Whether the path has been initialized."
        }
      },
      "approvalRequired()": {
        "details": "In the case of default OFTAdapter, approval is required.In non-default OFTAdapter contracts with something like mint and burn privileges, it would NOT need approval.",
        "returns": {
          "_0": "requiresApproval Needs approval of the underlying token implementation."
        }
      },
      "burnInboundNonce(uint32,bytes32,uint64,bytes32)": {
        "details": "Burn the inbound nonce to mark a message as unexecutable and un-verifiable. The nonce can never be re-verified or executed.",
        "params": {
          "_nonce": "The nonce of the message to burn",
          "_payloadHash": "The hash of the message to burn",
          "_sender": "The address of the remote sender (oft or adapter)",
          "_srcEid": "The eid of the source chain"
        }
      },
      "clearInboundNonce((uint32,bytes32,uint64),bytes32,bytes)": {
        "details": "Clear the inbound nonce to ignore a messagethis is a PULL mode versus the PUSH mode of lzReceive",
        "params": {
          "_guid": "the guid of the message",
          "_message": "the message data",
          "_origin": "the origin of the message  - srcEid: The source chain endpoint ID.  - sender: The sender address from the src chain.  - nonce: The nonce of the LayerZero message."
        }
      },
      "combineOptions(uint32,uint16,bytes)": {
        "details": "If there is an enforced lzReceive option: - {gasLimit: 200k, msg.value: 1 ether} AND a caller supplies a lzReceive option: {gasLimit: 100k, msg.value: 0.5 ether} - The resulting options will be {gasLimit: 300k, msg.value: 1.5 ether} when the message is executed on the remote lzReceive() function.This presence of duplicated options is handled off-chain in the verifier/executor.",
        "params": {
          "_eid": "The endpoint ID.",
          "_extraOptions": "Additional options passed by the caller.",
          "_msgType": "The OAPP message type."
        },
        "returns": {
          "_0": "options The combination of caller specified options AND enforced options."
        }
      },
      "initialize(address,address,address)": {
        "details": "Initialize the OrderAdapter contract and set the ordered nonce flag",
        "params": {
          "_delegate": "The delegate address of this OApp on the endpoint",
          "_lzEndpoint": "The LayerZero endpoint address"
        }
      },
      "isComposeMsgSender((uint32,bytes32,uint64),bytes,address)": {
        "details": "_origin The origin information containing the source endpoint and sender address.  - srcEid: The source chain endpoint ID.  - sender: The sender address on the src chain.  - nonce: The nonce of the message._message The lzReceive payload.Applications can optionally choose to implement separate composeMsg senders that are NOT the bridging layer.The default sender IS the OAppReceiver implementer.",
        "params": {
          "_sender": "The sender address."
        },
        "returns": {
          "_0": "isSender Is a valid sender."
        }
      },
      "isPeer(uint32,bytes32)": {
        "details": "Check if the peer is considered 'trusted' by the OApp.Enables OAppPreCrimeSimulator to check whether a potential Inbound Packet is from a trusted source.",
        "params": {
          "_eid": "The endpoint ID to check.",
          "_peer": "The peer to check."
        },
        "returns": {
          "_0": "Whether the peer passed is considered 'trusted' by the OApp."
        }
      },
      "lzReceive((uint32,bytes32,uint64),bytes32,bytes,address,bytes)": {
        "details": "Entry point for receiving messages or packets from the endpoint.Entry point for receiving msg/packet from the LayerZero endpoint.",
        "params": {
          "_executor": "The address of the executor for the received message.",
          "_extraData": "Additional arbitrary data provided by the corresponding executor.",
          "_guid": "The unique identifier for the received LayerZero message.",
          "_message": "The payload of the received message.",
          "_origin": "The origin information containing the source endpoint and sender address.  - srcEid: The source chain endpoint ID.  - sender: The sender address on the src chain.  - nonce: The nonce of the message."
        }
      },
      "lzReceiveAndRevert(((uint32,bytes32,uint64),uint32,address,bytes32,uint256,address,bytes,bytes)[])": {
        "details": "Interface for pre-crime simulations. Always reverts at the end with the simulation results.WARNING: MUST revert at the end with the simulation results.Gives the preCrime implementation the ability to mock sending packets to the lzReceive function, WITHOUT actually executing them.",
        "params": {
          "_packets": "An array of InboundPacket objects representing received packets to be delivered."
        }
      },
      "lzReceiveSimulate((uint32,bytes32,uint64),bytes32,bytes,address,bytes)": {
        "details": "Is effectively an internal function because msg.sender must be address(this). Allows resetting the call stack for 'internal' calls.",
        "params": {
          "_executor": "The executor address for the packet.",
          "_extraData": "Additional data for the packet.",
          "_guid": "The unique identifier of the packet.",
          "_message": "The message payload of the packet.",
          "_origin": "The origin information containing the source endpoint and sender address.  - srcEid: The source chain endpoint ID.  - sender: The sender address on the src chain.  - nonce: The nonce of the message."
        }
      },
      "nextNonce(uint32,bytes32)": {
        "details": "Get the next nonce for the sender",
        "params": {
          "_sender": "The address of the remote sender (oft or adapter)",
          "_srcEid": "The eid of the source chain"
        }
      },
      "nilifyInboundNonce(uint32,bytes32,uint64,bytes32)": {
        "details": "Nilify the inbound nonce to mark a message as verified, but disallows execution until it is re-verified.",
        "params": {
          "_nonce": "The nonce of the message to burn",
          "_payloadHash": "The hash of the message to burn",
          "_sender": "The address of the remote sender (oft or adapter)",
          "_srcEid": "The eid of the source chain"
        }
      },
      "oApp()": {
        "details": "Retrieves the address of the OApp contract.The simulator contract is the base contract for the OApp by default.If the simulator is a separate contract, override this function.",
        "returns": {
          "_0": "The address of the OApp contract."
        }
      },
      "oAppVersion()": {
        "returns": {
          "receiverVersion": "The version of the OAppReceiver.sol implementation.",
          "senderVersion": "The version of the OAppSender.sol implementation."
        }
      },
      "oftVersion()": {
        "details": "interfaceId: This specific interface ID is '0x02e49c2c'.version: Indicates a cross-chain compatible msg encoding with other OFTs.If a new feature is added to the OFT cross-chain msg encoding, the version will be incremented. ie. localOFT version(x,1) CAN send messages to remoteOFT version(x,1)",
        "returns": {
          "interfaceId": "The interface ID.",
          "version": "The version."
        }
      },
      "owner()": {
        "details": "Returns the address of the current owner."
      },
      "paused()": {
        "details": "Returns true if the contract is paused, and false otherwise."
      },
      "proxiableUUID()": {
        "details": "Implementation of the ERC1822 {proxiableUUID} function. This returns the storage slot used by the implementation. It is used to validate the implementation's compatibility when performing an upgrade. IMPORTANT: A proxy pointing at a proxiable contract should not be considered proxiable itself, because this risks bricking a proxy that upgrades to it, by delegating to itself until out of gas. Thus it is critical that this function revert if invoked through a proxy. This is guaranteed by the `notDelegated` modifier."
      },
      "pullMaxReceivedNonce(uint32,bytes32)": {
        "details": "Pull the max received nonce from the endpoint",
        "params": {
          "_sender": "The address of the remote sender (oft or adapter)",
          "_srcEid": "The eid of the source chain"
        }
      },
      "quoteOFT((uint32,bytes32,uint256,uint256,bytes,bytes,bytes))": {
        "params": {
          "_sendParam": "The parameters for the send operation."
        },
        "returns": {
          "oftFeeDetails": "The details of OFT fees.",
          "oftLimit": "The OFT limit information.",
          "oftReceipt": "The OFT receipt information."
        }
      },
      "quoteRelay((uint32,bytes32,uint256,uint256,bytes,bytes,bytes),bool)": {
        "details": "MessagingFee: LayerZero msg fee  - nativeFee: The native fee.  - lzTokenFee: The lzToken fee.",
        "params": {
          "_payInLzToken": "Flag indicating whether the caller is paying in the LZ token.",
          "_sendParam": "The parameters for the relay() operation."
        },
        "returns": {
          "msgFee": "The calculated LayerZero messaging fee from the relay() operation."
        }
      },
      "quoteSend((uint32,bytes32,uint256,uint256,bytes,bytes,bytes),bool)": {
        "details": "MessagingFee: LayerZero msg fee  - nativeFee: The native fee.  - lzTokenFee: The lzToken fee.",
        "params": {
          "_payInLzToken": "Flag indicating whether the caller is paying in the LZ token.",
          "_sendParam": "The parameters for the send() operation."
        },
        "returns": {
          "msgFee": "The calculated LayerZero messaging fee from the send() operation."
        }
      },
      "relay((uint32,bytes32,uint256,uint256,bytes,bytes,bytes),(uint256,uint256),address)": {
        "details": "Executes the relay operation.MessagingReceipt: LayerZero msg receipt  - guid: The unique identifier for the sent message.  - nonce: The nonce of the sent message.  - fee: The LayerZero fee incurred for the message.",
        "params": {
          "_fee": "The calculated fee for the relay() operation.      - nativeFee: The native fee.      - lzTokenFee: The lzToken fee.",
          "_refundAddress": "The address to receive any excess funds.",
          "_sendParam": "The parameters for the relay operation. USE THE SAME PARAMS AS send() but encoded with a different msgType."
        },
        "returns": {
          "msgReceipt": "The receipt for the send operation.",
          "oftReceipt": "The OFT receipt information."
        }
      },
      "renounceOwnership()": {
        "details": "Leaves the contract without owner. It will not be possible to call `onlyOwner` functions. Can only be called by the current owner. NOTE: Renouncing ownership will leave the contract without an owner, thereby disabling any functionality that is only available to the owner."
      },
      "send((uint32,bytes32,uint256,uint256,bytes,bytes,bytes),(uint256,uint256),address)": {
        "details": "Executes the send operation.MessagingReceipt: LayerZero msg receipt  - guid: The unique identifier for the sent message.  - nonce: The nonce of the sent message.  - fee: The LayerZero fee incurred for the message.",
        "params": {
          "_fee": "The calculated fee for the send() operation.      - nativeFee: The native fee.      - lzTokenFee: The lzToken fee.",
          "_refundAddress": "The address to receive any excess funds.",
          "_sendParam": "The parameters for the send operation."
        },
        "returns": {
          "msgReceipt": "The receipt for the send operation.",
          "oftReceipt": "The OFT receipt information."
        }
      },
      "setDelegate(address)": {
        "details": "Only the owner/admin of the OApp can call this function.Provides the ability for a delegate to set configs, on behalf of the OApp, directly on the Endpoint contract.",
        "params": {
          "_delegate": "The address of the delegate to be set."
        }
      },
      "setEnforcedOptions((uint32,uint16,bytes)[])": {
        "details": "Sets the enforced options for specific endpoint and message type combinations.Only the owner/admin of the OApp can call this function.Provides a way for the OApp to enforce things like paying for PreCrime, AND/OR minimum dst lzReceive gas amounts etc.These enforced options can vary as the potential options/execution on the remote may differ as per the msgType. eg. Amount of lzReceive() gas necessary to deliver a lzCompose() message adds overhead you dont want to pay if you are only making a standard LayerZero message ie. lzReceive() WITHOUT sendCompose().",
        "params": {
          "_enforcedOptions": "An array of EnforcedOptionParam structures specifying enforced options."
        }
      },
      "setMsgInspector(address)": {
        "details": "Sets the message inspector address for the OFT.This is an optional contract that can be used to inspect both 'message' and 'options'.Set it to address(0) to disable it, or set it to a contract address to enable it.",
        "params": {
          "_msgInspector": "The address of the message inspector."
        }
      },
      "setOrderedNonce(uint32,bool)": {
        "details": "Set the flag to enforce ordered nonce or not",
        "params": {
          "_orderedNonce": "the flag to enforce ordered nonce or not"
        }
      },
      "setPeer(uint32,bytes32)": {
        "details": "Only the owner/admin of the OApp can call this function.Indicates that the peer is trusted to send LayerZero messages to this OApp.Set this to bytes32(0) to remove the peer address.Peer is a bytes32 to accommodate non-evm chains.",
        "params": {
          "_eid": "The endpoint ID.",
          "_peer": "The address of the peer to be associated with the corresponding endpoint."
        }
      },
      "setPreCrime(address)": {
        "details": "Sets the preCrime contract address.",
        "params": {
          "_preCrime": "The address of the preCrime contract."
        }
      },
      "sharedDecimals()": {
        "details": "Retrieves the shared decimals of the OFT.Sets an implicit cap on the amount of tokens, over uint64.max() will need some sort of outbound cap / totalSupply cap Lowest common decimal denominator between chains. Defaults to 6 decimal places to provide up to 18,446,744,073,709.551615 units (max uint64). For tokens exceeding this totalSupply(), they will need to override the sharedDecimals function with something smaller. ie. 4 sharedDecimals would be 1,844,674,407,370,955.1615",
        "returns": {
          "_0": "The shared decimals of the OFT."
        }
      },
      "skipInboundNonce(uint32,bytes32,uint64)": {
        "details": "Skip a nonce which is not verified by lz yet, that is:      inboundPayloadHash[_receiver][_srcEid][_sender][_nonce] == EMPTY_PAYLOAD_HASH &&      inboundPayload[_receiver][_srcEid][_sender][_nonce-1] != EMPTY_PAYLOAD      ==> lazyInboundNonce[_receiver][_srcEid][_sender] == _nonce",
        "params": {
          "_nonce": "the nonce of the message to skip",
          "_sender": "the address of the remote sender (oft or adapter)",
          "_srcEid": "the eid of the source chain"
        }
      },
      "token()": {
        "details": "Retrieves the address of the underlying ERC20 implementation.In the case of OFTAdapter, address(this) and erc20 are NOT the same contract.",
        "returns": {
          "_0": "The address of the adapted ERC-20 token."
        }
      },
      "transferOwnership(address)": {
        "details": "Transfers ownership of the contract to a new account (`newOwner`). Can only be called by the current owner."
      },
      "upgradeToAndCall(address,bytes)": {
        "custom:oz-upgrades-unsafe-allow-reachable": "delegatecall",
        "details": "Upgrade the implementation of the proxy to `newImplementation`, and subsequently execute the function call encoded in `data`. Calls {_authorizeUpgrade}. Emits an {Upgraded} event."
      }
    },
    "title": "OrderAdapter",
    "version": 1
  },
  "userdoc": {
    "kind": "user",
    "methods": {
      "allowInitializePath((uint32,bytes32,uint64))": {
        "notice": "Checks if the path initialization is allowed based on the provided origin."
      },
      "approvalRequired()": {
        "notice": "Indicates whether the OFT contract requires approval of the 'token()' to send."
      },
      "combineOptions(uint32,uint16,bytes)": {
        "notice": "Combines options for a given endpoint and message type."
      },
      "endpoint()": {
        "notice": "Retrieves the LayerZero endpoint associated with the OApp."
      },
      "isComposeMsgSender((uint32,bytes32,uint64),bytes,address)": {
        "notice": "Indicates whether an address is an approved composeMsg sender to the Endpoint."
      },
      "oAppVersion()": {
        "notice": "Retrieves the OApp version information."
      },
      "oftVersion()": {
        "notice": "Retrieves interfaceID and the version of the OFT."
      },
      "peers(uint32)": {
        "notice": "Retrieves the peer (OApp) associated with a corresponding endpoint."
      },
      "quoteOFT((uint32,bytes32,uint256,uint256,bytes,bytes,bytes))": {
        "notice": "Provides a quote for OFT-related operations."
      },
      "quoteRelay((uint32,bytes32,uint256,uint256,bytes,bytes,bytes),bool)": {
        "notice": "Provides a quote for the relay() operation."
      },
      "quoteSend((uint32,bytes32,uint256,uint256,bytes,bytes,bytes),bool)": {
        "notice": "Provides a quote for the send() operation."
      },
      "setDelegate(address)": {
        "notice": "Sets the delegate address for the OApp."
      },
      "setPeer(uint32,bytes32)": {
        "notice": "Sets the peer address (OApp instance) for a corresponding endpoint."
      },
      "sharedDecimals()": {
        "notice": "For ORDER tokens, the sharedDecimals should be set to 18 (decimalConversionRate = 1), no precision lost during cross-chain transfer."
      }
    },
    "version": 1
  },
  "storageLayout": {
    "storage": [
      {
        "astId": 11852,
        "contract": "contracts/OrderAdapter.sol:OrderAdapter",
        "label": "endpoint",
        "offset": 0,
        "slot": "0",
        "type": "t_contract(ILayerZeroEndpointV2)3419"
      },
      {
        "astId": 11856,
        "contract": "contracts/OrderAdapter.sol:OrderAdapter",
        "label": "peers",
        "offset": 0,
        "slot": "1",
        "type": "t_mapping(t_uint32,t_bytes32)"
      },
      {
        "astId": 11860,
        "contract": "contracts/OrderAdapter.sol:OrderAdapter",
        "label": "__gap",
        "offset": 0,
        "slot": "2",
        "type": "t_array(t_uint256)50_storage"
      },
      {
        "astId": 12203,
        "contract": "contracts/OrderAdapter.sol:OrderAdapter",
        "label": "__gap",
        "offset": 0,
        "slot": "52",
        "type": "t_array(t_uint256)50_storage"
      },
      {
        "astId": 12039,
        "contract": "contracts/OrderAdapter.sol:OrderAdapter",
        "label": "__gap",
        "offset": 0,
        "slot": "102",
        "type": "t_array(t_uint256)50_storage"
      },
      {
        "astId": 12390,
        "contract": "contracts/OrderAdapter.sol:OrderAdapter",
        "label": "__gap",
        "offset": 0,
        "slot": "152",
        "type": "t_array(t_uint256)50_storage"
      },
      {
        "astId": 15176,
        "contract": "contracts/OrderAdapter.sol:OrderAdapter",
        "label": "preCrime",
        "offset": 0,
        "slot": "202",
        "type": "t_address"
      },
      {
        "astId": 12628,
        "contract": "contracts/OrderAdapter.sol:OrderAdapter",
        "label": "enforcedOptions",
        "offset": 0,
        "slot": "203",
        "type": "t_mapping(t_uint32,t_mapping(t_uint16,t_bytes_storage))"
      },
      {
        "astId": 12632,
        "contract": "contracts/OrderAdapter.sol:OrderAdapter",
        "label": "__gap",
        "offset": 0,
        "slot": "204",
        "type": "t_array(t_uint256)50_storage"
      },
      {
        "astId": 12956,
        "contract": "contracts/OrderAdapter.sol:OrderAdapter",
        "label": "decimalConversionRate",
        "offset": 0,
        "slot": "254",
        "type": "t_uint256"
      },
      {
        "astId": 12964,
        "contract": "contracts/OrderAdapter.sol:OrderAdapter",
        "label": "msgInspector",
        "offset": 0,
        "slot": "255",
        "type": "t_address"
      },
      {
        "astId": 12970,
        "contract": "contracts/OrderAdapter.sol:OrderAdapter",
        "label": "maxReceivedNonce",
        "offset": 0,
        "slot": "256",
        "type": "t_mapping(t_uint32,t_mapping(t_bytes32,t_uint64))"
      },
      {
        "astId": 12972,
        "contract": "contracts/OrderAdapter.sol:OrderAdapter",
        "label": "occManager",
        "offset": 0,
        "slot": "257",
        "type": "t_address"
      },
      {
        "astId": 12976,
        "contract": "contracts/OrderAdapter.sol:OrderAdapter",
        "label": "orderedNonce",
        "offset": 0,
        "slot": "258",
        "type": "t_mapping(t_uint32,t_bool)"
      },
      {
        "astId": 12980,
        "contract": "contracts/OrderAdapter.sol:OrderAdapter",
        "label": "__gap",
        "offset": 0,
        "slot": "259",
        "type": "t_array(t_uint256)47_storage"
      },
      {
        "astId": 12795,
        "contract": "contracts/OrderAdapter.sol:OrderAdapter",
        "label": "innerToken",
        "offset": 0,
        "slot": "306",
        "type": "t_contract(IERC20)7263"
      },
      {
        "astId": 12799,
        "contract": "contracts/OrderAdapter.sol:OrderAdapter",
        "label": "__gap",
        "offset": 0,
        "slot": "307",
        "type": "t_array(t_uint256)50_storage"
      }
    ],
    "types": {
      "t_address": {
        "encoding": "inplace",
        "label": "address",
        "numberOfBytes": "20"
      },
      "t_array(t_uint256)47_storage": {
        "base": "t_uint256",
        "encoding": "inplace",
        "label": "uint256[47]",
        "numberOfBytes": "1504"
      },
      "t_array(t_uint256)50_storage": {
        "base": "t_uint256",
        "encoding": "inplace",
        "label": "uint256[50]",
        "numberOfBytes": "1600"
      },
      "t_bool": {
        "encoding": "inplace",
        "label": "bool",
        "numberOfBytes": "1"
      },
      "t_bytes32": {
        "encoding": "inplace",
        "label": "bytes32",
        "numberOfBytes": "32"
      },
      "t_bytes_storage": {
        "encoding": "bytes",
        "label": "bytes",
        "numberOfBytes": "32"
      },
      "t_contract(IERC20)7263": {
        "encoding": "inplace",
        "label": "contract IERC20",
        "numberOfBytes": "20"
      },
      "t_contract(ILayerZeroEndpointV2)3419": {
        "encoding": "inplace",
        "label": "contract ILayerZeroEndpointV2",
        "numberOfBytes": "20"
      },
      "t_mapping(t_bytes32,t_uint64)": {
        "encoding": "mapping",
        "key": "t_bytes32",
        "label": "mapping(bytes32 => uint64)",
        "numberOfBytes": "32",
        "value": "t_uint64"
      },
      "t_mapping(t_uint16,t_bytes_storage)": {
        "encoding": "mapping",
        "key": "t_uint16",
        "label": "mapping(uint16 => bytes)",
        "numberOfBytes": "32",
        "value": "t_bytes_storage"
      },
      "t_mapping(t_uint32,t_bool)": {
        "encoding": "mapping",
        "key": "t_uint32",
        "label": "mapping(uint32 => bool)",
        "numberOfBytes": "32",
        "value": "t_bool"
      },
      "t_mapping(t_uint32,t_bytes32)": {
        "encoding": "mapping",
        "key": "t_uint32",
        "label": "mapping(uint32 => bytes32)",
        "numberOfBytes": "32",
        "value": "t_bytes32"
      },
      "t_mapping(t_uint32,t_mapping(t_bytes32,t_uint64))": {
        "encoding": "mapping",
        "key": "t_uint32",
        "label": "mapping(uint32 => mapping(bytes32 => uint64))",
        "numberOfBytes": "32",
        "value": "t_mapping(t_bytes32,t_uint64)"
      },
      "t_mapping(t_uint32,t_mapping(t_uint16,t_bytes_storage))": {
        "encoding": "mapping",
        "key": "t_uint32",
        "label": "mapping(uint32 => mapping(uint16 => bytes))",
        "numberOfBytes": "32",
        "value": "t_mapping(t_uint16,t_bytes_storage)"
      },
      "t_uint16": {
        "encoding": "inplace",
        "label": "uint16",
        "numberOfBytes": "2"
      },
      "t_uint256": {
        "encoding": "inplace",
        "label": "uint256",
        "numberOfBytes": "32"
      },
      "t_uint32": {
        "encoding": "inplace",
        "label": "uint32",
        "numberOfBytes": "4"
      },
      "t_uint64": {
        "encoding": "inplace",
        "label": "uint64",
        "numberOfBytes": "8"
      }
    }
  }
}