{
  "address": "0xaD4C043F3e9f20a2F9959ec6277d868fdA0cAb0C",
  "abi": [
    {
      "inputs": [
        {
          "internalType": "address",
          "name": "target",
          "type": "address"
        }
      ],
      "name": "AddressEmptyCode",
      "type": "error"
    },
    {
      "inputs": [
        {
          "internalType": "address",
          "name": "implementation",
          "type": "address"
        }
      ],
      "name": "ERC1967InvalidImplementation",
      "type": "error"
    },
    {
      "inputs": [],
      "name": "ERC1967NonPayable",
      "type": "error"
    },
    {
      "inputs": [],
      "name": "EnforcedPause",
      "type": "error"
    },
    {
      "inputs": [],
      "name": "ExpectedPause",
      "type": "error"
    },
    {
      "inputs": [],
      "name": "FailedInnerCall",
      "type": "error"
    },
    {
      "inputs": [],
      "name": "InvalidInitialization",
      "type": "error"
    },
    {
      "inputs": [],
      "name": "NotInitializing",
      "type": "error"
    },
    {
      "inputs": [
        {
          "internalType": "address",
          "name": "owner",
          "type": "address"
        }
      ],
      "name": "OwnableInvalidOwner",
      "type": "error"
    },
    {
      "inputs": [
        {
          "internalType": "address",
          "name": "account",
          "type": "address"
        }
      ],
      "name": "OwnableUnauthorizedAccount",
      "type": "error"
    },
    {
      "inputs": [],
      "name": "UUPSUnauthorizedCallContext",
      "type": "error"
    },
    {
      "inputs": [
        {
          "internalType": "bytes32",
          "name": "slot",
          "type": "bytes32"
        }
      ],
      "name": "UUPSUnsupportedProxiableUUID",
      "type": "error"
    },
    {
      "anonymous": false,
      "inputs": [
        {
          "indexed": false,
          "internalType": "uint64",
          "name": "version",
          "type": "uint64"
        }
      ],
      "name": "Initialized",
      "type": "event"
    },
    {
      "anonymous": false,
      "inputs": [
        {
          "indexed": true,
          "internalType": "address",
          "name": "previousOwner",
          "type": "address"
        },
        {
          "indexed": true,
          "internalType": "address",
          "name": "newOwner",
          "type": "address"
        }
      ],
      "name": "OwnershipTransferred",
      "type": "event"
    },
    {
      "anonymous": false,
      "inputs": [
        {
          "indexed": false,
          "internalType": "address",
          "name": "account",
          "type": "address"
        }
      ],
      "name": "Paused",
      "type": "event"
    },
    {
      "anonymous": false,
      "inputs": [
        {
          "indexed": false,
          "internalType": "address",
          "name": "account",
          "type": "address"
        }
      ],
      "name": "Unpaused",
      "type": "event"
    },
    {
      "anonymous": false,
      "inputs": [
        {
          "indexed": true,
          "internalType": "address",
          "name": "implementation",
          "type": "address"
        }
      ],
      "name": "Upgraded",
      "type": "event"
    },
    {
      "inputs": [],
      "name": "UPGRADE_INTERFACE_VERSION",
      "outputs": [
        {
          "internalType": "string",
          "name": "",
          "type": "string"
        }
      ],
      "stateMutability": "view",
      "type": "function"
    },
    {
      "inputs": [
        {
          "internalType": "address",
          "name": "_owner",
          "type": "address"
        }
      ],
      "name": "initialize",
      "outputs": [],
      "stateMutability": "nonpayable",
      "type": "function"
    },
    {
      "inputs": [],
      "name": "owner",
      "outputs": [
        {
          "internalType": "address",
          "name": "",
          "type": "address"
        }
      ],
      "stateMutability": "view",
      "type": "function"
    },
    {
      "inputs": [],
      "name": "pause",
      "outputs": [],
      "stateMutability": "nonpayable",
      "type": "function"
    },
    {
      "inputs": [],
      "name": "paused",
      "outputs": [
        {
          "internalType": "bool",
          "name": "",
          "type": "bool"
        }
      ],
      "stateMutability": "view",
      "type": "function"
    },
    {
      "inputs": [],
      "name": "proxiableUUID",
      "outputs": [
        {
          "internalType": "bytes32",
          "name": "",
          "type": "bytes32"
        }
      ],
      "stateMutability": "view",
      "type": "function"
    },
    {
      "inputs": [],
      "name": "renounceOwnership",
      "outputs": [],
      "stateMutability": "nonpayable",
      "type": "function"
    },
    {
      "inputs": [
        {
          "internalType": "address",
          "name": "newOwner",
          "type": "address"
        }
      ],
      "name": "transferOwnership",
      "outputs": [],
      "stateMutability": "nonpayable",
      "type": "function"
    },
    {
      "inputs": [],
      "name": "unpause",
      "outputs": [],
      "stateMutability": "nonpayable",
      "type": "function"
    },
    {
      "inputs": [],
      "name": "upgradeFunction",
      "outputs": [
        {
          "internalType": "string",
          "name": "",
          "type": "string"
        }
      ],
      "stateMutability": "pure",
      "type": "function"
    },
    {
      "inputs": [
        {
          "internalType": "address",
          "name": "newImplementation",
          "type": "address"
        },
        {
          "internalType": "bytes",
          "name": "data",
          "type": "bytes"
        }
      ],
      "name": "upgradeToAndCall",
      "outputs": [],
      "stateMutability": "payable",
      "type": "function"
    }
  ],
  "transactionHash": "0x32ed4e4e862c791de5490e3d4a22f38ffa1b71385ebe807a0c930d5d6478d11f",
  "args": [],
  "numDeployments": 1,
  "solcInputHash": "6a4ed7dc2e446a0dd9e459524753c4e3",
  "bytecode": "0x60a06040523060805234801561001457600080fd5b50608051610c2f61003e600039600081816104e30152818161050c01526106520152610c2f6000f3fe60806040526004361061009c5760003560e01c80638456cb59116100645780638456cb59146101385780638da5cb5b1461014d578063ad3cb1cc14610194578063c4d66de8146101d2578063e9d9929a146101f2578063f2fde38b1461022a57600080fd5b80633f4ba83a146100a15780634f1ef286146100b857806352d1902d146100cb5780635c975abb146100f3578063715018a614610123575b600080fd5b3480156100ad57600080fd5b506100b661024a565b005b6100b66100c6366004610a50565b61025c565b3480156100d757600080fd5b506100e061027b565b6040519081526020015b60405180910390f35b3480156100ff57600080fd5b50600080516020610bda8339815191525460ff1660405190151581526020016100ea565b34801561012f57600080fd5b506100b6610298565b34801561014457600080fd5b506100b66102aa565b34801561015957600080fd5b507f9016d09d72d40fdae2fd8ceac6b6234c7706214fd39c1cd1e609a0528c199300546040516001600160a01b0390911681526020016100ea565b3480156101a057600080fd5b506101c5604051806040016040528060058152602001640352e302e360dc1b81525081565b6040516100ea9190610b36565b3480156101de57600080fd5b506100b66101ed366004610b69565b6102ba565b3480156101fe57600080fd5b5060408051808201909152600f81526e3ab833b930b232a33ab731ba34b7b760891b60208201526101c5565b34801561023657600080fd5b506100b6610245366004610b69565b6103da565b61025261041d565b61025a610478565b565b6102646104d8565b61026d8261057d565b6102778282610585565b5050565b6000610285610647565b50600080516020610bba83398151915290565b6102a061041d565b61025a6000610690565b6102b261041d565b61025a610701565b7ff0c57e16840df040f15088dc2f81fe391c3923bec73e23a9662efc9c229c6a008054600160401b810460ff16159067ffffffffffffffff166000811580156103005750825b905060008267ffffffffffffffff16600114801561031d5750303b155b90508115801561032b575080155b156103495760405163f92ee8a960e01b815260040160405180910390fd5b845467ffffffffffffffff19166001178555831561037357845460ff60401b1916600160401b1785555b61037b61074a565b61038486610752565b61038c610763565b83156103d257845460ff60401b19168555604051600181527fc7f505b2f371ae2175ee4913f4499e1f2633a7b5936321eed1cdaeb6115181d29060200160405180910390a15b505050505050565b6103e261041d565b6001600160a01b03811661041157604051631e4fbdf760e01b8152600060048201526024015b60405180910390fd5b61041a81610690565b50565b3361044f7f9016d09d72d40fdae2fd8ceac6b6234c7706214fd39c1cd1e609a0528c199300546001600160a01b031690565b6001600160a01b03161461025a5760405163118cdaa760e01b8152336004820152602401610408565b610480610773565b600080516020610bda833981519152805460ff191681557f5db9ee0a495bf2e6ff9c91a7834c1ba4fdd244a5e8aa4e537bd38aeae4b073aa335b6040516001600160a01b03909116815260200160405180910390a150565b306001600160a01b037f000000000000000000000000000000000000000000000000000000000000000016148061055f57507f00000000000000000000000000000000000000000000000000000000000000006001600160a01b0316610553600080516020610bba833981519152546001600160a01b031690565b6001600160a01b031614155b1561025a5760405163703e46dd60e11b815260040160405180910390fd5b61041a61041d565b816001600160a01b03166352d1902d6040518163ffffffff1660e01b8152600401602060405180830381865afa9250505080156105df575060408051601f3d908101601f191682019092526105dc91810190610b84565b60015b61060757604051634c9c8ce360e01b81526001600160a01b0383166004820152602401610408565b600080516020610bba833981519152811461063857604051632a87526960e21b815260048101829052602401610408565b61064283836107a3565b505050565b306001600160a01b037f0000000000000000000000000000000000000000000000000000000000000000161461025a5760405163703e46dd60e11b815260040160405180910390fd5b7f9016d09d72d40fdae2fd8ceac6b6234c7706214fd39c1cd1e609a0528c19930080546001600160a01b031981166001600160a01b03848116918217845560405192169182907f8be0079c531659141344cd1fd0a4f28419497f9722a3daafe3b4186f6b6457e090600090a3505050565b6107096107f9565b600080516020610bda833981519152805460ff191660011781557f62e78cea01bee320cd4e420270b5ea74000d11b0c9f74754ebdbfc544b05a258336104ba565b61025a61082a565b61075a61082a565b61041a81610873565b61076b61082a565b61025a61087b565b600080516020610bda8339815191525460ff1661025a57604051638dfc202b60e01b815260040160405180910390fd5b6107ac8261089c565b6040516001600160a01b038316907fbc7cd75a20ee27fd9adebab32041f755214dbc6bffa90cc0225b39da2e5c2d3b90600090a28051156107f1576106428282610901565b610277610977565b600080516020610bda8339815191525460ff161561025a5760405163d93c066560e01b815260040160405180910390fd5b7ff0c57e16840df040f15088dc2f81fe391c3923bec73e23a9662efc9c229c6a0054600160401b900460ff1661025a57604051631afcd79f60e31b815260040160405180910390fd5b6103e261082a565b61088361082a565b600080516020610bda833981519152805460ff19169055565b806001600160a01b03163b6000036108d257604051634c9c8ce360e01b81526001600160a01b0382166004820152602401610408565b600080516020610bba83398151915280546001600160a01b0319166001600160a01b0392909216919091179055565b6060600080846001600160a01b03168460405161091e9190610b9d565b600060405180830381855af49150503d8060008114610959576040519150601f19603f3d011682016040523d82523d6000602084013e61095e565b606091505b509150915061096e858383610996565b95945050505050565b341561025a5760405163b398979f60e01b815260040160405180910390fd5b6060826109ab576109a6826109f5565b6109ee565b81511580156109c257506001600160a01b0384163b155b156109eb57604051639996b31560e01b81526001600160a01b0385166004820152602401610408565b50805b9392505050565b805115610a055780518082602001fd5b604051630a12f52160e11b815260040160405180910390fd5b80356001600160a01b0381168114610a3557600080fd5b919050565b634e487b7160e01b600052604160045260246000fd5b60008060408385031215610a6357600080fd5b610a6c83610a1e565b9150602083013567ffffffffffffffff80821115610a8957600080fd5b818501915085601f830112610a9d57600080fd5b813581811115610aaf57610aaf610a3a565b604051601f8201601f19908116603f01168101908382118183101715610ad757610ad7610a3a565b81604052828152886020848701011115610af057600080fd5b8260208601602083013760006020848301015280955050505050509250929050565b60005b83811015610b2d578181015183820152602001610b15565b50506000910152565b6020815260008251806020840152610b55816040850160208701610b12565b601f01601f19169190910160400192915050565b600060208284031215610b7b57600080fd5b6109ee82610a1e565b600060208284031215610b9657600080fd5b5051919050565b60008251610baf818460208701610b12565b919091019291505056fe360894a13ba1a3210667c828492db98dca3e2076cc3735a920a3ca505d382bbccd5ed15c6e187e77e9aee88184c21f4f2182ab5827cb3b7e07fbedcd63f03300a264697066735822122096ce772d9427cc5c209adfc1fb9883edabd5e551c2c44ec716fe4d9b1fb3f23864736f6c63430008160033",
  "devdoc": {
    "errors": {
      "AddressEmptyCode(address)": [
        {
          "details": "There's no code at `target` (it is not a contract)."
        }
      ],
      "ERC1967InvalidImplementation(address)": [
        {
          "details": "The `implementation` of the proxy is invalid."
        }
      ],
      "ERC1967NonPayable()": [
        {
          "details": "An upgrade function sees `msg.value > 0` that may be lost."
        }
      ],
      "EnforcedPause()": [
        {
          "details": "The operation failed because the contract is paused."
        }
      ],
      "ExpectedPause()": [
        {
          "details": "The operation failed because the contract is not paused."
        }
      ],
      "FailedInnerCall()": [
        {
          "details": "A call to an address target failed. The target may have reverted."
        }
      ],
      "InvalidInitialization()": [
        {
          "details": "The contract is already initialized."
        }
      ],
      "NotInitializing()": [
        {
          "details": "The contract is not initializing."
        }
      ],
      "OwnableInvalidOwner(address)": [
        {
          "details": "The owner is not a valid owner account. (eg. `address(0)`)"
        }
      ],
      "OwnableUnauthorizedAccount(address)": [
        {
          "details": "The caller account is not authorized to perform an operation."
        }
      ],
      "UUPSUnauthorizedCallContext()": [
        {
          "details": "The call is from an unauthorized context."
        }
      ],
      "UUPSUnsupportedProxiableUUID(bytes32)": [
        {
          "details": "The storage `slot` is unsupported as a UUID."
        }
      ]
    },
    "events": {
      "Initialized(uint64)": {
        "details": "Triggered when the contract has been initialized or reinitialized."
      },
      "Paused(address)": {
        "details": "Emitted when the pause is triggered by `account`."
      },
      "Unpaused(address)": {
        "details": "Emitted when the pause is lifted by `account`."
      },
      "Upgraded(address)": {
        "details": "Emitted when the implementation is upgraded."
      }
    },
    "kind": "dev",
    "methods": {
      "owner()": {
        "details": "Returns the address of the current owner."
      },
      "paused()": {
        "details": "Returns true if the contract is paused, and false otherwise."
      },
      "proxiableUUID()": {
        "details": "Implementation of the ERC1822 {proxiableUUID} function. This returns the storage slot used by the implementation. It is used to validate the implementation's compatibility when performing an upgrade. IMPORTANT: A proxy pointing at a proxiable contract should not be considered proxiable itself, because this risks bricking a proxy that upgrades to it, by delegating to itself until out of gas. Thus it is critical that this function revert if invoked through a proxy. This is guaranteed by the `notDelegated` modifier."
      },
      "renounceOwnership()": {
        "details": "Leaves the contract without owner. It will not be possible to call `onlyOwner` functions. Can only be called by the current owner. NOTE: Renouncing ownership will leave the contract without an owner, thereby disabling any functionality that is only available to the owner."
      },
      "transferOwnership(address)": {
        "details": "Transfers ownership of the contract to a new account (`newOwner`). Can only be called by the current owner."
      },
      "upgradeToAndCall(address,bytes)": {
        "custom:oz-upgrades-unsafe-allow-reachable": "delegatecall",
        "details": "Upgrade the implementation of the proxy to `newImplementation`, and subsequently execute the function call encoded in `data`. Calls {_authorizeUpgrade}. Emits an {Upgraded} event."
      }
    },
    "version": 1
  },
  "userdoc": {
    "kind": "user",
    "methods": {},
    "version": 1
  },
  "storageLayout": {
    "storage": [],
    "types": null
  }
}