{
  "address": "0x443bFD32798a5f5b4BA3De68bDF43D2F985805e5",
  "abi": [
    {
      "inputs": [
        {
          "internalType": "address",
          "name": "target",
          "type": "address"
        }
      ],
      "name": "AddressEmptyCode",
      "type": "error"
    },
    {
      "inputs": [
        {
          "internalType": "address",
          "name": "account",
          "type": "address"
        }
      ],
      "name": "AddressInsufficientBalance",
      "type": "error"
    },
    {
      "inputs": [
        {
          "internalType": "address",
          "name": "implementation",
          "type": "address"
        }
      ],
      "name": "ERC1967InvalidImplementation",
      "type": "error"
    },
    {
      "inputs": [],
      "name": "ERC1967NonPayable",
      "type": "error"
    },
    {
      "inputs": [],
      "name": "EnforcedPause",
      "type": "error"
    },
    {
      "inputs": [],
      "name": "ExpectedPause",
      "type": "error"
    },
    {
      "inputs": [],
      "name": "FailedInnerCall",
      "type": "error"
    },
    {
      "inputs": [],
      "name": "InvalidInitialization",
      "type": "error"
    },
    {
      "inputs": [
        {
          "internalType": "address",
          "name": "sender",
          "type": "address"
        }
      ],
      "name": "NotComposeMsgSender",
      "type": "error"
    },
    {
      "inputs": [],
      "name": "NotInitializing",
      "type": "error"
    },
    {
      "inputs": [
        {
          "internalType": "address",
          "name": "owner",
          "type": "address"
        }
      ],
      "name": "OwnableInvalidOwner",
      "type": "error"
    },
    {
      "inputs": [
        {
          "internalType": "address",
          "name": "account",
          "type": "address"
        }
      ],
      "name": "OwnableUnauthorizedAccount",
      "type": "error"
    },
    {
      "inputs": [
        {
          "internalType": "address",
          "name": "token",
          "type": "address"
        }
      ],
      "name": "SafeERC20FailedOperation",
      "type": "error"
    },
    {
      "inputs": [],
      "name": "UUPSUnauthorizedCallContext",
      "type": "error"
    },
    {
      "inputs": [
        {
          "internalType": "bytes32",
          "name": "slot",
          "type": "bytes32"
        }
      ],
      "name": "UUPSUnsupportedProxiableUUID",
      "type": "error"
    },
    {
      "anonymous": false,
      "inputs": [
        {
          "indexed": true,
          "internalType": "address",
          "name": "composeMsgSender",
          "type": "address"
        },
        {
          "indexed": false,
          "internalType": "bool",
          "name": "allowed",
          "type": "bool"
        }
      ],
      "name": "ComposeMsgSenderSet",
      "type": "event"
    },
    {
      "anonymous": false,
      "inputs": [
        {
          "indexed": true,
          "internalType": "uint256",
          "name": "chainId",
          "type": "uint256"
        },
        {
          "indexed": false,
          "internalType": "uint32",
          "name": "eid",
          "type": "uint32"
        }
      ],
      "name": "EidSet",
      "type": "event"
    },
    {
      "anonymous": false,
      "inputs": [
        {
          "indexed": true,
          "internalType": "address",
          "name": "endpoint",
          "type": "address"
        }
      ],
      "name": "EndpointSet",
      "type": "event"
    },
    {
      "anonymous": false,
      "inputs": [
        {
          "indexed": false,
          "internalType": "uint64",
          "name": "version",
          "type": "uint64"
        }
      ],
      "name": "Initialized",
      "type": "event"
    },
    {
      "anonymous": false,
      "inputs": [
        {
          "indexed": true,
          "internalType": "address",
          "name": "oft",
          "type": "address"
        }
      ],
      "name": "OftSet",
      "type": "event"
    },
    {
      "anonymous": false,
      "inputs": [
        {
          "indexed": true,
          "internalType": "address",
          "name": "previousOwner",
          "type": "address"
        },
        {
          "indexed": true,
          "internalType": "address",
          "name": "newOwner",
          "type": "address"
        }
      ],
      "name": "OwnershipTransferred",
      "type": "event"
    },
    {
      "anonymous": false,
      "inputs": [
        {
          "indexed": false,
          "internalType": "address",
          "name": "account",
          "type": "address"
        }
      ],
      "name": "Paused",
      "type": "event"
    },
    {
      "anonymous": false,
      "inputs": [
        {
          "indexed": false,
          "internalType": "address",
          "name": "account",
          "type": "address"
        }
      ],
      "name": "Unpaused",
      "type": "event"
    },
    {
      "anonymous": false,
      "inputs": [
        {
          "indexed": true,
          "internalType": "address",
          "name": "implementation",
          "type": "address"
        }
      ],
      "name": "Upgraded",
      "type": "event"
    },
    {
      "stateMutability": "payable",
      "type": "fallback"
    },
    {
      "inputs": [],
      "name": "UPGRADE_INTERFACE_VERSION",
      "outputs": [
        {
          "internalType": "string",
          "name": "",
          "type": "string"
        }
      ],
      "stateMutability": "view",
      "type": "function"
    },
    {
      "inputs": [
        {
          "internalType": "uint32",
          "name": "",
          "type": "uint32"
        }
      ],
      "name": "chainIdMap",
      "outputs": [
        {
          "internalType": "uint256",
          "name": "",
          "type": "uint256"
        }
      ],
      "stateMutability": "view",
      "type": "function"
    },
    {
      "inputs": [
        {
          "internalType": "uint256",
          "name": "",
          "type": "uint256"
        }
      ],
      "name": "eidMap",
      "outputs": [
        {
          "internalType": "uint32",
          "name": "",
          "type": "uint32"
        }
      ],
      "stateMutability": "view",
      "type": "function"
    },
    {
      "inputs": [],
      "name": "endpoint",
      "outputs": [
        {
          "internalType": "address",
          "name": "",
          "type": "address"
        }
      ],
      "stateMutability": "view",
      "type": "function"
    },
    {
      "inputs": [
        {
          "internalType": "address",
          "name": "_owner",
          "type": "address"
        }
      ],
      "name": "initialize",
      "outputs": [],
      "stateMutability": "nonpayable",
      "type": "function"
    },
    {
      "inputs": [
        {
          "internalType": "address",
          "name": "",
          "type": "address"
        }
      ],
      "name": "localComposeMsgSender",
      "outputs": [
        {
          "internalType": "bool",
          "name": "",
          "type": "bool"
        }
      ],
      "stateMutability": "view",
      "type": "function"
    },
    {
      "inputs": [
        {
          "internalType": "address",
          "name": "_from",
          "type": "address"
        },
        {
          "internalType": "bytes32",
          "name": "_guid",
          "type": "bytes32"
        },
        {
          "internalType": "bytes",
          "name": "_message",
          "type": "bytes"
        },
        {
          "internalType": "address",
          "name": "_executor",
          "type": "address"
        },
        {
          "internalType": "bytes",
          "name": "_extraData",
          "type": "bytes"
        }
      ],
      "name": "lzCompose",
      "outputs": [],
      "stateMutability": "payable",
      "type": "function"
    },
    {
      "inputs": [],
      "name": "oft",
      "outputs": [
        {
          "internalType": "address",
          "name": "",
          "type": "address"
        }
      ],
      "stateMutability": "view",
      "type": "function"
    },
    {
      "inputs": [
        {
          "internalType": "uint8",
          "name": "",
          "type": "uint8"
        }
      ],
      "name": "optionsAirdrop",
      "outputs": [
        {
          "internalType": "uint128",
          "name": "gas",
          "type": "uint128"
        },
        {
          "internalType": "uint128",
          "name": "value",
          "type": "uint128"
        }
      ],
      "stateMutability": "view",
      "type": "function"
    },
    {
      "inputs": [],
      "name": "orderBox",
      "outputs": [
        {
          "internalType": "address",
          "name": "",
          "type": "address"
        }
      ],
      "stateMutability": "view",
      "type": "function"
    },
    {
      "inputs": [
        {
          "internalType": "uint32",
          "name": "",
          "type": "uint32"
        }
      ],
      "name": "orderSafe",
      "outputs": [
        {
          "internalType": "address",
          "name": "",
          "type": "address"
        }
      ],
      "stateMutability": "view",
      "type": "function"
    },
    {
      "inputs": [],
      "name": "owner",
      "outputs": [
        {
          "internalType": "address",
          "name": "",
          "type": "address"
        }
      ],
      "stateMutability": "view",
      "type": "function"
    },
    {
      "inputs": [],
      "name": "pause",
      "outputs": [],
      "stateMutability": "nonpayable",
      "type": "function"
    },
    {
      "inputs": [],
      "name": "paused",
      "outputs": [
        {
          "internalType": "bool",
          "name": "",
          "type": "bool"
        }
      ],
      "stateMutability": "view",
      "type": "function"
    },
    {
      "inputs": [],
      "name": "proxiableUUID",
      "outputs": [
        {
          "internalType": "bytes32",
          "name": "",
          "type": "bytes32"
        }
      ],
      "stateMutability": "view",
      "type": "function"
    },
    {
      "inputs": [
        {
          "internalType": "uint32",
          "name": "",
          "type": "uint32"
        },
        {
          "internalType": "address",
          "name": "",
          "type": "address"
        }
      ],
      "name": "remoteComposeMsgSender",
      "outputs": [
        {
          "internalType": "bool",
          "name": "",
          "type": "bool"
        }
      ],
      "stateMutability": "view",
      "type": "function"
    },
    {
      "inputs": [],
      "name": "renounceOwnership",
      "outputs": [],
      "stateMutability": "nonpayable",
      "type": "function"
    },
    {
      "inputs": [
        {
          "internalType": "uint256",
          "name": "_chainId",
          "type": "uint256"
        },
        {
          "internalType": "uint32",
          "name": "_eid",
          "type": "uint32"
        }
      ],
      "name": "setEid",
      "outputs": [],
      "stateMutability": "nonpayable",
      "type": "function"
    },
    {
      "inputs": [
        {
          "internalType": "uint256[]",
          "name": "_chainIds",
          "type": "uint256[]"
        },
        {
          "internalType": "uint32[]",
          "name": "_eids",
          "type": "uint32[]"
        }
      ],
      "name": "setEids",
      "outputs": [],
      "stateMutability": "nonpayable",
      "type": "function"
    },
    {
      "inputs": [
        {
          "internalType": "address",
          "name": "_endpoint",
          "type": "address"
        }
      ],
      "name": "setEndpoint",
      "outputs": [],
      "stateMutability": "nonpayable",
      "type": "function"
    },
    {
      "inputs": [
        {
          "internalType": "address",
          "name": "_addr",
          "type": "address"
        },
        {
          "internalType": "bool",
          "name": "_allowed",
          "type": "bool"
        }
      ],
      "name": "setLocalComposeMsgSender",
      "outputs": [],
      "stateMutability": "nonpayable",
      "type": "function"
    },
    {
      "inputs": [
        {
          "internalType": "address",
          "name": "_oft",
          "type": "address"
        }
      ],
      "name": "setOft",
      "outputs": [],
      "stateMutability": "nonpayable",
      "type": "function"
    },
    {
      "inputs": [
        {
          "internalType": "uint8",
          "name": "_option",
          "type": "uint8"
        },
        {
          "internalType": "uint128",
          "name": "_gas",
          "type": "uint128"
        },
        {
          "internalType": "uint128",
          "name": "_value",
          "type": "uint128"
        }
      ],
      "name": "setOptionsAirdrop",
      "outputs": [],
      "stateMutability": "nonpayable",
      "type": "function"
    },
    {
      "inputs": [
        {
          "internalType": "address",
          "name": "_orderBox",
          "type": "address"
        }
      ],
      "name": "setOrderBox",
      "outputs": [],
      "stateMutability": "nonpayable",
      "type": "function"
    },
    {
      "inputs": [
        {
          "internalType": "uint32",
          "name": "_eid",
          "type": "uint32"
        },
        {
          "internalType": "address",
          "name": "_addr",
          "type": "address"
        },
        {
          "internalType": "bool",
          "name": "_allowed",
          "type": "bool"
        }
      ],
      "name": "setRemoteComposeMsgSender",
      "outputs": [],
      "stateMutability": "nonpayable",
      "type": "function"
    },
    {
      "inputs": [
        {
          "internalType": "address",
          "name": "newOwner",
          "type": "address"
        }
      ],
      "name": "transferOwnership",
      "outputs": [],
      "stateMutability": "nonpayable",
      "type": "function"
    },
    {
      "inputs": [],
      "name": "unpause",
      "outputs": [],
      "stateMutability": "nonpayable",
      "type": "function"
    },
    {
      "inputs": [
        {
          "internalType": "address",
          "name": "newImplementation",
          "type": "address"
        },
        {
          "internalType": "bytes",
          "name": "data",
          "type": "bytes"
        }
      ],
      "name": "upgradeToAndCall",
      "outputs": [],
      "stateMutability": "payable",
      "type": "function"
    },
    {
      "stateMutability": "payable",
      "type": "receive"
    }
  ],
  "transactionHash": "0x46d8506e781fc33ce0dbc48e258827ced2e83c588de9aff836b7c6589a4857c2",
  "args": [],
  "numDeployments": 1,
  "solcInputHash": "ccbb7d2c82e3adc0ab1354d2550209d3",
  "bytecode": "0x60a06040523060805234801561001457600080fd5b50608051611bf161003e60003960008181610ddd01528181610e060152610f4c0152611bf16000f3fe6080604052600436106101a35760003560e01c806395b410e4116100e0578063d2fe419711610084578063e242e51511610061578063e242e51514610598578063f29e8d2c146105b8578063f2fde38b146105d8578063fe8e9c1f146105f857005b8063d2fe419714610538578063dbbb415514610558578063dc9e80a41461057857005b8063ad3cb1cc116100bd578063ad3cb1cc14610491578063c4d66de8146104cf578063d0a10260146104ef578063d229915a1461050257005b806395b410e4146104315780639b5215f614610451578063a5c5ff7e1461047157005b806352d1902d11610147578063715018a611610124578063715018a61461039d5780638456cb59146103b257806387d5b1c6146103c75780638da5cb5b146103f457005b806352d1902d1461031d5780635c975abb146103405780635e280f111461036557005b806332c352541161018057806332c35254146102725780633f4ba83a146102ad5780634a9379d9146102c25780634f1ef2861461030a57005b806303a3b7b3146101ac5780630cff4e06146101cc578063208646211461021157005b366101aa57005b005b3480156101b857600080fd5b506101aa6101c7366004611585565b610618565b3480156101d857600080fd5b506101fc6101e7366004611585565b60046020526000908152604090205460ff1681565b60405190151581526020015b60405180910390f35b34801561021d57600080fd5b5061025261022c3660046115b8565b6006602052600090815260409020546001600160801b0380821691600160801b90041682565b604080516001600160801b03938416815292909116602083015201610208565b34801561027e57600080fd5b506101fc61028d3660046115e7565b600560209081526000928352604080842090915290825290205460ff1681565b3480156102b957600080fd5b506101aa6106ad565b3480156102ce57600080fd5b506102f56102dd36600461161e565b60026020526000908152604090205463ffffffff1681565b60405163ffffffff9091168152602001610208565b6101aa61031836600461164d565b6106bf565b34801561032957600080fd5b506103326106de565b604051908152602001610208565b34801561034c57600080fd5b50600080516020611b9c8339815191525460ff166101fc565b34801561037157600080fd5b50600054610385906001600160a01b031681565b6040516001600160a01b039091168152602001610208565b3480156103a957600080fd5b506101aa6106fb565b3480156103be57600080fd5b506101aa61070d565b3480156103d357600080fd5b506103326103e2366004611711565b60036020526000908152604090205481565b34801561040057600080fd5b507f9016d09d72d40fdae2fd8ceac6b6234c7706214fd39c1cd1e609a0528c199300546001600160a01b0316610385565b34801561043d57600080fd5b506101aa61044c36600461173a565b61071d565b34801561045d57600080fd5b50600154610385906001600160a01b031681565b34801561047d57600080fd5b50603a54610385906001600160a01b031681565b34801561049d57600080fd5b506104c2604051806040016040528060058152602001640352e302e360dc1b81525081565b604051610208919061178c565b3480156104db57600080fd5b506101aa6104ea366004611585565b610750565b6101aa6104fd366004611808565b610870565b34801561050e57600080fd5b5061038561051d366004611711565b6039602052600090815260409020546001600160a01b031681565b34801561054457600080fd5b506101aa6105533660046118ee565b610a5f565b34801561056457600080fd5b506101aa610573366004611585565b610bb3565b34801561058457600080fd5b506101aa61059336600461195a565b610bdd565b3480156105a457600080fd5b506101aa6105b33660046119ba565b610c22565b3480156105c457600080fd5b506101aa6105d3366004611585565b610c74565b3480156105e457600080fd5b506101aa6105f3366004611585565b610c9e565b34801561060457600080fd5b506101aa6106133660046119fd565b610cdc565b610620610d17565b6001600160a01b03811661068b5760405162461bcd60e51b815260206004820152602760248201527f4f72646572426f7852656c617965723a207a65726f206f7264657220626f78206044820152666164647265737360c81b60648201526084015b60405180910390fd5b603a80546001600160a01b0319166001600160a01b0392909216919091179055565b6106b5610d17565b6106bd610d72565b565b6106c7610dd2565b6106d082610e77565b6106da8282610e7f565b5050565b60006106e8610f41565b50600080516020611b7c83398151915290565b610703610d17565b6106bd6000610f8a565b610715610d17565b6106bd610ffb565b610725610d17565b6001600160a01b03919091166000908152600460205260409020805460ff1916911515919091179055565b7ff0c57e16840df040f15088dc2f81fe391c3923bec73e23a9662efc9c229c6a008054600160401b810460ff16159067ffffffffffffffff166000811580156107965750825b905060008267ffffffffffffffff1660011480156107b35750303b155b9050811580156107c1575080155b156107df5760405163f92ee8a960e01b815260040160405180910390fd5b845467ffffffffffffffff19166001178555831561080957845460ff60401b1916600160401b1785555b610811611044565b61081a8661104c565b61082261105d565b831561086857845460ff60401b19168555604051600181527fc7f505b2f371ae2175ee4913f4499e1f2633a7b5936321eed1cdaeb6115181d29060200160405180910390a15b505050505050565b600061087c868661106d565b9050600061088a87876110ba565b9050600061089e61089b89896110dd565b90565b90506108ac338b84846110fd565b61090b5760405162461bcd60e51b815260206004820152602a60248201527f4f726465726c79426f783a20636f6d706f73654d73672073656e6465722063686044820152691958dac819985a5b195960b21b6064820152608401610682565b600080848060200190518101906109229190611a29565b915091506000600160009054906101000a90046001600160a01b03166001600160a01b031663fc0c546a6040518163ffffffff1660e01b8152600401602060405180830381865afa15801561097b573d6000803e3d6000fd5b505050506040513d601f19601f8201168201806040525081019061099f9190611a57565b603a549091506109bc906001600160a01b03808416911684611171565b603a546001600160a01b031663f79d919c6109e98763ffffffff1660009081526003602052604090205490565b6040516001600160e01b031960e084901b16815260048101919091526001600160a01b038616602482015260448101859052606401600060405180830381600087803b158015610a3857600080fd5b505af1158015610a4c573d6000803e3d6000fd5b5050505050505050505050505050505050565b610a67610d17565b828114610ac45760405162461bcd60e51b815260206004820152602560248201527f4f72646572426f7852656c617965723a20696e76616c696420696e707574206c6044820152640cadccee8d60db1b6064820152608401610682565b60005b83811015610bac57828282818110610ae157610ae1611a74565b9050602002016020810190610af69190611711565b60026000878785818110610b0c57610b0c611a74565b90506020020135815260200190815260200160002060006101000a81548163ffffffff021916908363ffffffff160217905550848482818110610b5157610b51611a74565b9050602002013560036000858585818110610b6e57610b6e611a74565b9050602002016020810190610b839190611711565b63ffffffff16815260208101919091526040016000205580610ba481611a8a565b915050610ac7565b5050505050565b610bbb610d17565b600080546001600160a01b0319166001600160a01b0392909216919091179055565b610be5610d17565b63ffffffff90921660009081526005602090815260408083206001600160a01b03909416835292905220805491151560ff19909216919091179055565b610c2a610d17565b6040805180820182526001600160801b039384168152918316602080840191825260ff909516600090815260069095529320905192518216600160801b0292909116919091179055565b610c7c610d17565b600180546001600160a01b0319166001600160a01b0392909216919091179055565b610ca6610d17565b6001600160a01b038116610cd057604051631e4fbdf760e01b815260006004820152602401610682565b610cd981610f8a565b50565b610ce4610d17565b6000828152600260209081526040808320805463ffffffff90951663ffffffff1990951685179055928252600390522055565b33610d497f9016d09d72d40fdae2fd8ceac6b6234c7706214fd39c1cd1e609a0528c199300546001600160a01b031690565b6001600160a01b0316146106bd5760405163118cdaa760e01b8152336004820152602401610682565b610d7a6111c3565b600080516020611b9c833981519152805460ff191681557f5db9ee0a495bf2e6ff9c91a7834c1ba4fdd244a5e8aa4e537bd38aeae4b073aa335b6040516001600160a01b03909116815260200160405180910390a150565b306001600160a01b037f0000000000000000000000000000000000000000000000000000000000000000161480610e5957507f00000000000000000000000000000000000000000000000000000000000000006001600160a01b0316610e4d600080516020611b7c833981519152546001600160a01b031690565b6001600160a01b031614155b156106bd5760405163703e46dd60e11b815260040160405180910390fd5b610cd9610d17565b816001600160a01b03166352d1902d6040518163ffffffff1660e01b8152600401602060405180830381865afa925050508015610ed9575060408051601f3d908101601f19168201909252610ed691810190611ab1565b60015b610f0157604051634c9c8ce360e01b81526001600160a01b0383166004820152602401610682565b600080516020611b7c8339815191528114610f3257604051632a87526960e21b815260048101829052602401610682565b610f3c83836111f3565b505050565b306001600160a01b037f000000000000000000000000000000000000000000000000000000000000000016146106bd5760405163703e46dd60e11b815260040160405180910390fd5b7f9016d09d72d40fdae2fd8ceac6b6234c7706214fd39c1cd1e609a0528c19930080546001600160a01b031981166001600160a01b03848116918217845560405192169182907f8be0079c531659141344cd1fd0a4f28419497f9722a3daafe3b4186f6b6457e090600090a3505050565b611003611249565b600080516020611b9c833981519152805460ff191660011781557f62e78cea01bee320cd4e420270b5ea74000d11b0c9f74754ebdbfc544b05a25833610db4565b6106bd61127a565b61105461127a565b610cd9816112c3565b61106561127a565b6106bd6112cb565b606061107c82604c8186611aca565b8080601f0160208091040260200160405190810160405280939291908181526020018383808284376000920191909152509293505050505b92915050565b60006110ca600c60088486611aca565b6110d391611af4565b60e01c9392505050565b60006110ed604c602c8486611aca565b6110f691611b24565b9392505050565b600080546001600160a01b03868116911614801561113357506001600160a01b03841660009081526004602052604090205460ff165b8015611168575063ffffffff831660009081526005602090815260408083206001600160a01b038616845290915290205460ff165b95945050505050565b604080516001600160a01b038416602482015260448082018490528251808303909101815260649091019091526020810180516001600160e01b031663a9059cbb60e01b179052610f3c9084906112ec565b600080516020611b9c8339815191525460ff166106bd57604051638dfc202b60e01b815260040160405180910390fd5b6111fc8261134f565b6040516001600160a01b038316907fbc7cd75a20ee27fd9adebab32041f755214dbc6bffa90cc0225b39da2e5c2d3b90600090a280511561124157610f3c82826113b4565b6106da611421565b600080516020611b9c8339815191525460ff16156106bd5760405163d93c066560e01b815260040160405180910390fd5b7ff0c57e16840df040f15088dc2f81fe391c3923bec73e23a9662efc9c229c6a0054600160401b900460ff166106bd57604051631afcd79f60e31b815260040160405180910390fd5b610ca661127a565b6112d361127a565b600080516020611b9c833981519152805460ff19169055565b60006113016001600160a01b03841683611440565b905080516000141580156113265750808060200190518101906113249190611b42565b155b15610f3c57604051635274afe760e01b81526001600160a01b0384166004820152602401610682565b806001600160a01b03163b60000361138557604051634c9c8ce360e01b81526001600160a01b0382166004820152602401610682565b600080516020611b7c83398151915280546001600160a01b0319166001600160a01b0392909216919091179055565b6060600080846001600160a01b0316846040516113d19190611b5f565b600060405180830381855af49150503d806000811461140c576040519150601f19603f3d011682016040523d82523d6000602084013e611411565b606091505b509150915061116885838361144e565b34156106bd5760405163b398979f60e01b815260040160405180910390fd5b60606110f6838360006114aa565b6060826114635761145e82611547565b6110f6565b815115801561147a57506001600160a01b0384163b155b156114a357604051639996b31560e01b81526001600160a01b0385166004820152602401610682565b5092915050565b6060814710156114cf5760405163cd78605960e01b8152306004820152602401610682565b600080856001600160a01b031684866040516114eb9190611b5f565b60006040518083038185875af1925050503d8060008114611528576040519150601f19603f3d011682016040523d82523d6000602084013e61152d565b606091505b509150915061153d86838361144e565b9695505050505050565b8051156115575780518082602001fd5b604051630a12f52160e11b815260040160405180910390fd5b6001600160a01b0381168114610cd957600080fd5b60006020828403121561159757600080fd5b81356110f681611570565b803560ff811681146115b357600080fd5b919050565b6000602082840312156115ca57600080fd5b6110f6826115a2565b803563ffffffff811681146115b357600080fd5b600080604083850312156115fa57600080fd5b611603836115d3565b9150602083013561161381611570565b809150509250929050565b60006020828403121561163057600080fd5b5035919050565b634e487b7160e01b600052604160045260246000fd5b6000806040838503121561166057600080fd5b823561166b81611570565b9150602083013567ffffffffffffffff8082111561168857600080fd5b818501915085601f83011261169c57600080fd5b8135818111156116ae576116ae611637565b604051601f8201601f19908116603f011681019083821181831017156116d6576116d6611637565b816040528281528860208487010111156116ef57600080fd5b8260208601602083013760006020848301015280955050505050509250929050565b60006020828403121561172357600080fd5b6110f6826115d3565b8015158114610cd957600080fd5b6000806040838503121561174d57600080fd5b823561175881611570565b915060208301356116138161172c565b60005b8381101561178357818101518382015260200161176b565b50506000910152565b60208152600082518060208401526117ab816040850160208701611768565b601f01601f19169190910160400192915050565b60008083601f8401126117d157600080fd5b50813567ffffffffffffffff8111156117e957600080fd5b60208301915083602082850101111561180157600080fd5b9250929050565b600080600080600080600060a0888a03121561182357600080fd5b873561182e81611570565b965060208801359550604088013567ffffffffffffffff8082111561185257600080fd5b61185e8b838c016117bf565b909750955060608a0135915061187382611570565b9093506080890135908082111561188957600080fd5b506118968a828b016117bf565b989b979a50959850939692959293505050565b60008083601f8401126118bb57600080fd5b50813567ffffffffffffffff8111156118d357600080fd5b6020830191508360208260051b850101111561180157600080fd5b6000806000806040858703121561190457600080fd5b843567ffffffffffffffff8082111561191c57600080fd5b611928888389016118a9565b9096509450602087013591508082111561194157600080fd5b5061194e878288016118a9565b95989497509550505050565b60008060006060848603121561196f57600080fd5b611978846115d3565b9250602084013561198881611570565b915060408401356119988161172c565b809150509250925092565b80356001600160801b03811681146115b357600080fd5b6000806000606084860312156119cf57600080fd5b6119d8846115a2565b92506119e6602085016119a3565b91506119f4604085016119a3565b90509250925092565b60008060408385031215611a1057600080fd5b82359150611a20602084016115d3565b90509250929050565b60008060408385031215611a3c57600080fd5b8251611a4781611570565b6020939093015192949293505050565b600060208284031215611a6957600080fd5b81516110f681611570565b634e487b7160e01b600052603260045260246000fd5b600060018201611aaa57634e487b7160e01b600052601160045260246000fd5b5060010190565b600060208284031215611ac357600080fd5b5051919050565b60008085851115611ada57600080fd5b83861115611ae757600080fd5b5050820193919092039150565b6001600160e01b03198135818116916004851015611b1c5780818660040360031b1b83161692505b505092915050565b803560208310156110b457600019602084900360031b1b1692915050565b600060208284031215611b5457600080fd5b81516110f68161172c565b60008251611b71818460208701611768565b919091019291505056fe360894a13ba1a3210667c828492db98dca3e2076cc3735a920a3ca505d382bbccd5ed15c6e187e77e9aee88184c21f4f2182ab5827cb3b7e07fbedcd63f03300a2646970667358221220adc6ce29568b94071864d468582fb7e0f0c5f3269ec2fb0f5c23fa83992ed48d64736f6c63430008140033",
  "devdoc": {
    "errors": {
      "AddressEmptyCode(address)": [
        {
          "details": "There's no code at `target` (it is not a contract)."
        }
      ],
      "AddressInsufficientBalance(address)": [
        {
          "details": "The ETH balance of the account is not enough to perform the operation."
        }
      ],
      "ERC1967InvalidImplementation(address)": [
        {
          "details": "The `implementation` of the proxy is invalid."
        }
      ],
      "ERC1967NonPayable()": [
        {
          "details": "An upgrade function sees `msg.value > 0` that may be lost."
        }
      ],
      "EnforcedPause()": [
        {
          "details": "The operation failed because the contract is paused."
        }
      ],
      "ExpectedPause()": [
        {
          "details": "The operation failed because the contract is not paused."
        }
      ],
      "FailedInnerCall()": [
        {
          "details": "A call to an address target failed. The target may have reverted."
        }
      ],
      "InvalidInitialization()": [
        {
          "details": "The contract is already initialized."
        }
      ],
      "NotInitializing()": [
        {
          "details": "The contract is not initializing."
        }
      ],
      "OwnableInvalidOwner(address)": [
        {
          "details": "The owner is not a valid owner account. (eg. `address(0)`)"
        }
      ],
      "OwnableUnauthorizedAccount(address)": [
        {
          "details": "The caller account is not authorized to perform an operation."
        }
      ],
      "SafeERC20FailedOperation(address)": [
        {
          "details": "An operation with an ERC20 token failed."
        }
      ],
      "UUPSUnauthorizedCallContext()": [
        {
          "details": "The call is from an unauthorized context."
        }
      ],
      "UUPSUnsupportedProxiableUUID(bytes32)": [
        {
          "details": "The storage `slot` is unsupported as a UUID."
        }
      ]
    },
    "events": {
      "Initialized(uint64)": {
        "details": "Triggered when the contract has been initialized or reinitialized."
      },
      "Paused(address)": {
        "details": "Emitted when the pause is triggered by `account`."
      },
      "Unpaused(address)": {
        "details": "Emitted when the pause is lifted by `account`."
      },
      "Upgraded(address)": {
        "details": "Emitted when the implementation is upgraded."
      }
    },
    "kind": "dev",
    "methods": {
      "lzCompose(address,bytes32,bytes,address,bytes)": {
        "params": {
          "_executor": "The address of the executor for the composed message.",
          "_extraData": "Additional arbitrary data in bytes passed by the entity who executes the lzCompose.",
          "_from": "The address initiating the composition, typically the OApp where the lzReceive was called.",
          "_guid": "The unique identifier for the corresponding LayerZero src/dst tx.",
          "_message": "The composed message payload in bytes. NOT necessarily the same payload passed via lzReceive."
        }
      },
      "owner()": {
        "details": "Returns the address of the current owner."
      },
      "paused()": {
        "details": "Returns true if the contract is paused, and false otherwise."
      },
      "proxiableUUID()": {
        "details": "Implementation of the ERC1822 {proxiableUUID} function. This returns the storage slot used by the implementation. It is used to validate the implementation's compatibility when performing an upgrade. IMPORTANT: A proxy pointing at a proxiable contract should not be considered proxiable itself, because this risks bricking a proxy that upgrades to it, by delegating to itself until out of gas. Thus it is critical that this function revert if invoked through a proxy. This is guaranteed by the `notDelegated` modifier."
      },
      "renounceOwnership()": {
        "details": "Leaves the contract without owner. It will not be possible to call `onlyOwner` functions. Can only be called by the current owner. NOTE: Renouncing ownership will leave the contract without an owner, thereby disabling any functionality that is only available to the owner."
      },
      "transferOwnership(address)": {
        "details": "Transfers ownership of the contract to a new account (`newOwner`). Can only be called by the current owner."
      },
      "upgradeToAndCall(address,bytes)": {
        "custom:oz-upgrades-unsafe-allow-reachable": "delegatecall",
        "details": "Upgrade the implementation of the proxy to `newImplementation`, and subsequently execute the function call encoded in `data`. Calls {_authorizeUpgrade}. Emits an {Upgraded} event."
      }
    },
    "version": 1
  },
  "userdoc": {
    "kind": "user",
    "methods": {
      "lzCompose(address,bytes32,bytes,address,bytes)": {
        "notice": "Composes a LayerZero message from an OApp."
      }
    },
    "version": 1
  },
  "storageLayout": {
    "storage": [
      {
        "astId": 10109,
        "contract": "contracts/crosschain/OrderBoxRelayer.sol:OrderBoxRelayer",
        "label": "endpoint",
        "offset": 0,
        "slot": "0",
        "type": "t_address"
      },
      {
        "astId": 10111,
        "contract": "contracts/crosschain/OrderBoxRelayer.sol:OrderBoxRelayer",
        "label": "oft",
        "offset": 0,
        "slot": "1",
        "type": "t_address"
      },
      {
        "astId": 10115,
        "contract": "contracts/crosschain/OrderBoxRelayer.sol:OrderBoxRelayer",
        "label": "eidMap",
        "offset": 0,
        "slot": "2",
        "type": "t_mapping(t_uint256,t_uint32)"
      },
      {
        "astId": 10119,
        "contract": "contracts/crosschain/OrderBoxRelayer.sol:OrderBoxRelayer",
        "label": "chainIdMap",
        "offset": 0,
        "slot": "3",
        "type": "t_mapping(t_uint32,t_uint256)"
      },
      {
        "astId": 10123,
        "contract": "contracts/crosschain/OrderBoxRelayer.sol:OrderBoxRelayer",
        "label": "localComposeMsgSender",
        "offset": 0,
        "slot": "4",
        "type": "t_mapping(t_address,t_bool)"
      },
      {
        "astId": 10129,
        "contract": "contracts/crosschain/OrderBoxRelayer.sol:OrderBoxRelayer",
        "label": "remoteComposeMsgSender",
        "offset": 0,
        "slot": "5",
        "type": "t_mapping(t_uint32,t_mapping(t_address,t_bool))"
      },
      {
        "astId": 10134,
        "contract": "contracts/crosschain/OrderBoxRelayer.sol:OrderBoxRelayer",
        "label": "optionsAirdrop",
        "offset": 0,
        "slot": "6",
        "type": "t_mapping(t_uint8,t_struct(OptionsAirdrop)9991_storage)"
      },
      {
        "astId": 10138,
        "contract": "contracts/crosschain/OrderBoxRelayer.sol:OrderBoxRelayer",
        "label": "_gap",
        "offset": 0,
        "slot": "7",
        "type": "t_array(t_uint256)50_storage"
      },
      {
        "astId": 10096,
        "contract": "contracts/crosschain/OrderBoxRelayer.sol:OrderBoxRelayer",
        "label": "orderSafe",
        "offset": 0,
        "slot": "57",
        "type": "t_mapping(t_uint32,t_address)"
      },
      {
        "astId": 10098,
        "contract": "contracts/crosschain/OrderBoxRelayer.sol:OrderBoxRelayer",
        "label": "orderBox",
        "offset": 0,
        "slot": "58",
        "type": "t_address"
      },
      {
        "astId": 10102,
        "contract": "contracts/crosschain/OrderBoxRelayer.sol:OrderBoxRelayer",
        "label": "_gap",
        "offset": 0,
        "slot": "59",
        "type": "t_array(t_uint256)50_storage"
      }
    ],
    "types": {
      "t_address": {
        "encoding": "inplace",
        "label": "address",
        "numberOfBytes": "20"
      },
      "t_array(t_uint256)50_storage": {
        "base": "t_uint256",
        "encoding": "inplace",
        "label": "uint256[50]",
        "numberOfBytes": "1600"
      },
      "t_bool": {
        "encoding": "inplace",
        "label": "bool",
        "numberOfBytes": "1"
      },
      "t_mapping(t_address,t_bool)": {
        "encoding": "mapping",
        "key": "t_address",
        "label": "mapping(address => bool)",
        "numberOfBytes": "32",
        "value": "t_bool"
      },
      "t_mapping(t_uint256,t_uint32)": {
        "encoding": "mapping",
        "key": "t_uint256",
        "label": "mapping(uint256 => uint32)",
        "numberOfBytes": "32",
        "value": "t_uint32"
      },
      "t_mapping(t_uint32,t_address)": {
        "encoding": "mapping",
        "key": "t_uint32",
        "label": "mapping(uint32 => address)",
        "numberOfBytes": "32",
        "value": "t_address"
      },
      "t_mapping(t_uint32,t_mapping(t_address,t_bool))": {
        "encoding": "mapping",
        "key": "t_uint32",
        "label": "mapping(uint32 => mapping(address => bool))",
        "numberOfBytes": "32",
        "value": "t_mapping(t_address,t_bool)"
      },
      "t_mapping(t_uint32,t_uint256)": {
        "encoding": "mapping",
        "key": "t_uint32",
        "label": "mapping(uint32 => uint256)",
        "numberOfBytes": "32",
        "value": "t_uint256"
      },
      "t_mapping(t_uint8,t_struct(OptionsAirdrop)9991_storage)": {
        "encoding": "mapping",
        "key": "t_uint8",
        "label": "mapping(uint8 => struct OptionsAirdrop)",
        "numberOfBytes": "32",
        "value": "t_struct(OptionsAirdrop)9991_storage"
      },
      "t_struct(OptionsAirdrop)9991_storage": {
        "encoding": "inplace",
        "label": "struct OptionsAirdrop",
        "members": [
          {
            "astId": 9988,
            "contract": "contracts/crosschain/OrderBoxRelayer.sol:OrderBoxRelayer",
            "label": "gas",
            "offset": 0,
            "slot": "0",
            "type": "t_uint128"
          },
          {
            "astId": 9990,
            "contract": "contracts/crosschain/OrderBoxRelayer.sol:OrderBoxRelayer",
            "label": "value",
            "offset": 16,
            "slot": "0",
            "type": "t_uint128"
          }
        ],
        "numberOfBytes": "32"
      },
      "t_uint128": {
        "encoding": "inplace",
        "label": "uint128",
        "numberOfBytes": "16"
      },
      "t_uint256": {
        "encoding": "inplace",
        "label": "uint256",
        "numberOfBytes": "32"
      },
      "t_uint32": {
        "encoding": "inplace",
        "label": "uint32",
        "numberOfBytes": "4"
      },
      "t_uint8": {
        "encoding": "inplace",
        "label": "uint8",
        "numberOfBytes": "1"
      }
    }
  }
}