{
  "address": "0xb0DdbA6935Bc2dCfFBB04df1c63B06Db4EF1B297",
  "abi": [
    {
      "inputs": [
        {
          "internalType": "address",
          "name": "target",
          "type": "address"
        }
      ],
      "name": "AddressEmptyCode",
      "type": "error"
    },
    {
      "inputs": [
        {
          "internalType": "address",
          "name": "account",
          "type": "address"
        }
      ],
      "name": "AddressInsufficientBalance",
      "type": "error"
    },
    {
      "inputs": [
        {
          "internalType": "address",
          "name": "implementation",
          "type": "address"
        }
      ],
      "name": "ERC1967InvalidImplementation",
      "type": "error"
    },
    {
      "inputs": [],
      "name": "ERC1967NonPayable",
      "type": "error"
    },
    {
      "inputs": [],
      "name": "EnforcedPause",
      "type": "error"
    },
    {
      "inputs": [],
      "name": "ExpectedPause",
      "type": "error"
    },
    {
      "inputs": [],
      "name": "FailedInnerCall",
      "type": "error"
    },
    {
      "inputs": [],
      "name": "InvalidInitialization",
      "type": "error"
    },
    {
      "inputs": [
        {
          "internalType": "address",
          "name": "sender",
          "type": "address"
        }
      ],
      "name": "NotComposeMsgSender",
      "type": "error"
    },
    {
      "inputs": [],
      "name": "NotInitializing",
      "type": "error"
    },
    {
      "inputs": [
        {
          "internalType": "address",
          "name": "owner",
          "type": "address"
        }
      ],
      "name": "OwnableInvalidOwner",
      "type": "error"
    },
    {
      "inputs": [
        {
          "internalType": "address",
          "name": "account",
          "type": "address"
        }
      ],
      "name": "OwnableUnauthorizedAccount",
      "type": "error"
    },
    {
      "inputs": [
        {
          "internalType": "address",
          "name": "token",
          "type": "address"
        }
      ],
      "name": "SafeERC20FailedOperation",
      "type": "error"
    },
    {
      "inputs": [],
      "name": "UUPSUnauthorizedCallContext",
      "type": "error"
    },
    {
      "inputs": [
        {
          "internalType": "bytes32",
          "name": "slot",
          "type": "bytes32"
        }
      ],
      "name": "UUPSUnsupportedProxiableUUID",
      "type": "error"
    },
    {
      "anonymous": false,
      "inputs": [
        {
          "indexed": true,
          "internalType": "address",
          "name": "composeMsgSender",
          "type": "address"
        },
        {
          "indexed": false,
          "internalType": "bool",
          "name": "allowed",
          "type": "bool"
        }
      ],
      "name": "ComposeMsgSenderSet",
      "type": "event"
    },
    {
      "anonymous": false,
      "inputs": [
        {
          "indexed": true,
          "internalType": "uint256",
          "name": "chainId",
          "type": "uint256"
        },
        {
          "indexed": false,
          "internalType": "uint32",
          "name": "eid",
          "type": "uint32"
        }
      ],
      "name": "EidSet",
      "type": "event"
    },
    {
      "anonymous": false,
      "inputs": [
        {
          "indexed": true,
          "internalType": "address",
          "name": "endpoint",
          "type": "address"
        }
      ],
      "name": "EndpointSet",
      "type": "event"
    },
    {
      "anonymous": false,
      "inputs": [
        {
          "indexed": false,
          "internalType": "uint64",
          "name": "version",
          "type": "uint64"
        }
      ],
      "name": "Initialized",
      "type": "event"
    },
    {
      "anonymous": false,
      "inputs": [
        {
          "indexed": true,
          "internalType": "address",
          "name": "oft",
          "type": "address"
        }
      ],
      "name": "OftSet",
      "type": "event"
    },
    {
      "anonymous": false,
      "inputs": [
        {
          "indexed": true,
          "internalType": "address",
          "name": "previousOwner",
          "type": "address"
        },
        {
          "indexed": true,
          "internalType": "address",
          "name": "newOwner",
          "type": "address"
        }
      ],
      "name": "OwnershipTransferred",
      "type": "event"
    },
    {
      "anonymous": false,
      "inputs": [
        {
          "indexed": false,
          "internalType": "address",
          "name": "account",
          "type": "address"
        }
      ],
      "name": "Paused",
      "type": "event"
    },
    {
      "anonymous": false,
      "inputs": [
        {
          "indexed": false,
          "internalType": "address",
          "name": "account",
          "type": "address"
        }
      ],
      "name": "Unpaused",
      "type": "event"
    },
    {
      "anonymous": false,
      "inputs": [
        {
          "indexed": true,
          "internalType": "address",
          "name": "implementation",
          "type": "address"
        }
      ],
      "name": "Upgraded",
      "type": "event"
    },
    {
      "inputs": [],
      "name": "UPGRADE_INTERFACE_VERSION",
      "outputs": [
        {
          "internalType": "string",
          "name": "",
          "type": "string"
        }
      ],
      "stateMutability": "view",
      "type": "function"
    },
    {
      "inputs": [
        {
          "internalType": "uint32",
          "name": "",
          "type": "uint32"
        }
      ],
      "name": "chainIdMap",
      "outputs": [
        {
          "internalType": "uint256",
          "name": "",
          "type": "uint256"
        }
      ],
      "stateMutability": "view",
      "type": "function"
    },
    {
      "inputs": [
        {
          "internalType": "uint256",
          "name": "",
          "type": "uint256"
        }
      ],
      "name": "eidMap",
      "outputs": [
        {
          "internalType": "uint32",
          "name": "",
          "type": "uint32"
        }
      ],
      "stateMutability": "view",
      "type": "function"
    },
    {
      "inputs": [],
      "name": "endpoint",
      "outputs": [
        {
          "internalType": "address",
          "name": "",
          "type": "address"
        }
      ],
      "stateMutability": "view",
      "type": "function"
    },
    {
      "inputs": [
        {
          "internalType": "address",
          "name": "_owner",
          "type": "address"
        }
      ],
      "name": "initialize",
      "outputs": [],
      "stateMutability": "nonpayable",
      "type": "function"
    },
    {
      "inputs": [
        {
          "internalType": "address",
          "name": "",
          "type": "address"
        }
      ],
      "name": "localComposeMsgSender",
      "outputs": [
        {
          "internalType": "bool",
          "name": "",
          "type": "bool"
        }
      ],
      "stateMutability": "view",
      "type": "function"
    },
    {
      "inputs": [
        {
          "internalType": "address",
          "name": "_from",
          "type": "address"
        },
        {
          "internalType": "bytes32",
          "name": "_guid",
          "type": "bytes32"
        },
        {
          "internalType": "bytes",
          "name": "_message",
          "type": "bytes"
        },
        {
          "internalType": "address",
          "name": "_executor",
          "type": "address"
        },
        {
          "internalType": "bytes",
          "name": "_extraData",
          "type": "bytes"
        }
      ],
      "name": "lzCompose",
      "outputs": [],
      "stateMutability": "payable",
      "type": "function"
    },
    {
      "inputs": [],
      "name": "oft",
      "outputs": [
        {
          "internalType": "address",
          "name": "",
          "type": "address"
        }
      ],
      "stateMutability": "view",
      "type": "function"
    },
    {
      "inputs": [
        {
          "internalType": "uint8",
          "name": "",
          "type": "uint8"
        }
      ],
      "name": "optionsGasLimit",
      "outputs": [
        {
          "internalType": "uint256",
          "name": "",
          "type": "uint256"
        }
      ],
      "stateMutability": "view",
      "type": "function"
    },
    {
      "inputs": [],
      "name": "orderBox",
      "outputs": [
        {
          "internalType": "address",
          "name": "",
          "type": "address"
        }
      ],
      "stateMutability": "view",
      "type": "function"
    },
    {
      "inputs": [
        {
          "internalType": "uint32",
          "name": "",
          "type": "uint32"
        }
      ],
      "name": "orderSafe",
      "outputs": [
        {
          "internalType": "address",
          "name": "",
          "type": "address"
        }
      ],
      "stateMutability": "view",
      "type": "function"
    },
    {
      "inputs": [],
      "name": "owner",
      "outputs": [
        {
          "internalType": "address",
          "name": "",
          "type": "address"
        }
      ],
      "stateMutability": "view",
      "type": "function"
    },
    {
      "inputs": [],
      "name": "pause",
      "outputs": [],
      "stateMutability": "nonpayable",
      "type": "function"
    },
    {
      "inputs": [],
      "name": "paused",
      "outputs": [
        {
          "internalType": "bool",
          "name": "",
          "type": "bool"
        }
      ],
      "stateMutability": "view",
      "type": "function"
    },
    {
      "inputs": [],
      "name": "proxiableUUID",
      "outputs": [
        {
          "internalType": "bytes32",
          "name": "",
          "type": "bytes32"
        }
      ],
      "stateMutability": "view",
      "type": "function"
    },
    {
      "inputs": [
        {
          "internalType": "uint32",
          "name": "",
          "type": "uint32"
        },
        {
          "internalType": "address",
          "name": "",
          "type": "address"
        }
      ],
      "name": "remoteComposeMsgSender",
      "outputs": [
        {
          "internalType": "bool",
          "name": "",
          "type": "bool"
        }
      ],
      "stateMutability": "view",
      "type": "function"
    },
    {
      "inputs": [],
      "name": "renounceOwnership",
      "outputs": [],
      "stateMutability": "nonpayable",
      "type": "function"
    },
    {
      "inputs": [
        {
          "internalType": "uint256",
          "name": "_chainId",
          "type": "uint256"
        },
        {
          "internalType": "uint32",
          "name": "_eid",
          "type": "uint32"
        }
      ],
      "name": "setEid",
      "outputs": [],
      "stateMutability": "nonpayable",
      "type": "function"
    },
    {
      "inputs": [
        {
          "internalType": "uint256[]",
          "name": "_chainIds",
          "type": "uint256[]"
        },
        {
          "internalType": "uint32[]",
          "name": "_eids",
          "type": "uint32[]"
        }
      ],
      "name": "setEids",
      "outputs": [],
      "stateMutability": "nonpayable",
      "type": "function"
    },
    {
      "inputs": [
        {
          "internalType": "address",
          "name": "_endpoint",
          "type": "address"
        }
      ],
      "name": "setEndpoint",
      "outputs": [],
      "stateMutability": "nonpayable",
      "type": "function"
    },
    {
      "inputs": [
        {
          "internalType": "address",
          "name": "_addr",
          "type": "address"
        },
        {
          "internalType": "bool",
          "name": "_allowed",
          "type": "bool"
        }
      ],
      "name": "setLocalComposeMsgSender",
      "outputs": [],
      "stateMutability": "nonpayable",
      "type": "function"
    },
    {
      "inputs": [
        {
          "internalType": "address",
          "name": "_oft",
          "type": "address"
        }
      ],
      "name": "setOft",
      "outputs": [],
      "stateMutability": "nonpayable",
      "type": "function"
    },
    {
      "inputs": [
        {
          "internalType": "address",
          "name": "_orderBox",
          "type": "address"
        }
      ],
      "name": "setOrderBox",
      "outputs": [],
      "stateMutability": "nonpayable",
      "type": "function"
    },
    {
      "inputs": [
        {
          "internalType": "uint32",
          "name": "_eid",
          "type": "uint32"
        },
        {
          "internalType": "address",
          "name": "_addr",
          "type": "address"
        },
        {
          "internalType": "bool",
          "name": "_allowed",
          "type": "bool"
        }
      ],
      "name": "setRemoteComposeMsgSender",
      "outputs": [],
      "stateMutability": "nonpayable",
      "type": "function"
    },
    {
      "inputs": [
        {
          "internalType": "address",
          "name": "newOwner",
          "type": "address"
        }
      ],
      "name": "transferOwnership",
      "outputs": [],
      "stateMutability": "nonpayable",
      "type": "function"
    },
    {
      "inputs": [],
      "name": "unpause",
      "outputs": [],
      "stateMutability": "nonpayable",
      "type": "function"
    },
    {
      "inputs": [
        {
          "internalType": "address",
          "name": "newImplementation",
          "type": "address"
        },
        {
          "internalType": "bytes",
          "name": "data",
          "type": "bytes"
        }
      ],
      "name": "upgradeToAndCall",
      "outputs": [],
      "stateMutability": "payable",
      "type": "function"
    }
  ],
  "transactionHash": "0x739e2e4b65a26822e27c2fd0aa271ec3c6ff6b677060bb17dd0ae77476fedf1e",
  "args": [],
  "numDeployments": 2,
  "solcInputHash": "8b7c31d0b2739f476c44af4e29035796",
  "bytecode": "0x60a06040523060805234801561001457600080fd5b50608051611b9d61003e60003960008181610e5701528181610e800152610fc60152611b9d6000f3fe60806040526004361061019c5760003560e01c80638da5cb5b116100ec578063d229915a1161008a578063dc9e80a411610064578063dc9e80a41461053b578063f29e8d2c1461055b578063f2fde38b1461057b578063fe8e9c1f1461059b57600080fd5b8063d229915a146104c5578063d2fe4197146104fb578063dbbb41551461051b57600080fd5b8063a5c5ff7e116100c6578063a5c5ff7e14610434578063ad3cb1cc14610454578063c4d66de814610492578063d0a10260146104b257600080fd5b80638da5cb5b146103b757806395b410e4146103f45780639b5215f61461041457600080fd5b806352d1902d11610159578063715018a611610133578063715018a6146103335780637c6b43c7146103485780638456cb591461037557806387d5b1c61461038a57600080fd5b806352d1902d146102b35780635c975abb146102d65780635e280f11146102fb57600080fd5b806303a3b7b3146101a15780630cff4e06146101c357806332c35254146102085780633f4ba83a146102435780634a9379d9146102585780634f1ef286146102a0575b600080fd5b3480156101ad57600080fd5b506101c16101bc366004611594565b6105bb565b005b3480156101cf57600080fd5b506101f36101de366004611594565b60046020526000908152604090205460ff1681565b60405190151581526020015b60405180910390f35b34801561021457600080fd5b506101f36102233660046115ca565b600560209081526000928352604080842090915290825290205460ff1681565b34801561024f57600080fd5b506101c1610650565b34801561026457600080fd5b5061028b610273366004611601565b60026020526000908152604090205463ffffffff1681565b60405163ffffffff90911681526020016101ff565b6101c16102ae366004611630565b610662565b3480156102bf57600080fd5b506102c8610681565b6040519081526020016101ff565b3480156102e257600080fd5b50600080516020611b488339815191525460ff166101f3565b34801561030757600080fd5b5060005461031b906001600160a01b031681565b6040516001600160a01b0390911681526020016101ff565b34801561033f57600080fd5b506101c161069e565b34801561035457600080fd5b506102c86103633660046116f4565b60066020526000908152604090205481565b34801561038157600080fd5b506101c16106b0565b34801561039657600080fd5b506102c86103a5366004611717565b60036020526000908152604090205481565b3480156103c357600080fd5b507f9016d09d72d40fdae2fd8ceac6b6234c7706214fd39c1cd1e609a0528c199300546001600160a01b031661031b565b34801561040057600080fd5b506101c161040f366004611740565b6106c0565b34801561042057600080fd5b5060015461031b906001600160a01b031681565b34801561044057600080fd5b50603a5461031b906001600160a01b031681565b34801561046057600080fd5b50610485604051806040016040528060058152602001640352e302e360dc1b81525081565b6040516101ff9190611792565b34801561049e57600080fd5b506101c16104ad366004611594565b6106f3565b6101c16104c036600461180e565b610813565b3480156104d157600080fd5b5061031b6104e0366004611717565b6039602052600090815260409020546001600160a01b031681565b34801561050757600080fd5b506101c16105163660046118f4565b610b2b565b34801561052757600080fd5b506101c1610536366004611594565b610c7f565b34801561054757600080fd5b506101c1610556366004611960565b610ca9565b34801561056757600080fd5b506101c1610576366004611594565b610cee565b34801561058757600080fd5b506101c1610596366004611594565b610d18565b3480156105a757600080fd5b506101c16105b63660046119a9565b610d56565b6105c3610d91565b6001600160a01b03811661062e5760405162461bcd60e51b815260206004820152602760248201527f4f72646572426f7852656c617965723a207a65726f206f7264657220626f78206044820152666164647265737360c81b60648201526084015b60405180910390fd5b603a80546001600160a01b0319166001600160a01b0392909216919091179055565b610658610d91565b610660610dec565b565b61066a610e4c565b61067382610ef1565b61067d8282610ef9565b5050565b600061068b610fbb565b50600080516020611b2883398151915290565b6106a6610d91565b6106606000611004565b6106b8610d91565b610660611075565b6106c8610d91565b6001600160a01b03919091166000908152600460205260409020805460ff1916911515919091179055565b7ff0c57e16840df040f15088dc2f81fe391c3923bec73e23a9662efc9c229c6a008054600160401b810460ff16159067ffffffffffffffff166000811580156107395750825b905060008267ffffffffffffffff1660011480156107565750303b155b905081158015610764575080155b156107825760405163f92ee8a960e01b815260040160405180910390fd5b845467ffffffffffffffff1916600117855583156107ac57845460ff60401b1916600160401b1785555b6107b46110be565b6107bd866110c6565b6107c56110d7565b831561080b57845460ff60401b19168555604051600181527fc7f505b2f371ae2175ee4913f4499e1f2633a7b5936321eed1cdaeb6115181d29060200160405180910390a15b505050505050565b6000546001600160a01b031633146108865760405162461bcd60e51b815260206004820152603060248201527f4f726465726c79426f783a206f6e6c7920656e64706f696e742063616e20636160448201526f3636103a3434b990333ab731ba34b7b760811b6064820152608401610625565b6001600160a01b03871660009081526004602052604090205460ff1661091f5760405162461bcd60e51b815260206004820152604260248201527f4f726465726c79426f783a206f6e6c7920616c6c6f77656420636f6d706f736560448201527f722063616e2073656e64206d736720746f2072656c6179657220636f6e74726160648201526118dd60f21b608482015260a401610625565b600061092b86866110e7565b9050600061093f61093c8888611134565b90565b9050600061094d8888611154565b63ffffffff811660009081526005602090815260408083206001600160a01b038716845290915290205490915060ff166109d75760405162461bcd60e51b815260206004820152602560248201527f4f726465726c79426f783a2072656d6f74652073656e646572206e6f7420616c6044820152641b1bddd95960da1b6064820152608401610625565b600080848060200190518101906109ee91906119d5565b915091506000600160009054906101000a90046001600160a01b03166001600160a01b031663fc0c546a6040518163ffffffff1660e01b8152600401602060405180830381865afa158015610a47573d6000803e3d6000fd5b505050506040513d601f19601f82011682018060405250810190610a6b9190611a03565b603a54909150610a88906001600160a01b03808416911684611177565b603a546001600160a01b031663f79d919c610ab58663ffffffff1660009081526003602052604090205490565b6040516001600160e01b031960e084901b16815260048101919091526001600160a01b038616602482015260448101859052606401600060405180830381600087803b158015610b0457600080fd5b505af1158015610b18573d6000803e3d6000fd5b5050505050505050505050505050505050565b610b33610d91565b828114610b905760405162461bcd60e51b815260206004820152602560248201527f4f72646572426f7852656c617965723a20696e76616c696420696e707574206c6044820152640cadccee8d60db1b6064820152608401610625565b60005b83811015610c7857828282818110610bad57610bad611a20565b9050602002016020810190610bc29190611717565b60026000878785818110610bd857610bd8611a20565b90506020020135815260200190815260200160002060006101000a81548163ffffffff021916908363ffffffff160217905550848482818110610c1d57610c1d611a20565b9050602002013560036000858585818110610c3a57610c3a611a20565b9050602002016020810190610c4f9190611717565b63ffffffff16815260208101919091526040016000205580610c7081611a36565b915050610b93565b5050505050565b610c87610d91565b600080546001600160a01b0319166001600160a01b0392909216919091179055565b610cb1610d91565b63ffffffff90921660009081526005602090815260408083206001600160a01b03909416835292905220805491151560ff19909216919091179055565b610cf6610d91565b600180546001600160a01b0319166001600160a01b0392909216919091179055565b610d20610d91565b6001600160a01b038116610d4a57604051631e4fbdf760e01b815260006004820152602401610625565b610d5381611004565b50565b610d5e610d91565b6000828152600260209081526040808320805463ffffffff90951663ffffffff1990951685179055928252600390522055565b33610dc37f9016d09d72d40fdae2fd8ceac6b6234c7706214fd39c1cd1e609a0528c199300546001600160a01b031690565b6001600160a01b0316146106605760405163118cdaa760e01b8152336004820152602401610625565b610df46111c9565b600080516020611b48833981519152805460ff191681557f5db9ee0a495bf2e6ff9c91a7834c1ba4fdd244a5e8aa4e537bd38aeae4b073aa335b6040516001600160a01b03909116815260200160405180910390a150565b306001600160a01b037f0000000000000000000000000000000000000000000000000000000000000000161480610ed357507f00000000000000000000000000000000000000000000000000000000000000006001600160a01b0316610ec7600080516020611b28833981519152546001600160a01b031690565b6001600160a01b031614155b156106605760405163703e46dd60e11b815260040160405180910390fd5b610d53610d91565b816001600160a01b03166352d1902d6040518163ffffffff1660e01b8152600401602060405180830381865afa925050508015610f53575060408051601f3d908101601f19168201909252610f5091810190611a5d565b60015b610f7b57604051634c9c8ce360e01b81526001600160a01b0383166004820152602401610625565b600080516020611b288339815191528114610fac57604051632a87526960e21b815260048101829052602401610625565b610fb683836111f9565b505050565b306001600160a01b037f000000000000000000000000000000000000000000000000000000000000000016146106605760405163703e46dd60e11b815260040160405180910390fd5b7f9016d09d72d40fdae2fd8ceac6b6234c7706214fd39c1cd1e609a0528c19930080546001600160a01b031981166001600160a01b03848116918217845560405192169182907f8be0079c531659141344cd1fd0a4f28419497f9722a3daafe3b4186f6b6457e090600090a3505050565b61107d61124f565b600080516020611b48833981519152805460ff191660011781557f62e78cea01bee320cd4e420270b5ea74000d11b0c9f74754ebdbfc544b05a25833610e2e565b610660611280565b6110ce611280565b610d53816112c9565b6110df611280565b6106606112d1565b60606110f682604c8186611a76565b8080601f0160208091040260200160405190810160405280939291908181526020018383808284376000920191909152509293505050505b92915050565b6000611144604c602c8486611a76565b61114d91611aa0565b9392505050565b6000611164600c60088486611a76565b61116d91611abe565b60e01c9392505050565b604080516001600160a01b038416602482015260448082018490528251808303909101815260649091019091526020810180516001600160e01b031663a9059cbb60e01b179052610fb69084906112f2565b600080516020611b488339815191525460ff1661066057604051638dfc202b60e01b815260040160405180910390fd5b61120282611355565b6040516001600160a01b038316907fbc7cd75a20ee27fd9adebab32041f755214dbc6bffa90cc0225b39da2e5c2d3b90600090a280511561124757610fb682826113ba565b61067d611430565b600080516020611b488339815191525460ff16156106605760405163d93c066560e01b815260040160405180910390fd5b7ff0c57e16840df040f15088dc2f81fe391c3923bec73e23a9662efc9c229c6a0054600160401b900460ff1661066057604051631afcd79f60e31b815260040160405180910390fd5b610d20611280565b6112d9611280565b600080516020611b48833981519152805460ff19169055565b60006113076001600160a01b0384168361144f565b9050805160001415801561132c57508080602001905181019061132a9190611aee565b155b15610fb657604051635274afe760e01b81526001600160a01b0384166004820152602401610625565b806001600160a01b03163b60000361138b57604051634c9c8ce360e01b81526001600160a01b0382166004820152602401610625565b600080516020611b2883398151915280546001600160a01b0319166001600160a01b0392909216919091179055565b6060600080846001600160a01b0316846040516113d79190611b0b565b600060405180830381855af49150503d8060008114611412576040519150601f19603f3d011682016040523d82523d6000602084013e611417565b606091505b509150915061142785838361145d565b95945050505050565b34156106605760405163b398979f60e01b815260040160405180910390fd5b606061114d838360006114b9565b6060826114725761146d82611556565b61114d565b815115801561148957506001600160a01b0384163b155b156114b257604051639996b31560e01b81526001600160a01b0385166004820152602401610625565b5092915050565b6060814710156114de5760405163cd78605960e01b8152306004820152602401610625565b600080856001600160a01b031684866040516114fa9190611b0b565b60006040518083038185875af1925050503d8060008114611537576040519150601f19603f3d011682016040523d82523d6000602084013e61153c565b606091505b509150915061154c86838361145d565b9695505050505050565b8051156115665780518082602001fd5b604051630a12f52160e11b815260040160405180910390fd5b6001600160a01b0381168114610d5357600080fd5b6000602082840312156115a657600080fd5b813561114d8161157f565b803563ffffffff811681146115c557600080fd5b919050565b600080604083850312156115dd57600080fd5b6115e6836115b1565b915060208301356115f68161157f565b809150509250929050565b60006020828403121561161357600080fd5b5035919050565b634e487b7160e01b600052604160045260246000fd5b6000806040838503121561164357600080fd5b823561164e8161157f565b9150602083013567ffffffffffffffff8082111561166b57600080fd5b818501915085601f83011261167f57600080fd5b8135818111156116915761169161161a565b604051601f8201601f19908116603f011681019083821181831017156116b9576116b961161a565b816040528281528860208487010111156116d257600080fd5b8260208601602083013760006020848301015280955050505050509250929050565b60006020828403121561170657600080fd5b813560ff8116811461114d57600080fd5b60006020828403121561172957600080fd5b61114d826115b1565b8015158114610d5357600080fd5b6000806040838503121561175357600080fd5b823561175e8161157f565b915060208301356115f681611732565b60005b83811015611789578181015183820152602001611771565b50506000910152565b60208152600082518060208401526117b181604085016020870161176e565b601f01601f19169190910160400192915050565b60008083601f8401126117d757600080fd5b50813567ffffffffffffffff8111156117ef57600080fd5b60208301915083602082850101111561180757600080fd5b9250929050565b600080600080600080600060a0888a03121561182957600080fd5b87356118348161157f565b965060208801359550604088013567ffffffffffffffff8082111561185857600080fd5b6118648b838c016117c5565b909750955060608a013591506118798261157f565b9093506080890135908082111561188f57600080fd5b5061189c8a828b016117c5565b989b979a50959850939692959293505050565b60008083601f8401126118c157600080fd5b50813567ffffffffffffffff8111156118d957600080fd5b6020830191508360208260051b850101111561180757600080fd5b6000806000806040858703121561190a57600080fd5b843567ffffffffffffffff8082111561192257600080fd5b61192e888389016118af565b9096509450602087013591508082111561194757600080fd5b50611954878288016118af565b95989497509550505050565b60008060006060848603121561197557600080fd5b61197e846115b1565b9250602084013561198e8161157f565b9150604084013561199e81611732565b809150509250925092565b600080604083850312156119bc57600080fd5b823591506119cc602084016115b1565b90509250929050565b600080604083850312156119e857600080fd5b82516119f38161157f565b6020939093015192949293505050565b600060208284031215611a1557600080fd5b815161114d8161157f565b634e487b7160e01b600052603260045260246000fd5b600060018201611a5657634e487b7160e01b600052601160045260246000fd5b5060010190565b600060208284031215611a6f57600080fd5b5051919050565b60008085851115611a8657600080fd5b83861115611a9357600080fd5b5050820193919092039150565b8035602083101561112e57600019602084900360031b1b1692915050565b6001600160e01b03198135818116916004851015611ae65780818660040360031b1b83161692505b505092915050565b600060208284031215611b0057600080fd5b815161114d81611732565b60008251611b1d81846020870161176e565b919091019291505056fe360894a13ba1a3210667c828492db98dca3e2076cc3735a920a3ca505d382bbccd5ed15c6e187e77e9aee88184c21f4f2182ab5827cb3b7e07fbedcd63f03300a26469706673582212208e7f8bcc6c6e3d6193822583de33e4872a3ba5681ceba8f70b801a6aba05fd4864736f6c63430008140033",
  "devdoc": {
    "errors": {
      "AddressEmptyCode(address)": [
        {
          "details": "There's no code at `target` (it is not a contract)."
        }
      ],
      "AddressInsufficientBalance(address)": [
        {
          "details": "The ETH balance of the account is not enough to perform the operation."
        }
      ],
      "ERC1967InvalidImplementation(address)": [
        {
          "details": "The `implementation` of the proxy is invalid."
        }
      ],
      "ERC1967NonPayable()": [
        {
          "details": "An upgrade function sees `msg.value > 0` that may be lost."
        }
      ],
      "EnforcedPause()": [
        {
          "details": "The operation failed because the contract is paused."
        }
      ],
      "ExpectedPause()": [
        {
          "details": "The operation failed because the contract is not paused."
        }
      ],
      "FailedInnerCall()": [
        {
          "details": "A call to an address target failed. The target may have reverted."
        }
      ],
      "InvalidInitialization()": [
        {
          "details": "The contract is already initialized."
        }
      ],
      "NotInitializing()": [
        {
          "details": "The contract is not initializing."
        }
      ],
      "OwnableInvalidOwner(address)": [
        {
          "details": "The owner is not a valid owner account. (eg. `address(0)`)"
        }
      ],
      "OwnableUnauthorizedAccount(address)": [
        {
          "details": "The caller account is not authorized to perform an operation."
        }
      ],
      "SafeERC20FailedOperation(address)": [
        {
          "details": "An operation with an ERC20 token failed."
        }
      ],
      "UUPSUnauthorizedCallContext()": [
        {
          "details": "The call is from an unauthorized context."
        }
      ],
      "UUPSUnsupportedProxiableUUID(bytes32)": [
        {
          "details": "The storage `slot` is unsupported as a UUID."
        }
      ]
    },
    "events": {
      "Initialized(uint64)": {
        "details": "Triggered when the contract has been initialized or reinitialized."
      },
      "Paused(address)": {
        "details": "Emitted when the pause is triggered by `account`."
      },
      "Unpaused(address)": {
        "details": "Emitted when the pause is lifted by `account`."
      },
      "Upgraded(address)": {
        "details": "Emitted when the implementation is upgraded."
      }
    },
    "kind": "dev",
    "methods": {
      "lzCompose(address,bytes32,bytes,address,bytes)": {
        "params": {
          "_executor": "The address of the executor for the composed message.",
          "_extraData": "Additional arbitrary data in bytes passed by the entity who executes the lzCompose.",
          "_from": "The address initiating the composition, typically the OApp where the lzReceive was called.",
          "_guid": "The unique identifier for the corresponding LayerZero src/dst tx.",
          "_message": "The composed message payload in bytes. NOT necessarily the same payload passed via lzReceive."
        }
      },
      "owner()": {
        "details": "Returns the address of the current owner."
      },
      "paused()": {
        "details": "Returns true if the contract is paused, and false otherwise."
      },
      "proxiableUUID()": {
        "details": "Implementation of the ERC1822 {proxiableUUID} function. This returns the storage slot used by the implementation. It is used to validate the implementation's compatibility when performing an upgrade. IMPORTANT: A proxy pointing at a proxiable contract should not be considered proxiable itself, because this risks bricking a proxy that upgrades to it, by delegating to itself until out of gas. Thus it is critical that this function revert if invoked through a proxy. This is guaranteed by the `notDelegated` modifier."
      },
      "renounceOwnership()": {
        "details": "Leaves the contract without owner. It will not be possible to call `onlyOwner` functions. Can only be called by the current owner. NOTE: Renouncing ownership will leave the contract without an owner, thereby disabling any functionality that is only available to the owner."
      },
      "transferOwnership(address)": {
        "details": "Transfers ownership of the contract to a new account (`newOwner`). Can only be called by the current owner."
      },
      "upgradeToAndCall(address,bytes)": {
        "custom:oz-upgrades-unsafe-allow-reachable": "delegatecall",
        "details": "Upgrade the implementation of the proxy to `newImplementation`, and subsequently execute the function call encoded in `data`. Calls {_authorizeUpgrade}. Emits an {Upgraded} event."
      }
    },
    "version": 1
  },
  "userdoc": {
    "kind": "user",
    "methods": {
      "lzCompose(address,bytes32,bytes,address,bytes)": {
        "notice": "Composes a LayerZero message from an OApp."
      }
    },
    "version": 1
  },
  "storageLayout": {
    "storage": [
      {
        "astId": 10338,
        "contract": "contracts/crosschain/OrderBoxRelayer.sol:OrderBoxRelayer",
        "label": "endpoint",
        "offset": 0,
        "slot": "0",
        "type": "t_address"
      },
      {
        "astId": 10340,
        "contract": "contracts/crosschain/OrderBoxRelayer.sol:OrderBoxRelayer",
        "label": "oft",
        "offset": 0,
        "slot": "1",
        "type": "t_address"
      },
      {
        "astId": 10344,
        "contract": "contracts/crosschain/OrderBoxRelayer.sol:OrderBoxRelayer",
        "label": "eidMap",
        "offset": 0,
        "slot": "2",
        "type": "t_mapping(t_uint256,t_uint32)"
      },
      {
        "astId": 10348,
        "contract": "contracts/crosschain/OrderBoxRelayer.sol:OrderBoxRelayer",
        "label": "chainIdMap",
        "offset": 0,
        "slot": "3",
        "type": "t_mapping(t_uint32,t_uint256)"
      },
      {
        "astId": 10352,
        "contract": "contracts/crosschain/OrderBoxRelayer.sol:OrderBoxRelayer",
        "label": "localComposeMsgSender",
        "offset": 0,
        "slot": "4",
        "type": "t_mapping(t_address,t_bool)"
      },
      {
        "astId": 10358,
        "contract": "contracts/crosschain/OrderBoxRelayer.sol:OrderBoxRelayer",
        "label": "remoteComposeMsgSender",
        "offset": 0,
        "slot": "5",
        "type": "t_mapping(t_uint32,t_mapping(t_address,t_bool))"
      },
      {
        "astId": 10362,
        "contract": "contracts/crosschain/OrderBoxRelayer.sol:OrderBoxRelayer",
        "label": "optionsGasLimit",
        "offset": 0,
        "slot": "6",
        "type": "t_mapping(t_uint8,t_uint256)"
      },
      {
        "astId": 10366,
        "contract": "contracts/crosschain/OrderBoxRelayer.sol:OrderBoxRelayer",
        "label": "_gap",
        "offset": 0,
        "slot": "7",
        "type": "t_array(t_uint256)50_storage"
      },
      {
        "astId": 10309,
        "contract": "contracts/crosschain/OrderBoxRelayer.sol:OrderBoxRelayer",
        "label": "orderSafe",
        "offset": 0,
        "slot": "57",
        "type": "t_mapping(t_uint32,t_address)"
      },
      {
        "astId": 10311,
        "contract": "contracts/crosschain/OrderBoxRelayer.sol:OrderBoxRelayer",
        "label": "orderBox",
        "offset": 0,
        "slot": "58",
        "type": "t_address"
      },
      {
        "astId": 10315,
        "contract": "contracts/crosschain/OrderBoxRelayer.sol:OrderBoxRelayer",
        "label": "_gap",
        "offset": 0,
        "slot": "59",
        "type": "t_array(t_uint256)50_storage"
      }
    ],
    "types": {
      "t_address": {
        "encoding": "inplace",
        "label": "address",
        "numberOfBytes": "20"
      },
      "t_array(t_uint256)50_storage": {
        "base": "t_uint256",
        "encoding": "inplace",
        "label": "uint256[50]",
        "numberOfBytes": "1600"
      },
      "t_bool": {
        "encoding": "inplace",
        "label": "bool",
        "numberOfBytes": "1"
      },
      "t_mapping(t_address,t_bool)": {
        "encoding": "mapping",
        "key": "t_address",
        "label": "mapping(address => bool)",
        "numberOfBytes": "32",
        "value": "t_bool"
      },
      "t_mapping(t_uint256,t_uint32)": {
        "encoding": "mapping",
        "key": "t_uint256",
        "label": "mapping(uint256 => uint32)",
        "numberOfBytes": "32",
        "value": "t_uint32"
      },
      "t_mapping(t_uint32,t_address)": {
        "encoding": "mapping",
        "key": "t_uint32",
        "label": "mapping(uint32 => address)",
        "numberOfBytes": "32",
        "value": "t_address"
      },
      "t_mapping(t_uint32,t_mapping(t_address,t_bool))": {
        "encoding": "mapping",
        "key": "t_uint32",
        "label": "mapping(uint32 => mapping(address => bool))",
        "numberOfBytes": "32",
        "value": "t_mapping(t_address,t_bool)"
      },
      "t_mapping(t_uint32,t_uint256)": {
        "encoding": "mapping",
        "key": "t_uint32",
        "label": "mapping(uint32 => uint256)",
        "numberOfBytes": "32",
        "value": "t_uint256"
      },
      "t_mapping(t_uint8,t_uint256)": {
        "encoding": "mapping",
        "key": "t_uint8",
        "label": "mapping(uint8 => uint256)",
        "numberOfBytes": "32",
        "value": "t_uint256"
      },
      "t_uint256": {
        "encoding": "inplace",
        "label": "uint256",
        "numberOfBytes": "32"
      },
      "t_uint32": {
        "encoding": "inplace",
        "label": "uint32",
        "numberOfBytes": "4"
      },
      "t_uint8": {
        "encoding": "inplace",
        "label": "uint8",
        "numberOfBytes": "1"
      }
    }
  }
}