{
  "address": "0x67C87d8CEA7f6d8B2FdE615FbEc961EbB185f270",
  "abi": [
    {
      "inputs": [
        {
          "internalType": "address",
          "name": "target",
          "type": "address"
        }
      ],
      "name": "AddressEmptyCode",
      "type": "error"
    },
    {
      "inputs": [
        {
          "internalType": "address",
          "name": "implementation",
          "type": "address"
        }
      ],
      "name": "ERC1967InvalidImplementation",
      "type": "error"
    },
    {
      "inputs": [],
      "name": "ERC1967NonPayable",
      "type": "error"
    },
    {
      "inputs": [],
      "name": "EnforcedPause",
      "type": "error"
    },
    {
      "inputs": [],
      "name": "ExpectedPause",
      "type": "error"
    },
    {
      "inputs": [],
      "name": "FailedInnerCall",
      "type": "error"
    },
    {
      "inputs": [],
      "name": "InvalidInitialization",
      "type": "error"
    },
    {
      "inputs": [],
      "name": "NotInitializing",
      "type": "error"
    },
    {
      "inputs": [
        {
          "internalType": "address",
          "name": "owner",
          "type": "address"
        }
      ],
      "name": "OwnableInvalidOwner",
      "type": "error"
    },
    {
      "inputs": [
        {
          "internalType": "address",
          "name": "account",
          "type": "address"
        }
      ],
      "name": "OwnableUnauthorizedAccount",
      "type": "error"
    },
    {
      "inputs": [],
      "name": "UUPSUnauthorizedCallContext",
      "type": "error"
    },
    {
      "inputs": [
        {
          "internalType": "bytes32",
          "name": "slot",
          "type": "bytes32"
        }
      ],
      "name": "UUPSUnsupportedProxiableUUID",
      "type": "error"
    },
    {
      "anonymous": false,
      "inputs": [
        {
          "indexed": false,
          "internalType": "uint64",
          "name": "version",
          "type": "uint64"
        }
      ],
      "name": "Initialized",
      "type": "event"
    },
    {
      "anonymous": false,
      "inputs": [
        {
          "indexed": true,
          "internalType": "address",
          "name": "orderRelayer",
          "type": "address"
        }
      ],
      "name": "OrderRelayerSet",
      "type": "event"
    },
    {
      "anonymous": false,
      "inputs": [
        {
          "indexed": true,
          "internalType": "uint256",
          "name": "chainId",
          "type": "uint256"
        },
        {
          "indexed": true,
          "internalType": "address",
          "name": "staker",
          "type": "address"
        },
        {
          "indexed": false,
          "internalType": "uint256",
          "name": "amount",
          "type": "uint256"
        }
      ],
      "name": "OrderStaked",
      "type": "event"
    },
    {
      "anonymous": false,
      "inputs": [
        {
          "indexed": true,
          "internalType": "address",
          "name": "previousOwner",
          "type": "address"
        },
        {
          "indexed": true,
          "internalType": "address",
          "name": "newOwner",
          "type": "address"
        }
      ],
      "name": "OwnershipTransferred",
      "type": "event"
    },
    {
      "anonymous": false,
      "inputs": [
        {
          "indexed": false,
          "internalType": "address",
          "name": "account",
          "type": "address"
        }
      ],
      "name": "Paused",
      "type": "event"
    },
    {
      "anonymous": false,
      "inputs": [
        {
          "indexed": false,
          "internalType": "address",
          "name": "account",
          "type": "address"
        }
      ],
      "name": "Unpaused",
      "type": "event"
    },
    {
      "anonymous": false,
      "inputs": [
        {
          "indexed": true,
          "internalType": "address",
          "name": "implementation",
          "type": "address"
        }
      ],
      "name": "Upgraded",
      "type": "event"
    },
    {
      "inputs": [],
      "name": "UPGRADE_INTERFACE_VERSION",
      "outputs": [
        {
          "internalType": "string",
          "name": "",
          "type": "string"
        }
      ],
      "stateMutability": "view",
      "type": "function"
    },
    {
      "inputs": [],
      "name": "boxRelayer",
      "outputs": [
        {
          "internalType": "address",
          "name": "",
          "type": "address"
        }
      ],
      "stateMutability": "view",
      "type": "function"
    },
    {
      "inputs": [
        {
          "internalType": "address",
          "name": "_owner",
          "type": "address"
        }
      ],
      "name": "initialize",
      "outputs": [],
      "stateMutability": "nonpayable",
      "type": "function"
    },
    {
      "inputs": [],
      "name": "oft",
      "outputs": [
        {
          "internalType": "address",
          "name": "",
          "type": "address"
        }
      ],
      "stateMutability": "view",
      "type": "function"
    },
    {
      "inputs": [],
      "name": "owner",
      "outputs": [
        {
          "internalType": "address",
          "name": "",
          "type": "address"
        }
      ],
      "stateMutability": "view",
      "type": "function"
    },
    {
      "inputs": [],
      "name": "pause",
      "outputs": [],
      "stateMutability": "nonpayable",
      "type": "function"
    },
    {
      "inputs": [],
      "name": "paused",
      "outputs": [
        {
          "internalType": "bool",
          "name": "",
          "type": "bool"
        }
      ],
      "stateMutability": "view",
      "type": "function"
    },
    {
      "inputs": [],
      "name": "proxiableUUID",
      "outputs": [
        {
          "internalType": "bytes32",
          "name": "",
          "type": "bytes32"
        }
      ],
      "stateMutability": "view",
      "type": "function"
    },
    {
      "inputs": [],
      "name": "renounceOwnership",
      "outputs": [],
      "stateMutability": "nonpayable",
      "type": "function"
    },
    {
      "inputs": [
        {
          "internalType": "address",
          "name": "_oft",
          "type": "address"
        }
      ],
      "name": "setOft",
      "outputs": [],
      "stateMutability": "nonpayable",
      "type": "function"
    },
    {
      "inputs": [
        {
          "internalType": "address",
          "name": "_orderRelayer",
          "type": "address"
        }
      ],
      "name": "setOrderRelayer",
      "outputs": [],
      "stateMutability": "nonpayable",
      "type": "function"
    },
    {
      "inputs": [
        {
          "internalType": "uint256",
          "name": "_chainId",
          "type": "uint256"
        },
        {
          "internalType": "address",
          "name": "_addr",
          "type": "address"
        },
        {
          "internalType": "uint256",
          "name": "_amount",
          "type": "uint256"
        }
      ],
      "name": "stakeOrder",
      "outputs": [],
      "stateMutability": "nonpayable",
      "type": "function"
    },
    {
      "inputs": [
        {
          "internalType": "address",
          "name": "",
          "type": "address"
        }
      ],
      "name": "staker",
      "outputs": [
        {
          "internalType": "uint256",
          "name": "orderAmount",
          "type": "uint256"
        },
        {
          "internalType": "uint256",
          "name": "blockNumber",
          "type": "uint256"
        }
      ],
      "stateMutability": "view",
      "type": "function"
    },
    {
      "inputs": [
        {
          "internalType": "address",
          "name": "newOwner",
          "type": "address"
        }
      ],
      "name": "transferOwnership",
      "outputs": [],
      "stateMutability": "nonpayable",
      "type": "function"
    },
    {
      "inputs": [],
      "name": "unpause",
      "outputs": [],
      "stateMutability": "nonpayable",
      "type": "function"
    },
    {
      "inputs": [
        {
          "internalType": "address",
          "name": "newImplementation",
          "type": "address"
        },
        {
          "internalType": "bytes",
          "name": "data",
          "type": "bytes"
        }
      ],
      "name": "upgradeToAndCall",
      "outputs": [],
      "stateMutability": "payable",
      "type": "function"
    }
  ],
  "transactionHash": "0x27b8199805288a04f665ee27f9bb11515c4dc800c7a0c62663e6888ea9881aae",
  "args": [],
  "numDeployments": 2,
  "solcInputHash": "8b7c31d0b2739f476c44af4e29035796",
  "bytecode": "0x60a06040523060805234801561001457600080fd5b50608051610fc161003e6000396000818161081d01528181610846015261098c0152610fc16000f3fe6080604052600436106100f35760003560e01c80638da5cb5b1161008a578063d0ec2b0111610059578063d0ec2b01146102dc578063f29e8d2c146102fc578063f2fde38b1461031c578063f79d919c1461033c57600080fd5b80638da5cb5b1461020d5780639b5215f61461025e578063ad3cb1cc1461027e578063c4d66de8146102bc57600080fd5b8063715018a6116100c6578063715018a61461017a57806382e4eda41461018f5780638456cb59146101d857806386498cd8146101ed57600080fd5b80633f4ba83a146100f85780634f1ef2861461010f57806352d1902d146101225780635c975abb1461014a575b600080fd5b34801561010457600080fd5b5061010d61035c565b005b61010d61011d366004610d8c565b61036e565b34801561012e57600080fd5b5061013761038d565b6040519081526020015b60405180910390f35b34801561015657600080fd5b50600080516020610f6c8339815191525460ff166040519015158152602001610141565b34801561018657600080fd5b5061010d6103aa565b34801561019b57600080fd5b506101c36101aa366004610e4e565b6000602081905290815260409020805460019091015482565b60408051928352602083019190915201610141565b3480156101e457600080fd5b5061010d6103bc565b3480156101f957600080fd5b5061010d610208366004610e4e565b6103cc565b34801561021957600080fd5b507f9016d09d72d40fdae2fd8ceac6b6234c7706214fd39c1cd1e609a0528c199300546001600160a01b03165b6040516001600160a01b039091168152602001610141565b34801561026a57600080fd5b50600254610246906001600160a01b031681565b34801561028a57600080fd5b506102af604051806040016040528060058152602001640352e302e360dc1b81525081565b6040516101419190610e8d565b3480156102c857600080fd5b5061010d6102d7366004610e4e565b61048a565b3480156102e857600080fd5b50600154610246906001600160a01b031681565b34801561030857600080fd5b5061010d610317366004610e4e565b6105aa565b34801561032857600080fd5b5061010d610337366004610e4e565b61062a565b34801561034857600080fd5b5061010d610357366004610ec0565b610668565b610364610757565b61036c6107b2565b565b610376610812565b61037f826108b7565b61038982826108bf565b5050565b6000610397610981565b50600080516020610f4c83398151915290565b6103b2610757565b61036c60006109ca565b6103c4610757565b61036c610a3b565b6103d4610757565b6001600160a01b0381166104405760405162461bcd60e51b815260206004820152602860248201527f4f72646572536166653a20696e76616c6964206f726465722072656c61796572604482015267206164647265737360c01b60648201526084015b60405180910390fd5b600180546001600160a01b0319166001600160a01b0383169081179091556040517f149cf7635481d99c3f1f92ac518a08988802d6b32da227787e49fba2b83590c990600090a250565b7ff0c57e16840df040f15088dc2f81fe391c3923bec73e23a9662efc9c229c6a008054600160401b810460ff16159067ffffffffffffffff166000811580156104d05750825b905060008267ffffffffffffffff1660011480156104ed5750303b155b9050811580156104fb575080155b156105195760405163f92ee8a960e01b815260040160405180910390fd5b845467ffffffffffffffff19166001178555831561054357845460ff60401b1916600160401b1785555b61054b610a84565b61055486610a8c565b61055c610a9d565b83156105a257845460ff60401b19168555604051600181527fc7f505b2f371ae2175ee4913f4499e1f2633a7b5936321eed1cdaeb6115181d29060200160405180910390a15b505050505050565b6105b2610757565b6001600160a01b0381166106085760405162461bcd60e51b815260206004820152601a60248201527f4f72646572426f783a207a65726f206f667420616464726573730000000000006044820152606401610437565b600280546001600160a01b0319166001600160a01b0392909216919091179055565b610632610757565b6001600160a01b03811661065c57604051631e4fbdf760e01b815260006004820152602401610437565b610665816109ca565b50565b6001546001600160a01b031633146106d25760405162461bcd60e51b815260206004820152602760248201527f4f72646572426f783a204f6e6c79204f72646572426f7852656c617965722063604482015266185b8818d85b1b60ca1b6064820152608401610437565b6001600160a01b038216600090815260208190526040812080548392906106fa908490610ef5565b90915550506001600160a01b0382166000818152602081815260409182902043600190910155905183815285917f0bd635610d35761eabafab34f0a903ddd0fd87edac8d9cb91b43e694f0472797910160405180910390a3505050565b336107897f9016d09d72d40fdae2fd8ceac6b6234c7706214fd39c1cd1e609a0528c199300546001600160a01b031690565b6001600160a01b03161461036c5760405163118cdaa760e01b8152336004820152602401610437565b6107ba610aad565b600080516020610f6c833981519152805460ff191681557f5db9ee0a495bf2e6ff9c91a7834c1ba4fdd244a5e8aa4e537bd38aeae4b073aa335b6040516001600160a01b03909116815260200160405180910390a150565b306001600160a01b037f000000000000000000000000000000000000000000000000000000000000000016148061089957507f00000000000000000000000000000000000000000000000000000000000000006001600160a01b031661088d600080516020610f4c833981519152546001600160a01b031690565b6001600160a01b031614155b1561036c5760405163703e46dd60e11b815260040160405180910390fd5b610665610757565b816001600160a01b03166352d1902d6040518163ffffffff1660e01b8152600401602060405180830381865afa925050508015610919575060408051601f3d908101601f1916820190925261091691810190610f16565b60015b61094157604051634c9c8ce360e01b81526001600160a01b0383166004820152602401610437565b600080516020610f4c833981519152811461097257604051632a87526960e21b815260048101829052602401610437565b61097c8383610add565b505050565b306001600160a01b037f0000000000000000000000000000000000000000000000000000000000000000161461036c5760405163703e46dd60e11b815260040160405180910390fd5b7f9016d09d72d40fdae2fd8ceac6b6234c7706214fd39c1cd1e609a0528c19930080546001600160a01b031981166001600160a01b03848116918217845560405192169182907f8be0079c531659141344cd1fd0a4f28419497f9722a3daafe3b4186f6b6457e090600090a3505050565b610a43610b33565b600080516020610f6c833981519152805460ff191660011781557f62e78cea01bee320cd4e420270b5ea74000d11b0c9f74754ebdbfc544b05a258336107f4565b61036c610b64565b610a94610b64565b61066581610bad565b610aa5610b64565b61036c610bb5565b600080516020610f6c8339815191525460ff1661036c57604051638dfc202b60e01b815260040160405180910390fd5b610ae682610bd6565b6040516001600160a01b038316907fbc7cd75a20ee27fd9adebab32041f755214dbc6bffa90cc0225b39da2e5c2d3b90600090a2805115610b2b5761097c8282610c3b565b610389610cb3565b600080516020610f6c8339815191525460ff161561036c5760405163d93c066560e01b815260040160405180910390fd5b7ff0c57e16840df040f15088dc2f81fe391c3923bec73e23a9662efc9c229c6a0054600160401b900460ff1661036c57604051631afcd79f60e31b815260040160405180910390fd5b610632610b64565b610bbd610b64565b600080516020610f6c833981519152805460ff19169055565b806001600160a01b03163b600003610c0c57604051634c9c8ce360e01b81526001600160a01b0382166004820152602401610437565b600080516020610f4c83398151915280546001600160a01b0319166001600160a01b0392909216919091179055565b6060600080846001600160a01b031684604051610c589190610f2f565b600060405180830381855af49150503d8060008114610c93576040519150601f19603f3d011682016040523d82523d6000602084013e610c98565b606091505b5091509150610ca8858383610cd2565b925050505b92915050565b341561036c5760405163b398979f60e01b815260040160405180910390fd5b606082610ce757610ce282610d31565b610d2a565b8151158015610cfe57506001600160a01b0384163b155b15610d2757604051639996b31560e01b81526001600160a01b0385166004820152602401610437565b50805b9392505050565b805115610d415780518082602001fd5b604051630a12f52160e11b815260040160405180910390fd5b80356001600160a01b0381168114610d7157600080fd5b919050565b634e487b7160e01b600052604160045260246000fd5b60008060408385031215610d9f57600080fd5b610da883610d5a565b9150602083013567ffffffffffffffff80821115610dc557600080fd5b818501915085601f830112610dd957600080fd5b813581811115610deb57610deb610d76565b604051601f8201601f19908116603f01168101908382118183101715610e1357610e13610d76565b81604052828152886020848701011115610e2c57600080fd5b8260208601602083013760006020848301015280955050505050509250929050565b600060208284031215610e6057600080fd5b610d2a82610d5a565b60005b83811015610e84578181015183820152602001610e6c565b50506000910152565b6020815260008251806020840152610eac816040850160208701610e69565b601f01601f19169190910160400192915050565b600080600060608486031215610ed557600080fd5b83359250610ee560208501610d5a565b9150604084013590509250925092565b80820180821115610cad57634e487b7160e01b600052601160045260246000fd5b600060208284031215610f2857600080fd5b5051919050565b60008251610f41818460208701610e69565b919091019291505056fe360894a13ba1a3210667c828492db98dca3e2076cc3735a920a3ca505d382bbccd5ed15c6e187e77e9aee88184c21f4f2182ab5827cb3b7e07fbedcd63f03300a2646970667358221220d964a014b0514c8aad95d943ee89e4412107d174739dfb47d59d0818a0761a0264736f6c63430008140033",
  "devdoc": {
    "errors": {
      "AddressEmptyCode(address)": [
        {
          "details": "There's no code at `target` (it is not a contract)."
        }
      ],
      "ERC1967InvalidImplementation(address)": [
        {
          "details": "The `implementation` of the proxy is invalid."
        }
      ],
      "ERC1967NonPayable()": [
        {
          "details": "An upgrade function sees `msg.value > 0` that may be lost."
        }
      ],
      "EnforcedPause()": [
        {
          "details": "The operation failed because the contract is paused."
        }
      ],
      "ExpectedPause()": [
        {
          "details": "The operation failed because the contract is not paused."
        }
      ],
      "FailedInnerCall()": [
        {
          "details": "A call to an address target failed. The target may have reverted."
        }
      ],
      "InvalidInitialization()": [
        {
          "details": "The contract is already initialized."
        }
      ],
      "NotInitializing()": [
        {
          "details": "The contract is not initializing."
        }
      ],
      "OwnableInvalidOwner(address)": [
        {
          "details": "The owner is not a valid owner account. (eg. `address(0)`)"
        }
      ],
      "OwnableUnauthorizedAccount(address)": [
        {
          "details": "The caller account is not authorized to perform an operation."
        }
      ],
      "UUPSUnauthorizedCallContext()": [
        {
          "details": "The call is from an unauthorized context."
        }
      ],
      "UUPSUnsupportedProxiableUUID(bytes32)": [
        {
          "details": "The storage `slot` is unsupported as a UUID."
        }
      ]
    },
    "events": {
      "Initialized(uint64)": {
        "details": "Triggered when the contract has been initialized or reinitialized."
      },
      "Paused(address)": {
        "details": "Emitted when the pause is triggered by `account`."
      },
      "Unpaused(address)": {
        "details": "Emitted when the pause is lifted by `account`."
      },
      "Upgraded(address)": {
        "details": "Emitted when the implementation is upgraded."
      }
    },
    "kind": "dev",
    "methods": {
      "owner()": {
        "details": "Returns the address of the current owner."
      },
      "paused()": {
        "details": "Returns true if the contract is paused, and false otherwise."
      },
      "proxiableUUID()": {
        "details": "Implementation of the ERC1822 {proxiableUUID} function. This returns the storage slot used by the implementation. It is used to validate the implementation's compatibility when performing an upgrade. IMPORTANT: A proxy pointing at a proxiable contract should not be considered proxiable itself, because this risks bricking a proxy that upgrades to it, by delegating to itself until out of gas. Thus it is critical that this function revert if invoked through a proxy. This is guaranteed by the `notDelegated` modifier."
      },
      "renounceOwnership()": {
        "details": "Leaves the contract without owner. It will not be possible to call `onlyOwner` functions. Can only be called by the current owner. NOTE: Renouncing ownership will leave the contract without an owner, thereby disabling any functionality that is only available to the owner."
      },
      "transferOwnership(address)": {
        "details": "Transfers ownership of the contract to a new account (`newOwner`). Can only be called by the current owner."
      },
      "upgradeToAndCall(address,bytes)": {
        "custom:oz-upgrades-unsafe-allow-reachable": "delegatecall",
        "details": "Upgrade the implementation of the proxy to `newImplementation`, and subsequently execute the function call encoded in `data`. Calls {_authorizeUpgrade}. Emits an {Upgraded} event."
      }
    },
    "version": 1
  },
  "userdoc": {
    "kind": "user",
    "methods": {},
    "version": 1
  },
  "storageLayout": {
    "storage": [
      {
        "astId": 10325,
        "contract": "contracts/crosschain/OrderBox.sol:OrderBox",
        "label": "staker",
        "offset": 0,
        "slot": "0",
        "type": "t_mapping(t_address,t_struct(Staker)10107_storage)"
      },
      {
        "astId": 10327,
        "contract": "contracts/crosschain/OrderBox.sol:OrderBox",
        "label": "boxRelayer",
        "offset": 0,
        "slot": "1",
        "type": "t_address"
      },
      {
        "astId": 10329,
        "contract": "contracts/crosschain/OrderBox.sol:OrderBox",
        "label": "oft",
        "offset": 0,
        "slot": "2",
        "type": "t_address"
      },
      {
        "astId": 10333,
        "contract": "contracts/crosschain/OrderBox.sol:OrderBox",
        "label": "_gap",
        "offset": 0,
        "slot": "3",
        "type": "t_array(t_uint256)50_storage"
      }
    ],
    "types": {
      "t_address": {
        "encoding": "inplace",
        "label": "address",
        "numberOfBytes": "20"
      },
      "t_array(t_uint256)50_storage": {
        "base": "t_uint256",
        "encoding": "inplace",
        "label": "uint256[50]",
        "numberOfBytes": "1600"
      },
      "t_mapping(t_address,t_struct(Staker)10107_storage)": {
        "encoding": "mapping",
        "key": "t_address",
        "label": "mapping(address => struct Staker)",
        "numberOfBytes": "32",
        "value": "t_struct(Staker)10107_storage"
      },
      "t_struct(Staker)10107_storage": {
        "encoding": "inplace",
        "label": "struct Staker",
        "members": [
          {
            "astId": 10104,
            "contract": "contracts/crosschain/OrderBox.sol:OrderBox",
            "label": "orderAmount",
            "offset": 0,
            "slot": "0",
            "type": "t_uint256"
          },
          {
            "astId": 10106,
            "contract": "contracts/crosschain/OrderBox.sol:OrderBox",
            "label": "blockNumber",
            "offset": 0,
            "slot": "1",
            "type": "t_uint256"
          }
        ],
        "numberOfBytes": "64"
      },
      "t_uint256": {
        "encoding": "inplace",
        "label": "uint256",
        "numberOfBytes": "32"
      }
    }
  }
}